:020000040800F2
:1000000000000520BD050008DD1E0008DF1E0008F9
:10001000E11E0008E31E0008E51E000800000000C5
:1000200000000000000000000000000031D80008BF
:10003000E71E000800000000C1D8000855D10008E4
:100040000D0600080D0600080D0600080D06000844
:100050000D0600080D0600080D0600080D06000834
:100060000D0600080D0600080D0600080D06000824
:100070000D0600080D0600080D0600080D06000814
:100080000D0600080D0600080D0600080D06000804
:100090000D0600080D0600080D0600080D060008F4
:1000A0000D0600080D0600080D0600080D060008E4
:1000B0000D0600080D0600080D0600080D060008D4
:1000C0000D0600080D0600080D0600080D060008C4
:1000D0000D0600080D0600080D0600080D060008B4
:1000E0000D0600080D0600080D0600080D060008A4
:1000F0000D0600080D0600080D0600080D06000894
:100100000D0600080D0600080D0600080D06000883
:100110000D0600080D060008E91E00080D0600087F
:100120000D0600080D0600080D0600080D06000863
:100130000D0600080D0600080D0600080D06000853
:100140000D0600080D0600080D0600080D06000843
:100150000D0600080D0600080D0600080D06000833
:100160000D0600080D0600080D0600080D06000823
:100170000D0600080D0600080D060008000000002E
:100180000D0600080D0600080D0600080D06000803
:100190000D0600080D0600080D0600080D060008F3
:1001A000F51E00080D060008011F00080D060008D6
:0401B0000D1F000817
:1001C00010B5054C237833B9044B13B10448AFF391
:1001D00000800123237010BDA80100200000000052
:1001E0007C67020808B5034B1BB103490348AFF312
:1001F000008008BD00000000AC0100207C67020800
:1002000001F0FF01102A2BDB10F0070F08D010F8C7
:10021000013B013A8B422DD010F0070F42B3F6D1CB
:10022000F0B441EA012141EA014122F007047FF0E4
:1002300000070023F0E80256083C85EA010586EA3B
:10024000010685FA47F5A3FA87F586FA47F6A5FA77
:1002500087F68EB9EED1F0BC01F0FF0102F0070283
:1002600032B110F8013B013A83EA010313B1F8D12E
:100270000020704701387047002D06BF354603380F
:10028000073815F0010F07D1013015F4807F02BF48
:10029000013015F4C03F0130F0BC0138704700BF99
:1002A00010F8012B11F8013B012A28BF9A42F7D020
:1002B000D01A7047034613F8012B002AFBD1181AF5
:1002C0000138704753B94AB9002908BF00281CBF3C
:1002D0004FF0FF314FF0FF3000F06EB9ADF1080C78
:1002E0006DE904CE00F006F8DDF804E0DDE9022354
:1002F00004B070472DE9F047089D04468C46002B5A
:1003000040F083808A42174647D9B2FA82F242B15E
:10031000C2F1200024FA00F09140974040EA010C1D
:1003200094404FEA1748230CBCFBF8F61FFA87FEEF
:1003300008FB16C143EA014306FB0EF1994209D9B5
:10034000FB1806F1FF3080F01981994240F21681C6
:10035000023E3B445B1AA4B2B3FBF8F008FB103337
:1003600044EA034400FB0EFEA64509D93C1900F1FE
:10037000FF3380F00581A64540F2028102383C44FB
:1003800040EA0640A4EB0E0400261DB1D440002331
:10039000C5E900433146BDE8F08702B9FFDEB2FA95
:1003A00082F2002A50D1CB1B4FEA174E1FFA87F872
:1003B0000126B3FBFEFC210C0EFB1C3341EA03417A
:1003C00008FB0CF38B4207D979180CF1FF3002D2ED
:1003D0008B4200F2E9808446C91AA3B2B1FBFEF059
:1003E0000EFB101143EA014408FB00F8A04507D9B1
:1003F0003C1900F1FF3302D2A04500F2D980184623
:10040000A4EB080440EA0C40BFE78B4209D9002D59
:1004100000F0B1800026C5E9000130463146BDE854
:10042000F087B3FA83F6002E4AD18B4202D3824280
:1004300000F2B880841A61EB030101208C46002D84
:10044000A8D0C5E9004CA5E7C2F1200320FA03F6C5
:10045000974001FA02F04FEA174ED9403043030C9F
:10046000B1FBFEF61FFA87F80EFB161143EA0143B3
:1004700006FB08F1994204FA02F409D9FB1806F1C7
:10048000FF3C80F08D80994240F28A80023E3B44DE
:100490005B1A81B2B3FBFEF00EFB103341EA03415D
:1004A00000FB08F38B4207D9791800F1FF3C73D2A7
:1004B0008B4271D902383944CB1A40EA064678E7B4
:1004C000C6F1200C03FA06F422FA0CF31C4320FABE
:1004D0000CF701FA06F34FEA144E21FA0CF11F4310
:1004E0003B0CB1FBFEF91FFA84F80EFB191143EA2D
:1004F000014109FB08FA8A4502FA06F200FA06F3FE
:1005000008D9611809F1FF3048D28A4546D9A9F1C6
:1005100002092144A1EB0A01BFB2B1FBFEF00EFBC0
:10052000101147EA014700FB08F8B84507D9E71959
:1005300000F1FF312ED2B8452CD90238274440EAC9
:100540000940A7EB0807A0FB02894F45C64649466C
:100550001AD317D05DB1B3EB0E0267EB010707FAB0
:100560000CFCF2404CEA0202F740C5E900270026E5
:100570003146BDE8F0872E4628460BE70646E9E6F9
:100580001846FDE64345E5D2B8EB020E69EB0401DF
:100590000138DFE70846D2E760468DE78146B9E7D4
:1005A000664675E730464AE7ACF1020C394413E77A
:1005B00002383C4424E700BF704700BFDFF834D066
:1005C000002103E00C4B5B58435004310B480C4BAB
:1005D00042189A42F6D30B4A02E0002342F8043B49
:1005E000094B9A42F9D309F0B1FD24F079F800F0F3
:1005F00067FF70470000052074BD0208000000205E
:10060000A8010020A801002034100220FEE700F01D
:10061000E1BD00F04FBE0021084609F0FFB8002000
:1006200009F036B94068704741607047054A136861
:1006300043F080731360044A136843F001031360AE
:10064000704700BFFCED00E0001000E0511A01EB24
:100650005301B1FBF3F07047014B1868704700BFBE
:10066000041000E0704710B50C21044623F0B5FEDD
:10067000204610BD036810B51B69044631B1984788
:10068000A26863689B1A1844606010BD9847A06018
:10069000FBE770477047000008B5FFF7BCFF024B4F
:1006A00000221A6008BD00BFC401002070B50D46CD
:1006B000FFF7B5FF0B4A937856781178D370C4B220
:1006C00013F001009670517014700AD016F00100FA
:1006D00007D011F0010004D0E3075ABF01202870B1
:1006E000002070BDC401002010B50421044623F091
:1006F00074FE204610BD704710B50421044623F057
:100700006CFE204610BD000008B54FF4F0714FF4A8
:10071000487009F067FC074B10B901221A7008BD38
:100720001B78002BFBD1044B044A0548262123F0FB
:1007300083FE00BFC8010020306802084368020839
:100740006D6802087FB50B4B1C780E4615465CB1F0
:1007500001A809F085FC9DF8043043B1BDF80630CE
:100760003360BDF80A302B60204604B070BD1C46D3
:10077000FAE700BFC801002010B1012809D0704776
:10078000084B09481A68B2FA82F2520940210AF06D
:10079000FFBC044B05485A68B2FA82F25209102194
:1007A000F5E700BFCC01002000180240000C024019
:1007B00010B1012809D07047084B09481A68003A5F
:1007C00018BF012240210AF0E3BC044B05485A68D7
:1007D000003A18BF01221021F5E700BFCC0100202C
:1007E00000180240000C024010B1012804D07047EC
:1007F000034840210AF0D1BC02481021FAE700BFAB
:1008000000180240000C024008B530B1012809D0A0
:100810000020431E5842584108BD044840210AF0B8
:10082000B1FCF6E702481021F9E700BF00180240CA
:10083000000C024070B5084D00240126E0B2FFF71D
:10084000E3FF18B12B68012B18BF2E600134052C73
:1008500005F10405F2D170BDCC010020012380F820
:10086000741080F875307047002070470020704782
:10087000836B0BB10846184770474FF6FF707047FF
:10088000406803689B69184770477047014B1868B8
:10089000704700BFDC0100207047000038B50446F7
:1008A000094DFFF7C7FF204600F086FD002384F8BE
:1008B0004A302846FFF7BAFE012384F86C30034B18
:1008C0002561636138BD00BFE8010020E40100201C
:1008D0000368044607B5DB6F9847236820465B6FC3
:1008E000984700F02DFA23682046DB6E98470021D8
:1008F00006480091292315220AF033FA00F020FA65
:1009000023682046DB6E9847F8E700BFB00D022051
:1009100010B5044611F074F823682046D3F8A430CB
:10092000BDE81040184700F046BD00F05DBD00F086
:100930005DBD00F02FBD00F035BD00F059BD0000D9
:1009400008B5094B1B888B4203D8084B1B88934280
:1009500005D9074B074A08489E2123F06DFD074B38
:100960001980074B1A8008BD840A0220860A0220DB
:10097000E86802084B6902088E6902088A0A0220A8
:100980008C0A0220024B00221A7010F013BA00BF2A
:100990001400002010B5044610F018FA94F84B30FB
:1009A00013B1024B01221A7010BD00BF14000020C9
:1009B00010F0C3B910B57C21044623F00EFD20468B
:1009C00010BD90F877301BB1406803681B6818476A
:1009D0001846704710B590F8341090F874400C4BDE
:1009E0008C421A7809D03AB90A4A0B491488088807
:1009F00010800C8001221A7010BD002AFCD0054A1C
:100A000005491488088810800C800022F3E700BF95
:100A1000880A0220840A0220860A022010B50C4CA3
:100A2000216031B90B4B0C4A0C484FF42B7123F069
:100A300003FDC0E90F12003A0949436418BF0122BF
:100A40000A70003B074A18BF0123137010BD00BF96
:100A5000DC010020D36902080B6A02088E690208D3
:100A60008E0A02208F0A0220012807B50AD84B7887
:100A700000930B780848152200210AF072F903B0A0
:100A80005DF804FB01910B5C0093392203460021C1
:100A900001480AF077F9F2E7B00D022037B50B4AAA
:100AA0000B4C0223152513705570019244220092BD
:100AB0000021392220460AF065F9002100913523F2
:100AC0002A4620460AF04DF903B030BDF40100205B
:100AD000B00D022007B50190FFF7E0FF019803B0C9
:100AE0005DF804EB00F066BC07B5074B03EB800034
:100AF0002A230190009339220423002103480AF09D
:100B000041F903B05DF804FB04000020B00D0220A1
:100B100070B5154D04460020FFF72EFE2A6892F8A6
:100B20006630013382F8663000F0FEF80F4B28681B
:100B30001A781B7880F84A2023B10D4D2B7803F0EA
:100B4000FF0623B1BDE870400020FFF731BE10F072
:100B500057FF084B30461E60FFF7C6FF20460AF0DD
:100B6000F0F801232B7070BD900A022014000020C1
:100B7000F6010020E0010020304B314A70B50546F7
:100B80001868304C013018602F4B03281E682ADC8F
:100B9000D4F804144FF4C87303FB006321F0080178
:100BA000C4F8041493620CBFE823C8230233274916
:100BB0001B0443F4F1730B61254B4B61A3F5F073F8
:100BC0005360244BD36201234B62FFF78DFF1D4A14
:100BD000D2F8043443F008032846C2F80434BDE8D0
:100BE00070400AF0AEB8D4F804341B4923F008036F
:100BF000C4F80434154B9662196101F10111596171
:100C0000164951601349D16201225A620020FFF750
:100C10006BFFD4F8043443F00803C4F80434002014
:100C2000FFF7C6FD0E4B00221A700E4B186820B15C
:100C30000368BDE870401B6A184770BDE0010020E2
:100C400084680140006C0140DC0100200068014024
:100C5000E301CA0093018006E201CA000300CA0052
:100C6000F6010020900A022008B5044B01461868DE
:100C700001B1012110F0DEFE012008BD900A022022
:100C8000054B064800225A609A60054A1A60054BD7
:100C90000360FFF701BD00BFE8010020E401002070
:100CA000F46702081C680208012108B50022084602
:100CB0000CF0DFFA0A4B186028B90A4B0A4A2921BE
:100CC0000A4823F0B9FB0022042101200CF070FB3C
:100CD000074B186018B9074B034A2D21F0E708BDF0
:100CE000FC0100202C6B0208756B0208A46B020843
:100CF000F8010020046C0208024B4FF0FF31186825
:100D00000CF002BBFC010020014B18680CF028BB62
:100D1000FC010020024B002118680CF0F5BA00BF5E
:100D2000FC010020FFF7F0BF0348044900680023DE
:100D30001A460CF079BB00BFF80100201800002013
:100D400013B5084C00231A4601A920680CF09CFB3F
:100D500020684FF0FF33002201A90CF095FB02B090
:100D600010BD00BFF801002003685B6C184701202C
:100D7000704703689B6A184782B0002301930D4BAC
:100D80001A6B42F400021A631A6B02F40002019219
:100D9000019A1A6942F400021A611A6922F40002E7
:100DA0001A61054B054A1A61054B4FF080629A6043
:100DB00002B0704700380240780E0220CD0D0008C6
:100DC00000E100E040F2EF3070470000024B1B688A
:100DD000586803685B691847900A022008B50B2819
:100DE0000BD8DFE800F01206100A0A0A0A08080801
:100DF0000808012008BD0520FCE7054B054A064808
:100E0000672123F019FB0020F4E70220F2E700BF7E
:100E1000466C0208616C0208AB6C020808B50A282F
:100E200009D8DFE800F010060E08080808060606D4
:100E30000600012008BD054B054A0648882123F01D
:100E4000FBFA0020F6E70220F4E700BF466C020838
:100E5000096D0208AB6C02082DE9F84391F81D807A
:100E60000C464046FFF7BAFFA77F05463846FFF716
:100E7000B5FF06463846FFF7D1FFA18A628B4B4B80
:100E8000521A1A649A61228B521A1A61E28A5863C2
:100E900042EA01425A6421696268D963DA60D4F88F
:100EA00000C094F81C90BCF1800F4FEA09629E4686
:100EB00030D014D8BCF1200F45EA020068D0BCF154
:100EC000400F65D0BCF1040F20D0384B2A4342F4C8
:100ED0000032B845DA6148D140F2012214E0BCF595
:100EE000807F07D0BCF5007FEFD142F4003242F0A2
:100EF000090203E042F4003242F00A02DA61E268D9
:100F00001A625E6259612A4A1A604CE040F400306D
:100F1000D861F6E7A0682A4342F40032041DDC627F
:100F2000DA6102785E62596142B1012A1FD0214B19
:100F3000214A22484FF4897123F07EFA4288D96908
:100F4000501E21F47F4222F0100242EA0022DA61B0
:100F50000124164BDA6942F02002DA61DA6992065E
:100F6000FCD410229A60002CCDD1154ACCE74288DF
:100F7000D969501E21F47F4222F0100242EA002279
:100F8000B9F1FF0442F0100218BF0124DA61E0E772
:100F9000074B40F40030CEF81C00CEF82460CEF8A9
:100FA0001410CEF80030BDE8F88300BF00B0024056
:100FB00001020200546D02086E6D0208AB6C02085B
:100FC0000102010038B50C46887FFFF727FFA58A8C
:100FD000E18A164B628B586341EA05415964521B02
:100FE0002169D9631A642568082D0ED19A611A61A6
:100FF0005862207F0E4A42EA0062DA61E2681A62B1
:101000000C4A5961D9601A6038BD0022D8611A6152
:10101000E1680A0A480902F4784200F4FC600243DD
:10102000C1F3C4010A439A63034AECE700B00240EB
:10103000090001000102020001020300054B0360E8
:10104000054B4FF08062C3F88820BFF34F8FBFF38A
:101050006F8F7047B46D020800E100E010B50446E0
:10106000FFF7ECFF20464FF4426123F0B6F920462B
:1010700010BD000070B5044625460A4B0C30002612
:1010800060602672667245F8203B6022294610F0A7
:1010900005FE04F54263EE602035AB42FBD12046ED
:1010A00070BD00BFB46D0208012070470C2070476E
:1010B0000C2303FB0100083070470C2303FB0100E5
:1010C00008307047012070474EF6241070474EF6E6
:1010D000241303FB0100083070474EF6241303FB72
:1010E000010008307047012070471020704700EB66
:1010F00001100830704700EB0110083070470846B7
:1011000003F078BD10B5034B036004460EF00AFAF5
:10111000204610BD6C6E020810B50446FFF7F2FFC2
:101120002046142123F059F9204610BD10B5034B79
:10113000036004460EF0F6F9204610BD386E020832
:1011400010B50446FFF7F2FF20464EF62C1123F0AF
:1011500044F9204610BD000010B5034B036004465F
:101160000EF0E0F9204610BD046E020810B50446EA
:10117000FFF7F2FF2046182123F02FF9204610BD7B
:1011800010B5094B0360044600F569405830FFF77D
:10119000B9FF04F12C00FFF7C9FF04F11400FFF7B9
:1011A000DBFF204610BD00BFA06E020808B5024854
:1011B000FFF7E6FF08BD00BF0402002010B504469B
:1011C000FFF7DEFF20464EF6C82123F006F9204641
:1011D00010BD00002DE9F34100F00AFF054600F0C4
:1011E0000BFF00240146234628462246009417F0B0
:1011F000A3F8244B244A254D1A60204605F028FE0A
:10120000234816F0DBFF2B78BFF35B8FDB0733D46B
:10121000284623F0E4F878B31E4C1F4F1F4B236081
:1012200007F1180604F1140004F12C086060C4F8FA
:101230000880E76026610EF077F9194B636140463C
:101240000EF072F9174BE36238460EF06DF9164B4B
:101250003B6007F1140006F069FC224607F1140117
:10126000304606F059FC304603F0C4FC284623F013
:10127000C2F80E4823F0FEF80D4802B0BDE8F04178
:10128000FFF70CBBEC0A02206CF9002000020020E2
:101290001C000020040200205CEB0020A06E02086D
:1012A000046E0208386E02086C6E0208AD11000868
:1012B000F0F800200148FFF70BBB00BFF0F800205A
:1012C00070B5244E244C254D254B23603046FFF746
:1012D000D1FE28461AF000F9224B2348DC60002298
:1012E0004FF48071C3E9121220491A85C3E919121B
:1012F0004FF080715967012183F878101C4983F8F9
:101300002A200B604FF4507101801A48DA62C3E959
:101310000422C3E90622C3E90822C3E90E22C3E975
:101320001022C3E91422C3E916221A861A6683F82A
:101330006C201A67C3E9016501800F4883F83420E7
:101340004FF4F07101800D4801800D490A700D4A7B
:101350001A6070BDD0EC0020CCEC002070F90020A9
:10136000D8680208F0F80020840A02200100000179
:10137000900A02208A0A0220860A02208C0A022091
:10138000880A0220646A02080148FFF757BE00BFBE
:10139000D0EC0020024B902283F85A23704700BF04
:1013A00000E100E0024B4FF080629A60704700BF9E
:1013B00000E100E07047704738B504460FF013FDB8
:1013C00023681D6E13F044FA01462046A84723689F
:1013D000D3F8845000231A464FF040412046A847D6
:1013E000012384F84A3038BD0FF0ADBC0FF009BEC0
:1013F000044B4FF08062C3F88820BFF34F8FBFF3D8
:101400006F8F704700E100E0014900200DF092BBB2
:10141000690C000808B564200BF01FFFFBE7000013
:1014200030B595B01022002109A823F0ABFA1422A0
:10143000002102A823F0A6FA00241F4B00941A6C86
:1014400042F080521A641B6C03F080530093009B9F
:101450001A4B01941A6842F440421A601B6803F464
:10146000404301930122019B4FF48033CDE90723D0
:1014700002254FF480030821CDE90D534FF4B473D6
:10148000CDE90F1304200623CDE9120307A8119517
:101490000BF030FA0AF080FC0F23CDE902350494FA
:1014A0004FF480534FF4A054052102A8CDE9054321
:1014B0000AF0F4FF15B030BD003802400070004063
:1014C0002DE98048B9B008F04FFEFFF7A9FF1422BC
:1014D00000212BA8002423F055FAC94B02941A6B63
:1014E000C84842F010021A631A6B02F0100202920E
:1014F000029A03941A6B42F002021A631A6B02F00A
:1015000002020392039A04941A6B42F040021A6397
:101510001A6B02F040020492049A05941A6B42F08E
:1015200008021A631A6B02F008020592059A0694E3
:101530001A6B42F480721A631A6B02F4807206927C
:10154000069A07941A6B42F020021A631A6B02F093
:1015500020020792079A08941A6B42F480621A6379
:101560001A6B02F480620892089A09941A6B42F08E
:1015700080021A631A6B02F080020992099A0A9497
:101580001A6B42F004021A631A6B02F004020A9208
:101590000A9A0B941A6B42F400721A631B6B03F4E1
:1015A00000730B93012208210B9B09F0F1FD964873
:1015B0002246102109F0ECFD94482246402109F012
:1015C000E7FD22469248802109F0E2FD112608231A
:1015D0008C482BA901274FF00208CDE92B364FF09C
:1015E000100BCDE92D4409F045FC87482D942BA91B
:1015F000CDE92BB7CDF8B88009F03CFC40238348F7
:101600002BA98025CDE92B37CDE92D4809F032FCF7
:101610002BA903237E482E93CDE92B562D9409F058
:1016200029FC7C487C4E7D4B036008F043FE7C4BDC
:10163000C6E90A44C6E90C443046C6E90034C6E9A6
:10164000024408F04BFF3946304608F0FFFF2946B8
:1016500022466F48734E09F09BFD142008F0B0FD40
:1016600029463A466A4809F093FD0A2008F0A8FD89
:101670002422214615A823F085F9182221460FA817
:1016800023F080F9342221462BA823F07BF92C2269
:1016900021461EA823F076F9634B0E940425C6E973
:1016A00000340CA97D233046C6E90257CDE90C3839
:1016B00009F094F815A93046CDE91574CDE9174421
:1016C000CDE91944CDE91B441D9409F0B1FA1C225F
:1016D0002123CDE90F230F211923CDE91113304622
:1016E0000FA9CDE9134409F066FA2946304609F0FE
:1016F00051FA42F21071304609F0A5FB21463046FE
:1017000009F009F84FF480704FF40073CDE92B0312
:101710004FF4806A4FF400634FF48052CDE92DA35B
:101720004FF40053CDE92F234FF480494FF4803319
:101730004FF4003CCDE931934FF48023CDE933C31E
:101740004FF4002E4FF080732BA93046CDE935E3DE
:10175000CDF8DC8009F0EAF9C8231EA93046CDE9AE
:10176000203BCDE92245CDE91E44CDE92484CDE9D5
:101770002644289709F068F92146304609F053F9C4
:101780002A482B490462C0E9001440232021C0E903
:1017900004134FF4C071C0E90614072103234FF46A
:1017A0008052CDE92C152E912BA9CDE92F38C0E917
:1017B0000929C0E90245CDF8AC80CDF8C4800BF012
:1017C0004FFA08F0F9FB08F0A9FB342221461EA8C5
:1017D000184D23F0D7F8184AAC86C5E90024CA236F
:1017E0004FF4F172C5E90932CB2140F2E3122846E9
:1017F000C5E90B12C5E90244C5E904471EE000BF74
:101800000038024000280240000C0240001802404C
:10181000001C0240A80D0220780E02200030024079
:1018200000B00240B00D0220006C0140B80E022052
:10183000400100A0CC0D022000680140C5E90678F7
:10184000C5F8208085F836400AF070F9FF21C823DA
:101850004FF4F072CDE9231405204FF04041CDE95B
:101860002601CDE928321EA9CDE9212828462246A5
:10187000CDE91F341E94CDF894A0ADF8A8408DF8A2
:10188000AA400AF01FFA2A68936923F001039361C2
:10189000304609F033FA3946404607F001FD282367
:1018A000152221463046009409F05BFA2BA93046F8
:1018B000CDE92B44CDE92D44CDE92F44CDE9314488
:1018C000CDE93344359409F031F94FF4487122469B
:1018D00028460AF025FA2A681E4893691E4D1F4EB5
:1018E0003B4393611E4B0462C0E900371B23C0E9F0
:1018F000043AC0E9027BC0E906440AF065FB08F03F
:10190000D3F908F007F908F07DF8164B2C62284649
:10191000C5E90063C5E90244C5E90494C5E9064484
:1019200009F020FE284609F0C5FEFEF770FE0BF018
:101930001FFC0D4A0D4821460BF046FC0C4B0D4A8E
:10194000186021460C480BF03FFC0C4B18600BF064
:1019500021FCFEE7EC0E0220540D02200054004052
:10196000001000A0801A0600EC6E02081514000892
:10197000500D0220C86E020813060008740E0220E3
:101980000268034B9A4201D108F008BC704700BFBF
:1019900000100040704701207047002303600123BE
:1019A0000B60704782B00E4B00220092596C41F4DC
:1019B00080415964596C01F4804100910099019271
:1019C000196C41F0805119641B6C03F08053019332
:1019D000019B0F216FF0010002B008F017BC00BF9F
:1019E000003802400268094B9A4282B00BD10023B2
:1019F0000193074B1A6B42F480521A631B6B03F47A
:101A000080530193019B02B0704700BF0030024039
:101A10000038024007B50F4B02689A4216D10022E7
:101A2000A3F5F0430192196B41F4000119631B6B9C
:101A300003F40003019305215A20019B08F0E6FB03
:101A40005A2003B05DF804EB08F012BC03B05DF857
:101A500004FB00BF00B0024010B5044688B0142259
:101A6000002103A822F08EFF2268184B9A422AD147
:101A700003F54C43002401945A6C154842F000626F
:101A80005A645A6C02F000620192019A02941A6B35
:101A900042F400721A631B6B03F400730293042276
:101AA000029B0223CDE9032303A90D230793CDE96C
:101AB000054409F0DFF95C202246052108F0A6FB69
:101AC0005C2008F0D5FB08B010BD00BF006C0140E1
:101AD0000024024030B5044689B01422002103A836
:101AE00022F050FF22681A4B9A422FD1194C1A4803
:101AF00000250195236B43F002032363236B03F05E
:101B000002030193019B4FF440721223CDE903239A
:101B100001210323CDE90513042303A9079309F049
:101B2000A9F90295236C43F400132364236C03F496
:101B300000130293029B236A43F400132362236A77
:101B400023F400132362642008F03AFB09B030BD8F
:101B500000540040003802400004024008B502680A
:101B60000A4B9A4210D10A4A0A48136C23F4001314
:101B700013644FF4807109F063FABDE8084005482A
:101B80004FF4007109F05CBA08BD00BF005400407A
:101B9000003802400004024010B5044690B03C22D8
:101BA000002101A822F0EEFE2268134B9A4221D1B7
:101BB000082301934FF4B47305930024062301A86E
:101BC00008930B940AF034FD08B1FFF7E3FE0B4BCA
:101BD00000945A6C42F080625A645B6C03F080633C
:101BE0000093582000220521009B08F00FFB58208D
:101BF00008F03EFB10B010BD006801400038024004
:101C0000F0B5044689B01422002103A822F0BAFEE0
:101C10002268244B9A4243D1234B24480024009449
:101C20009A6B42F002029A639A6B02F002020092EF
:101C3000009A01941A6B42F002021A631A6B02F0C6
:101C400002020192019A02941A6B42F020021A6376
:101C50001B6B059403F02003029302260325029BCD
:101C60000A27402303A9CDE90336CDE9065709F039
:101C700001F94FF49863CDE903360D48092303A910
:101C80000793CDE9054509F0F5F84FF4407308488E
:101C9000079703A9CDE90336CDE9054509F0EAF830
:101CA00009B0F0BD001000A000380240000402405E
:101CB0000014024008B50268094B9A420FD1094A44
:101CC0000948936B23F002039363402109F0B8F9AC
:101CD000BDE8084005484FF4F86109F0B1B908BD06
:101CE000001000A00038024000040240001402402E
:101CF000F0B5314B1C6887B0002C5BD101221A6013
:101D00002E4B00949A6B2E4842F001029A639B6B13
:101D1000039403F001030093022703260C25009B84
:101D200001A94FF68373CDE90137CDE9046509F0C8
:101D3000A1F848F233132348059501A9CDE90137ED
:101D4000CDE9034609F096F84CF203731E48059559
:101D500001A9CDE90137CDE9034609F08BF840F23E
:101D6000FF631A48059501A9CDE90137CDE903467E
:101D700009F080F84FF63F031548059501A9CDE914
:101D80000137CDE9034609F075F84FF47F43114858
:101D9000059501A9CDE90137CDE9034609F06AF8B7
:101DA0000D230D48059501A9CDE90137CDE903467D
:101DB00009F060F807B0F0BDECF9002000380240EF
:101DC0000010024000180240000C024000200240B7
:101DD00000140240001C02400008024008B5174BE6
:101DE0001A6852BB01221A60154A1648936B23F0F9
:101DF000010393634FF6837109F022F9124848F208
:101E0000331109F01DF911484CF2037109F018F96A
:101E10000F4840F2FF6109F013F90E484FF63F01F9
:101E200009F00EF90C484FF47F4109F009F9BDE8BB
:101E300008400A480D2109F003B908BDE8F900205F
:101E4000003802400010024000180240000C02401E
:101E50000020024000140240001C02400008024022
:101E600030B5014689B00022362008F0CFF936207F
:101E700008F0FEF90025154B02951A6C144C42F03F
:101E800010021A641B6C03F01003029301A903A84B
:101E9000029B0AF0AFFB0AF09DFB0E4B236040F261
:101EA000E733E36040000C4BB0FBF3F001386060B7
:101EB00020462561A5600BF071F820B920460AF094
:101EC00027FF09B030BD0120FBE700BF003802400A
:101ED000380F02200010004040420F007047FEE71C
:101EE000FEE7FEE7FEE7704701480AF04FBF00BF7C
:101EF000380F0220014809F088BE00BFCC0D022037
:101F0000014808F019BB00BF780E0220014808F014
:101F100018BD00BFB00D02200120704708B522F0A7
:101F2000D1FA162303604FF0FF3008BD08B522F048
:101F3000C9FA16230360FEE770B50E461446002565
:101F4000A54201DB204670BDAFF30080705501351E
:101F5000F6E770B50E4614460025A54201DB204683
:101F600070BD705DAFF300800135F6E74FF0FF30D4
:101F700070474FF400534B600020704701207047BA
:101F80000020704708B50A4B1968024609B909498B
:101F900019601868694602448A4206D922F092FA0A
:101FA0000C2303604FF0FF3008BD1A60FCE700BF50
:101FB000F4F9002038100220704710B504210446BF
:101FC00022F00BFA204610BD012908B506D00229DF
:101FD00008D059B904F088FF006808BD04F084FFF8
:101FE0004068FAE704F080FF8068F6E70020F4E735
:101FF00000487047246F02080B20704713B5002477
:1020000051B1036801948DF8034001AA9C680DF159
:102010000303A04702B010BD0846FBE740897047A4
:10202000808970478088704783798088184480B29F
:102030007047C07900F07F007047C079C0097047D1
:102040000020704781807047C180704701817047D0
:10205000418170477047704770477047704710B4B0
:10206000C4880368121B84881B6D091B12B25DF8BB
:10207000044B09B218474FF6FF7383814FF0FF33CB
:1020800003621368C36110607047806A704790F8FC
:1020900025201AB190F8242002B11860704770B55D
:1020A000036804465B6B154698472368294620461B
:1020B0009B6BBDE870401847094A02604FF480717D
:1020C00000228184FF21C0E90122C0E90322C0E986
:1020D0000522C0E9072280F826108262704700BFFF
:1020E000389C020870477047704710B50446D0F816
:1020F000100150B10368DB68984730B1D4F8100183
:102100000368BDE810409B68184710BD70477047D2
:1021100090F82C302BB1C26EC26523B1436F0366B9
:102120007047826EF8E7036FF9E708B590F82C3036
:1021300033B1D0F8BC30C0F8A830FFF7E9FF08BDD4
:10214000D0F8B830F7E77047704730B4C2684468D9
:102150005510034604EB6200D20748BF62599B68E2
:1021600030BC48BFD358184743682BB183682BB99C
:10217000C06800F0010070471846704701207047A2
:1021800090F82D3080F8AE3080F85A30704790F8D3
:102190002D3080F85A30704710B50821044622F0DF
:1021A0001CF9204610BD10B57821044622F015F91F
:1021B000204610BD10B5C021044622F00EF920467D
:1021C00010BD10B51021044622F007F9204610BDBD
:1021D00010B54FF48A71044622F0FFF8204610BD76
:1021E00010B50446006B50B10368DB68984730B106
:1021F000206B036821469B68BDE81040184710BD5E
:1022000000F12C038B4210B504460AD10368D3F8C1
:102210008C30984723682046D3F89030BDE81040B2
:10222000184710BD0B7970B590F82C6004460D4628
:102230009BB98EB9B3FA83F35B0984F82C30236819
:102240002046D3F888309847236820465B69984732
:1022500016B12B79012B03D070BD002EFCD0E9E71D
:1022600023682046D3F88430BDE87040184700004A
:10227000074A02600022C0E90122C0E90322C0E946
:102280000522C0E907224FF480728284704700BFA4
:10229000B4A2020870B503680446DB6A1546984785
:1022A0002368294620461B6BBDE870401847000094
:1022B00070B50446FFF7DCFF4FF47F432646A38545
:1022C0000123002584F82430224BA562256346F8BB
:1022D000343B26222946304622F054FB3046FFF795
:1022E000C7FFFF2384F85A301B4B636331462046F7
:1022F0002646C4E91A55C4E91C55E5652566A4F8C7
:102300006450A5630EF0E8F8144B46F8783B26229B
:102310002946304622F036FB3046FFF7A9FF104B26
:10232000C4F8A0304FF6FF73A4F8A4304FF47F0335
:10233000C4F8AC300B4BC4F8A8502046C4E92D5566
:10234000A4F8B050A367C4F8BC5031460EF0C4F8EE
:10235000204670BD24710208C49E0208BC710208A8
:1023600014710208A49D02082DE9FF410446254688
:10237000FFF77EFF0026494BA66245F82C3B284616
:10238000FFF796FF464BC4F81061C4E94034454B53
:10239000C4E942364FF03C13A36004F160003246BA
:1023A00031460190FFF776FF3C2211460198FFF776
:1023B00076FE0123A4F89030A3F16513A3F5C8437A
:1023C000C4F8943003F1351303F55853C4F898302A
:1023D000354BC4F89C3003F5422303F23923C4F88B
:1023E000A030E36A2846D3F88830984704F1A40760
:1023F0002E4B029302A913233846ADF80C300FF090
:102400004CFEB4F93630A4F8AE30294BA28E1B68CE
:10241000A4F8AC2004F1EC082BB9264B264AAE21D7
:10242000264822F009F8264B1B88142B03D8254B8D
:10243000214AAF21F4E7244B1421186804F044FD2D
:10244000224A03460A21404615F0AAFE3146384684
:10245000C4F8E0801222FFF71DFF3C2211463846E7
:10246000FFF71DFE1A4B2846C4E93933FFF75DFE1E
:10247000324631462846FFF70DFF3C2211462846DA
:10248000FFF70DFE04F580732046E36529460EF044
:1024900023F8204604B0BDE8F08100BF6C7202084A
:1024A0005472020801220008636362FF147102087B
:1024B000E00A0220007002084270020870700208F0
:1024C000E40A0220B7700208EC0A0220097102082F
:1024D0000A0A0AFF70477047704770477047704795
:1024E00070477047704770B542F6E445044640595E
:1024F00048B10368DB68984728B160590368BDE8B4
:1025000070409B68184770BD0368D3F8883018473F
:10251000FFF7FABFFFF7F8BFFFF7F6BFFFF7F4BF0B
:10252000FFF7F2BFFFF7F0BFFFF7EEBFFFF7ECBF1B
:10253000FFF7EABFFFF7E8BFFFF7E6BFFFF7E4BF2B
:10254000FFF7E2BFFFF7E0BFFFF7DEBFFFF7DCBF3B
:10255000FFF7DABFFFF7D8BFFFF7D6BFFFF7D4BF4B
:10256000FFF7D2BFFFF7D0BFFFF7CEBFFFF7CCBF5B
:10257000FFF7CABFFFF7C8BFFFF7C6BFFFF7C4BF6B
:10258000FFF7C2BFFFF7C0BFFFF7BEBFFFF7BCBF7B
:10259000704708B590F82C3033B1D0F8B830C0F897
:1025A000A830FFF7B5FD08BDD0F8B430F7E77047A5
:1025B0007047704710B4C26841685410034601EB7D
:1025C0006200D20748BF0A599B685DF8044B48BFB8
:1025D000D358184743682BB183682BB9C06800F003
:1025E00001007047184670470120704730B4C26838
:1025F00044685510034604EB6200D20748BF625995
:102600009B6830BC48BFD358184743682BB18368D8
:102610002BB9C06800F001007047184670470120D0
:10262000704790F82D3080F8AE3080F85A307047FF
:1026300010B51021044621F0D0FE204610BD10B583
:102640001021044621F0C9FE204610BD10B5BC2162
:10265000044621F0C2FE204610BD10B542F6E84106
:10266000044621F0BAFE204610BD10B50446603085
:1026700004F05AFC04F5BA7004F056FC04F522701C
:1026800004F052FC04F5677004F04EFC04F596600B
:1026900004F04AFC04F2C45004F046FC04F5DB608C
:1026A00004F042FC04F2EC7004F03EFC04F510600F
:1026B00004F03AFC04F6142004F036FC04F628304A
:1026C00004F032FC04F63C4004F02EFC04F55560A6
:1026D00004F02AFC04F6646004F026FC04F678702A
:1026E00004F022FC04F584500C3004F01DFC04F5C9
:1026F0008D5004F019FC04F59550143004F014FCCE
:1027000004F59E50083004F00FFC04F5A6501C3070
:1027100004F00AFC04F5AF50103004F005FC04F599
:10272000B850043004F000FC04F5C050183004F038
:10273000FBFB04F5C9500C3004F0F6FB04F5D25055
:1027400004F0F2FB04F5DA50143004F0EDFB04F56C
:10275000E350083004F0E8FB04F5EB501C3004F0C3
:10276000E3FB04F5F450103004F0DEFB04F5FD50FB
:10277000043004F0D9FB04F50C50343004F0D4FBE1
:1027800004F51150083004F0CFFB04F515501C304F
:10279000BDE8104004F0C8BB00F50353383399423C
:1027A00010B504460AD10368D3F8A43098472368CB
:1027B000D3F8AC302046BDE81040184700F506536A
:1027C0003433994203D10368D3F8A030F3E700F51E
:1027D00009533433994203D10368D3F89C30EAE7B4
:1027E00000F519533033994203D10368D3F8983078
:1027F000E1E700F51C533033994203D10368D3F865
:102800009430D8E700F51F532C33994203D1036865
:10281000D3F89030CFE700F522532833994203D103
:102820000368D3F88C30C6E700F52553243399426A
:1028300003D10368D3F8A830BDE710BD38B504460E
:102840001D46FFF727FDBDF9102029462046FFF75A
:1028500026FC38BD10B526220446002122F092F84D
:102860002046FFF705FD074B2360074BA3624FF699
:10287000FF73A3854FF47F020023C4E90C32238742
:10288000204610BD909B02081471020810B4036723
:10289000019B436703685DF8044BD3F88830C0E9B7
:1028A0001A12184713B50446783001900FF0F5FB63
:1028B000B4F90A20B4F908100198FFF7F0FB02B050
:1028C00010BD13B50446783001900FF0E6FBB4F963
:1028D0000A20B4F908100198FFF7E1FB02B010BD1F
:1028E00070B50446FFF7C4FC4FF47F432646A3852A
:1028F0000123002584F824300D4BA562256346F89A
:10290000343B3046FFF7D8FB0A4B63632A4629461F
:102910003046C4E91A55C4E91C552566A4F864502C
:10292000FFF7B8FC204631460DF0D6FD204670BDBD
:1029300024710208C49E020838B504462546FFF7F4
:10294000CFFF074B45F8783B2846FFF783FF00236E
:102950002046C4E92D3329460DF0BEFD204638BD82
:10296000087302082DE9F04F2DED108B0446BDB021
:10297000FFF77EFC22460025D44BA56242F82C3B93
:1029800010460AEE902AFFF797FBD14BE36204F161
:1029900060031846A565A4F85C500B9304F0CEFACA
:1029A00004F5BA7318460C9304F0C8FA04F52273C0
:1029B00018460D9304F0C2FA04F5677318460E9397
:1029C00004F0BCFA04F5966318460F9304F0B6FAC7
:1029D00004F2C4531846109304F0B0FA04F5DB6314
:1029E0001846119304F0AAFA04F2EC7318461293F5
:1029F00004F0A4FA04F510631846139304F09EFA49
:102A000004F614231846149304F098FA04F62833B5
:102A10001846159304F092FA04F63C4318461693B0
:102A200004F08CFA04F555631846179304F086FAFF
:102A300004F664631846189304F080FA04F6787379
:102A40001846199304F07AFA04F584530C331846A7
:102A50000BEE103A04F072FA04F58D5318461A93EF
:102A600004F06CFA04F59553143318460BEE903AC3
:102A700004F064FA04F59E53083318460CEE103A3D
:102A800004F05CFA04F5A6531C3318460CEE903A99
:102A900004F054FA04F5AF53103318460DEE103A13
:102AA00004F04CFA04F5B853043318460DEE903A8E
:102AB00004F044FA04F5C053183318460EEE103AE9
:102AC00004F03CFA04F5C9530C3318460EEE903A64
:102AD00004F034FA04F5D25318461B9304F02EFA8E
:102AE00004F5DA53143318460FEE103A04F026FAC0
:102AF00004F5E353083318460FEE903A04F01EFA3B
:102B000004F5EB531C331846049304F017FA04F54C
:102B1000F45310331846059304F010FA04F5FD53EE
:102B2000043342F2B8061846069304F007FAA319D4
:102B30000AEE103A1846FFF78DFE664BA3511AEEC7
:102B4000103ADD6304F503533833184608EE103AA3
:102B5000FFF7F2FE04F506533433184608EE903AB8
:102B6000FFF7A6FB04F509533433184609EE103A73
:102B7000FFF79EFB04F50C5334331846079304F01B
:102B8000DDF904F5115308331846089304F0D6F91B
:102B900004F515531C331846099304F0CFF904F5D6
:102BA0001953303304F51C5A18460AF1300A04F55B
:102BB0001F5909EE903A09F12C09FFF779FB04F54A
:102BC00022585046FFF7B8FE08F12808484604F599
:102BD000255BFFF7B1FE0BF1240B4046FFF7ACFE7F
:102BE0005846FFF765FB42F6C423E21803923A4ABF
:102BF000E250039B394A5C6042F6CC233849E250EC
:102C000042F6D02342F6D422E550A3180A93354B5E
:102C1000A3500A9A546042F6DC221AEE900AA150A0
:102C200042F6E022A55042F6E422A118A35042F653
:102C3000EC224C601C912C49A15042F6F022A55088
:102C400042F6F422A118A35042F6FC224C601D91DA
:102C50002649A15004F52C52156042F60432A11801
:102C6000A35042F60C324C601E912149A15042F60D
:102C70001032A55042F61432A118A35042F61C326D
:102C80004C601F911B49A15042F62032A55042F6DC
:102C90002432A1182091A35042F62C324C601649E0
:102CA000A15042F63032A55042F63432A118A3505A
:102CB00042F63C324C6021911049A15004F52D524E
:102CC000156042F64432A1181AE000BFD073020822
:102CD000C49E0208A49D0208A07302089927000858
:102CE00009250008B87302081125000815250008F9
:102CF000192500081D2500082125000825250008A4
:102D0000A35042F64C324C602291AF49A15042F69A
:102D10005032A55042F65432A118A35042F65C320C
:102D20004C602391A949A15042F66032A55042F669
:102D30006432A118A35042F66C324C602491A4492D
:102D4000A15042F67032A55042F67432A118A35039
:102D500042F67C324C6025919E49A15004F52E52DA
:102D6000156042F68432A118A35042F68C322691A7
:102D70004C609949A15042F69032A55042F69432E7
:102D8000A118A35042F69C324C6027919349A15060
:102D900042F6A032A55042F6A432A118A35042F642
:102DA000AC324C6028918E49A15042F6B032A55009
:102DB00042F6B432A118A35042F6BC324C602991BD
:102DC0008849A15004F52F52156042F6C432A1186B
:102DD000A35042F6CC324C602A918349A15042F66E
:102DE000D032A55042F6D432A118A35042F6DC32BC
:102DF0004C602B917D49A15042F6E032A55042F63D
:102E0000E432A118A35042F6EC324C602C91784980
:102E1000A15042F6F032A55042F6F432A1182D919D
:102E2000A35042F6FC324C607249A15004F5305276
:102E3000156042F60442A118A35042F60C424C60C1
:102E40002E916D49A15042F61042A55042F614420F
:102E5000A118A35042F61C424C602F916749A15023
:102E600042F62042A55042F62442A118A35042F651
:102E70002C424C6030916249A15042F63042A5503C
:102E800042F63442A118A35042F63C424C603191C4
:102E90005C49A15004F53152156042F64442A11834
:102EA000A35042F64C424C6032915749A15042F631
:102EB0005042A55042F65442A118A35042F65C423B
:102EC0004C6033915149A15042F66042A55042F600
:102ED0006442A118A35042F66C424C6034914C49B4
:102EE000A15042F67042A55042F67442A118A35078
:102EF00042F67C424C6035914649A15004F532526D
:102F0000156042F68442A118A35042F68C424C60F0
:102F100036914149A15042F69042A55042F6944262
:102F2000A118A35042F69C424C6037913B49A150F6
:102F300042F6A042A55042F6A442A118A35042F680
:102F4000AC424C6038913649A15042F6B042354906
:102F5000A55042F6B442A718A35042F6BC427C608A
:102F6000A15004F533523049156042F6C442A61808
:102F7000A35042F6CC427460A15042F6D042A55014
:102F800042F6D442A118A35042F6DC43274A4C60D3
:102F9000E25042F6E0433991E55042F6E4432A46D6
:102FA000E550234BA3604FF4967300936FF0040138
:102FB0004FF44873FFF742FC1E4B636503F1C733C0
:102FC00003F16053A36537E0292500082D2500088B
:102FD0003125000835250008392500083D25000861
:102FE0004125000845250008492500084D25000811
:102FF0005125000855250008592500085D250008C1
:103000006125000865250008692500086D25000870
:103010007125000875250008792500087D25000820
:103020008125000885250008892500088D250008D0
:1030300020032C019C9B9AFF4FF006030B98A4F8E9
:103040005C3033222321FFF725F90A9B0C98C4F842
:10305000703133226021FFF71DF91C9B0D98C4F8D5
:10306000843233229D21FFF715F91D9B0E98C4F879
:1030700098333322DA21FFF70DF91E9B0F98C4F81D
:10308000AC34332240F21711FFF704F91F9B10985C
:10309000C4F8C03533224FF4AA71FFF7FBF8209B28
:1030A0001198C4F8D436332240F29111FFF7F2F8A8
:1030B000219B1298C4F8E83733224FF4E771FFF7E9
:1030C000E9F8229B1398C4F8FC38332240F20B2114
:1030D000FFF7E0F8239B1498C4F8103A33224FF41A
:1030E0001271FFF7D7F8249B1598C4F8243B70227F
:1030F0002321FFF7CFF8279B1698C4F8383C70229D
:103100006021FFF7C7F8289B1798C4F84C3D702240
:103110009D21FFF7BFF8299B1898C4F8603E7022E4
:10312000DA21FFF7B7F82A9B1998C4F8743F702288
:1031300040F21711FFF7AEF841F288032B9AE250E4
:103140001BEE100A70224FF4AA71FFF7A3F841F2A8
:103150009C132C9AE2501A98702240F29111FFF7BA
:1031600099F841F2B0232D9AE2501BEE900A70229A
:103170004FF4E771FFF78EF841F2C4332E9AE25014
:103180001CEE100A702240F20B21FFF783F841F287
:10319000D8432F9AE2501CEE900A70224FF412711D
:1031A000FFF778F841F2EC53309AE2501DEE100A26
:1031B000AD226021FFF76EF804F5B853319A1A601A
:1031C0001DEE900AAD229D21FFF764F841F614032D
:1031D000329AE2501EEE100AAD22DA21FFF75AF8B9
:1031E00041F62813339AE2501EEE900AAD2240F2C7
:1031F0001711FFF74FF841F63C23349AE2501B9821
:10320000AD224FF4AA71FFF745F841F65033359AD5
:10321000E2501FEE100AAD2240F29111FFF73AF88A
:1032200041F66443369AE2501FEE900AAD224FF405
:10323000E771FFF72FF841F67853379AE250049878
:10324000AD2240F20B21FFF725F841F68C63389A46
:10325000E2500598AD224FF41271FFF71BF804F508
:10326000FD5306981F60AD2240F28521FFF712F84A
:1032700042F2B4031522E6501E2300931AEE100A00
:103280004FF434732321FFF7D9FA42F2E8034FF0E9
:103290007F42E2501AEE103A9D860A4B1B6804F5F5
:1032A000285624362BB9084B084AAE21084821F08D
:1032B000C3F8084B1B88022B10D8074B034AAF21D9
:1032C000F4E700BFE00A0220007002084270020822
:1032D00070700208E40A0220B7700208CE4B022187
:1032E000186803F0F1FDCD4A03462821304614F05A
:1032F00057FF42F2F40318EE107AE6501AEE100A65
:10330000C74E3A9603233AA9ADF8EC300EF0C5FE4D
:10331000792207F1340000923C232A462946FFF720
:103320008DFA42F25C134FF00102E252BD4B009362
:10333000A3F13313BC4ABD4918EE100AA3F54C5350
:10334000FFF7A4FA092318EE100A3AA93A96ADF845
:10335000EC30FFF7A7FA7921342207F178000091C9
:103360003C232946FFF76AFA42F2AC13B04FE7500C
:1033700042F2B01318EE100AE750FFF70AF979216C
:1033800018EE100A00913C23AD2240F2C221FFF753
:1033900055FA42F2281318EE900A3C260399E150A0
:1033A0002A464FF4D573294634300096FFF746FA83
:1033B0009C4A009242F218234FF00101A2F54B12F1
:1033C000E152A2F6CD429B4B984918EE900AFFF7C6
:1033D0005DFA0DF1E80C924B3A9361460C2318EE1E
:1033E000900AADF8EC30FFF76CFA42F67423E2185D
:1033F000E55218EE900A42F268232946E2507830EE
:103400002A464FF4D5730096FFF718FA42F26C2360
:1034100018EE900AE75042F27023E750FEF785FE5F
:1034200018EE900A4FF4D573EA22DA210096FFF7DE
:1034300005FA42F2E41319EE100A0399E1502A4604
:103440003346294634300096FFF7F8F9754A009262
:1034500042F2D8234FF00101A2F54B12E15219EECE
:10346000100A744B7149A2F6CD42FFF70FFA0DF125
:10347000E80E6B4B3A937146042319EE100AADF82F
:10348000EC30FFF71EFA6C4904F52A5E0B680EF16A
:10349000080ECDF828E0002B3FF405AF67480388FD
:1034A000052B7FF60AAF5C480521006803F00CFD90
:1034B0005A4A03460A210A9814F072FE42F228334F
:1034C00019EE100A0A99E150142229463346783041
:1034D0000096FFF7B3F942F22C3319EE100AE750C9
:1034E00042F23033E750FEF720FE19EE100A334661
:1034F000EA229D210096FFF7A1F942F2A423039945
:10350000E1500798702240F28521FEF7C3FE42F297
:1035100044433999E1500898332240F28521FEF75F
:10352000B9FE42F258532599E1500998332240F2EE
:10353000C221FEF7AFFE42F26C6319EE900A2699A3
:10354000E1502A463346294634300096FFF776F993
:10355000344A009242F2D4634FF0010C24F803C0C5
:10356000A2F54B1203F17F43304919EE900A03F69E
:103570009243A2F6CD42FFF789F94FF0060EADF85F
:10358000ECE00DF1E80E264B3A93714619EE900AE5
:10359000FFF797F9284904F52A5E0B680EF11C0E17
:1035A000CDF828E0002B3FF47EAE24480388072B9B
:1035B0007FF683AE18480721006803F085FC174AA0
:1035C00003460A210A9814F0EBFD42F2247319EE27
:1035D000900A0A99E1501422294633467830009621
:1035E000FFF72CF942F2287319EE900AE75042F2E5
:1035F0002C73E750FEF799FD19EE900A3346EA2244
:1036000060210096FFF71AF942F2A0634FF0790E9D
:103610000399E15014E000BFEC0A0220097102088E
:1036200014710208996633FFCC9900FF996600FF78
:103630000A0A0AFF663300FFE00A0220E40A0220B9
:10364000CDF800E02A46294633460AF13400FFF758
:10365000F5F8D94A009242F294734FF0010C24F825
:1036600003C0A2F54B1203F17F43A2F6CD42D3492A
:1036700003F6D2335046FFF709F90DF1E80ED04BAF
:103680003A93714608235046ADF8EC30FFF70AF93B
:103690002946142233460AF178000096FFF7CEF847
:1036A00042F2E4735046E75042F2E873E750FEF707
:1036B00070FF3346AD22232150460096FFF7BEF837
:1036C00042F260730399E1502A462946334609F1D4
:1036D00034000096FFF7B2F8B74A009242F6500362
:1036E0004FF0010C24F803C0A2F54B1203F17F4305
:1036F000A2F6CD42B149B24D03F616334846FFF764
:10370000C5F80DF1E80E71460A2348463A95ADF822
:10371000EC30FFF7C7F814220021334609F1780096
:103720000096FFF78BF842F6A0034846E75042F6B2
:10373000A403E750FEF72DFF3346EA2240F285212D
:1037400048460096FFF77AF842F61C030399E150C9
:1037500000221146334608F134000096FFF76EF858
:10376000954A009242F60C134FF0010C24F803C066
:10377000A2F54B1203F17F43A2F6CD428F4903F627
:103780005A234046FFF782F80DF1E80E71460B23ED
:1037900040463A95ADF8EC30FFF784F8142200214A
:1037A000334608F178000096FFF748F842F65C13BC
:1037B0004046E75042F66013E750FEF7EAFE334614
:1037C000702240F2C22140460096FFF737F842F6D9
:1037D000D8030399E1500022114633460BF134001F
:1037E0000096FFF72BF8744A009242F6C8134FF088
:1037F000010C24F803C0A2F54B1203F17F436F497B
:1038000003F69E13A2F6CD425846FFF73FF83A95CD
:103810003AAD0F2329465846ADF8EC30FFF751F882
:1038200068490B6804F52A553035002B3FF43BAD51
:10383000654A1388102B7FF640AD6448102100685C
:1038400003F042FB624A03460A21284614F0A8FC12
:1038500042F618231422E550002133460BF178007C
:103860000096FEF7EBFF42F61C235846E75042F65F
:103870002023E750FEF759FC334658460096EA22CB
:103880002321FEF7DBFF42F69413039AE2501AEE6F
:10389000901A20460CF020FE0B9920460CF01CFEDE
:1038A0000C9920460CF018FE0D9920460CF014FEE1
:1038B0000E9920460CF010FE0F9920460CF00CFEDD
:1038C000109920460CF008FE119920460CF004FED9
:1038D000129920460CF000FE139920460CF0FCFDD6
:1038E000149920460CF0F8FD159920460CF0F4FDD3
:1038F000169920460CF0F0FD179920460CF0ECFDCF
:10390000189920460CF0E8FD199920460CF0E4FDCA
:103910001BEE101A20460CF0DFFD1A9920460CF021
:10392000DBFD1BEE901A20460CF0D6FD1CEE101AA3
:1039300020460CF0D1FD1CEE901A20460CF0CCFD78
:103940001DEE101A20460CF0C7FD1DEE901A204601
:103950000CF0C2FD1EEE101A20460CF0BDFD1EEE4E
:10396000901A20460CF0B8FD1B9920460CF0B4FDCF
:103970001FEE101A20460CF0AFFD1FEE901A2046E5
:103980000CF0AAFD049920460CF0A6FD05992046EE
:103990000CF0A2FD069920460CF09EFD1AEE101ABE
:1039A00020460CF099FD18EE101A20460CF094FDFC
:1039B00018EE901A0EE000BF996633FF996600FF7B
:1039C00014710208E00A0220E40A0220EC0A022034
:1039D0000971020820460CF07FFD19EE101A2046EE
:1039E0000CF07AFD079920460CF076FD08992046E8
:1039F0000CF072FD099920460CF06EFD19EE901A3C
:103A000020460CF069FD514620460CF065FD494604
:103A100020460CF061FD414620460CF05DFD20463D
:103A200059460CF059FD20463DB0BDEC108BBDE869
:103A3000F08F00BF704770477047704770B541F214
:103A4000A8050446405948B10368DB68984728B187
:103A500060590368BDE870409B68184770BD0368F3
:103A6000D3F888301847FFF7FABFFFF7F8BFFFF722
:103A7000F6BFFFF7F4BFFFF7F2BFFFF7F0BFFFF7A6
:103A8000EEBFFFF7ECBFFFF7EABFFFF7E8BFFFF7B6
:103A9000E6BF70477047704710B4C2684168541061
:103AA000034601EB6200D20748BF0A599B685DF8E4
:103AB000044B48BFD358184743682BB183682BB9D0
:103AC000C06800F001007047184670470120704739
:103AD00030B4C26844685510034604EB6200D20754
:103AE00048BF62599B6830BC48BFD35818474368E9
:103AF0002BB183682BB9C06800F0010070471846ED
:103B000070470120704710B51021044620F065FC75
:103B1000204610BD10B51021044620F05EFC204662
:103B200010BD10B541F2AC01044620F056FC204611
:103B300010BD10B5044600F5067003F0F5F904F564
:103B40004B7003F0F1F904F5886003F0EDF904F22D
:103B5000545003F0E9F904F5CD6003F0E5F904F2FF
:103B60007C7003F0E1F904F5096003F0DDF904F677
:103B7000A41003F0D9F904F6B82003F0D5F904F63F
:103B8000CC3003F0D1F904F54E6003F0CDF904F622
:103B9000F450BDE8104003F0C7B900F1600399424A
:103BA00010B504460AD10368D3F88C3098472368CF
:103BB000D3F898302046BDE81040184700F58E73C2
:103BC000994203D10368D3F89030F4E700F6087304
:103BD000994203D10368D3F89430ECE710BD00009C
:103BE0002DE9F04F2DED0C8B044691B0A346002536
:103BF000FEF73EFBCD4BA5624BF82C3B5846FEF73B
:103C00005BFA04F16009CA4BE36204F58E78A5659E
:103C1000A4F85C504846FEF78FFE04F5EC7A404667
:103C2000FEF78AFE5046FEF715FEC24BC4F8D831A7
:103C300004F506731846C4F8145208EE103A03F05F
:103C40007DF904F54B73184608EE903A03F076F9C7
:103C500004F58863184609EE103A03F06FF904F290
:103C60005453184609EE903A03F068F904F5CD6311
:103C700018460AEE103A03F061F904F27C73184614
:103C80000AEE903A03F05AF904F5096318460BEE70
:103C9000103A03F053F904F6A41318460BEE903AC9
:103CA00003F04CF904F6B82318460CEE103A03F072
:103CB00045F904F6CC3318460CEE903A03F03EF981
:103CC00004F54E6318460DEE103A03F037F904F68A
:103CD000F453184604F608770DEE903A03F02EF9E7
:103CE0003846FEF729FE944B944AC4F8D83FC4F8EE
:103CF000F02F934BC4F8E03F04F58052914B92496A
:103D0000C4F8E83FC4F8F83FC4F8DC4FC4F8E45FF7
:103D1000C4F8EC4FC4F8F45FC4F8FC4F116041F2F2
:103D200004025846A55041F20802A118A35041F2DE
:103D300010024C6004918549A15041F21402792689
:103D4000A55041F21802A118A35004F581524C600D
:103D500005917F49116041F22402A55041F22802E9
:103D6000A118A35041F230024C6006917949A1504C
:103D700041F23402A55041F23802A118A35004F5D3
:103D800082524C6007917449116041F24402A5507F
:103D900041F24802A1180891A35041F250024C6030
:103DA0006E49A15041F25402A55041F25802A118A7
:103DB000A35004F583524C6009916949116041F2A6
:103DC0006402A55041F26802A118A35041F27002AA
:103DD0004C600A916349A15041F27402A55041F22E
:103DE0007802A118A35004F584524C600B915E49EF
:103DF000116041F28402A55041F28802A118A3503B
:103E000041F290024C600C915849A15041F2940249
:103E1000A55041F29802A118A35004F58553544AC5
:103E20004C601A6041F2A4030D91E55041F2A803E1
:103E30002A46E5504F4BA3604FF4967300932946F2
:103E40004FF48773FEF7FAFC4B4A00964FF07F431E
:103E5000C4E9152305232A46A4F85C3029463C23EF
:103E600004F19400FEF7EAFC4FF001034349A4F883
:103E7000C430434B4348C4F8D000C4E9323103F5A1
:103E80004C13C4F8D430236E4846D3F88830984792
:103E90000DF1380E3C4B0E9371461C234846ADF88D
:103EA0003C30FEF7FFFC3222294600963C2304F109
:103EB000D800FEF7C3FC354B4846C4E94533FEF74E
:103EC00068FB00963C2304F6D8766A22C421484653
:103ED000FEF7B4FC0296C4F890603C2633462A46AE
:103EE000294604F5A8700096FEF7A8FC2349244A49
:103EF000D4F81C312348D3F88830C4F88C014FF033
:103F0000010CC4E9612102F54C12A4F880C1C4F887
:103F10009021404698471C4A0E921B230EA940460A
:103F2000ADF83C30FEF7BEFC32E000BFB8740208CA
:103F3000C49E0208A49D0208887402085F3A000823
:103F40009B3B0008A0740208673A00086B3A00081F
:103F50006F3A0008733A0008773A00087B3A000885
:103F60007F3A0008833A0008873A00088B3A000835
:103F70008F3A00080E012C01878787FFCC9900FF3C
:103F8000996600FF663300FF147102080A0A0AFFEF
:103F900014222946334604F5CA700096FEF74EFCFB
:103FA000AA4B4046C4E97433FEF7F3FA3346E422E1
:103FB000C42140460096FEF741FC029BC4F84C31F8
:103FC000192300930E22C8230D215046FEF736FC1C
:103FD0004FF07F43C4F8083204F6C47303939C4B3C
:103FE000A4F80C521B682BB99A4B9B4AAE219B48F4
:103FF00020F022FA9A4B1B881A2B03D8994B964A29
:10400000AF21F4E7984B1A21186802F05DFF974A38
:1040100003460A21039814F0C3F8039BC4F8143232
:104020004FF01902924B0E930EA95046ADF83C206A
:104030000EF033F818EE100A2D220D21FEF72AF9A2
:1040400004F6E87318EE900AC4F828332D224A21AA
:10405000FEF720F904F6F873C4F83C3419EE100AA0
:104060002D228721FEF716F9049AC4F8502519EE7F
:10407000900A6A220D21FEF70DF9059AC4F864260C
:104080001AEE100A6A224A21FEF704F9069AC4F8C9
:1040900078271AEE900A6A228721FEF7FBF8079A22
:1040A000C4F88C281BEE100AA7220D21FEF7F2F8A7
:1040B000089AC4F8A0291BEE900AA7224A21FEF70D
:1040C000E9F8099AC4F8B42A1CEE100AA72287213D
:1040D000FEF7E0F80A9AC4F8C82B1CEE900AE42216
:1040E0000D21FEF7D7F80B9AC4F8DC2C1DEE100A50
:1040F000E4224A21FEF7CEF80C9AC4F8F02D1DEE0A
:10410000900AE4228721FEF7C5F80D9AC4F8042F1F
:10411000294633462A4604F63C700096FEF78EFB8D
:104120004FF00102A4F86C2F524AC4F8702F02F528
:104130004C523332C4F8742FA2F5CC42663AD4F80C
:10414000083FC4F8782F02F1331202F54C52C4F83C
:104150007C2F3846D3F888309847454B0E930EA9EC
:1041600016233846ADF83C30FEF79CFB2946334613
:10417000142204F578600096FEF760FB334BC4F818
:10418000BC3FC4F8C03F3846FEF703FA2D22334641
:1041900038460096C421FEF751FB029BC4F8383F15
:1041A000594620460CF098F9494620460CF094F9FF
:1041B000414620460CF090F9514620460CF08CF90F
:1041C00018EE101A20460CF087F918EE901A2046C7
:1041D0000CF082F919EE101A20460CF07DF919EE58
:1041E000901A20460CF078F91AEE101A20460CF0BE
:1041F00073F91AEE901A20460CF06EF91BEE101AA5
:1042000020460CF069F91BEE901A20460CF064F978
:104210001CEE101A20460CF05FF91CEE901A204696
:104220000CF05AF91DEE101A20460CF055F91DEE4F
:10423000901A20460CF050F9204639460CF04CF903
:10424000204611B0BDEC0C8BBDE8F08F0A0A0AFFC6
:10425000E00A022000700208427002087070020832
:10426000E40A0220B7700208EC0A02200971020871
:1042700014710208996600FF7047704710B54FF43B
:104280008A71044620F0A9F8204610BD2DE9FF41AF
:1042900004462546FDF7ECFF0026424BA66245F892
:1042A0002C3B2846FEF704F83F4BA36004F1600066
:1042B000324631460190FDF7EDFF1422322101987C
:1042C000FDF7EDFE0123A4F89030384BC4F894308C
:1042D00003F54C533333C4F89830A3F5CC43663B15
:1042E000C4F89C3003F1331303F54C53C4F8A030E9
:1042F000E36A2846D3F88830984704F1A4072C4B8A
:10430000029302A94E233846ADF80C300DF0C5FEDD
:10431000B4F93630A4F8AE30264BA28E1B68A4F850
:10432000AC2004F1EC082BB9234B244AAE212448DD
:1043300020F082F8234B1B884F2B03D8224B1F4AB7
:10434000AF21F4E7214B4F21186802F0BDFD204A50
:1043500003461421404613F023FF324631463846C7
:10436000C4F8E080FDF796FF142232213846FDF7AD
:1043700096FE184B2846C4E93933FDF7D6FE32467F
:1043800031462846FDF786FF142228463221FDF7E4
:1043900086FE204629460CF09FF8204604B0BDE872
:1043A000F08100BF5C75020832001400996600FFBE
:1043B00014710208E00A022000700208427002082C
:1043C00070700208E40A0220B7700208EC0A0220AA
:1043D000097102080A0A0AFF7047704710B54FF4C6
:1043E000A06104461FF0F9FF204610BD10B526223B
:1043F0000446002120F0C6FA2046FDF739FFFF23CE
:10440000044A84F826300023A3622260E3622386F4
:10441000204610BDC49E020810B526220446002185
:1044200020F0B0FA2046FDF723FF084BA3624FF6B9
:10443000FF73A3854FF47F020023C4E90C32044AC2
:1044400023872260E363204610BD00BF1471020879
:10445000A49D02082DE9F04F2DED108B044687B086
:10446000FDF706FF224600258E4BA56242F82C3B45
:10447000104608EE102AFFF7B9FF04F16003184652
:104480000DEE103AFFF7B2FF04F1940318460DEE5B
:10449000903AFFF7ABFF04F1C80318460EEE103A4E
:1044A000FFF7A4FF04F1FC0318460EEE903AFFF765
:1044B0009DFF04F5987318460FEE103AFFF796FF2C
:1044C00004F5B27318460FEE903AFFF78FFF04F52C
:1044D000CC7318460293FFF789FF04F5E67318467C
:1044E0000393FFF783FF04F50073184608EE903A34
:1044F000FFF792FF04F51073184609EE103AFFF724
:104500008BFF04F52073184609EE903AFFF784FFFD
:1045100004F5307318460AEE103AFFF77DFF04F5F4
:10452000407318460AEE903AFFF776FF04F5507391
:1045300018460BEE103AFFF76FFF04F5607318464C
:104540000BEE903AFFF768FF04F5707318460CEE17
:10455000103AFFF761FF04F58063184614270CEE4C
:10456000903AFFF759FF504BA3604FF0FF394FF0DF
:1045700001084FF07F4618EE100A96232A46294676
:104580000097FEF75BF9C4E915961DEE100A322379
:104590002A469621A4F85C800097FEF74FF9C4E9FB
:1045A00022961DEE900A64232A46C821A4F8908022
:1045B0000097FEF743F9C4E92F961EEE100A642314
:1045C0002A464FF49671A4F8C4800097FEF736F996
:1045D000C4E93C961EEE900A32232A464FF4C87175
:1045E000A4F8F8800097FEF729F9C4E949961FEE70
:1045F000100A32232A464FF4E171A4F82C81009767
:10460000FEF71CF9C4E956961FEE900A64232A4669
:104610004FF4FA71A4F860810097FEF70FF9C4E92E
:1046200063960298A4F8948132232A464FF41671B7
:104630000097FEF703F94FF0130AC4E97096039848
:10464000A4F8C88164232A4640F28A210097FEF725
:10465000F5F8C4E97D96962318EE900ADFF860908D
:10466000A4F8FC81CDF800A02A462946FEF7E6F81A
:104670000E4BC4F83032D9F80030A4F8348204F577
:10468000886B2BB90A4B0B4AAE210B481FF0D4FEA6
:10469000DFF83080B8F80030242B15D8074B054AD6
:1046A000AF21F2E7EC750208EE021400020203FFEC
:1046B000007002084270020870700208B7700208A9
:1046C000E00A0220E40A0220E24B2421186802F0EA
:1046D000FBFBE14A03463946584613F061FDDF4FC4
:1046E000C4F83CB2232318EE900A04A9ADF81430A4
:1046F00004970DF0D2FC322319EE100ACDF800A079
:104700002A469621FEF79AF8D9F80030C4F870626C
:10471000A4F8745204F58D6B002BB3D0B8F80030B8
:10472000222BBBD9CB4B2221186802F0CDFBCA4A01
:1047300003460521584613F033FD212319EE100AD4
:10474000C4F87CB204A9ADF8143004970DF0A5FCB0
:10475000642319EE900ACDF800A02A46C821FEF77E
:104760006DF8D9F80030C4F8B062A4F8B45204F27D
:10477000724B002B86D0B8F80030262B8ED9B54B63
:104780002621186802F0A0FBB34A03460A215846C6
:1047900013F006FD252319EE900AC4F8BCB204A953
:1047A000ADF8143004970DF078FC64231AEE100A6B
:1047B000CDF800A02A464FF49671FEF73FF8D9F8DD
:1047C0000030C4F8F062A4F8F45204F2864B002BD7
:1047D0003FF458AFB8F80030282B7FF65FAF9D4B01
:1047E0002821186802F070FB9B4A03460A215846AC
:1047F00013F0D6FC27231AEE100A04A9C4F8FCB261
:10480000ADF8143004970DF048FC32232A461AEE16
:10481000900ACDF800A04FF4C871FEF70FF8D9F850
:104820000030A4F83453C4F8306304F29A45002BE6
:104830003FF428AFB8F800302A2B7FF62FAFDFF80F
:104840001492DFF82082D9F800002A2102F03CFB04
:10485000814A03460A21284613F0A2FC4FF0130AAE
:1048600029231AEE900AC4F83C5304A9ADF8143079
:1048700004970DF012FC32231BEE100ACDF800A0B5
:1048800000224FF4E171FDF7D9FF4FF07F43C4F8E8
:104890007033D8F8003000253E46A4F8745304F273
:1048A000AE4B002B3FF4EEAE6D4F3B882C2B7FF6CA
:1048B000F5AE2C21D9F8000002F006FB664A03464B
:1048C0000A21584613F06CFC2B231BEE100AC4F887
:1048D0007CB304A9ADF8143004960DF0DEFB64231C
:1048E0001BEE900ACDF800A02A464FF4FA71FDF7AE
:1048F000A5FF4FF07F43C4F8B033D8F80030A4F8D8
:10490000B45304F2C24B002B3FF4BCAE3B882E2BB9
:104910007FF6C4AE2E21D9F8000002F0D5FA4E4A37
:1049200003460A21584613F03BFC2D231BEE900A48
:10493000C4F8BCB304A9ADF8143004960DF0ADFB77
:1049400032231CEE100ACDF800A02A464FF416714F
:10495000FDF774FF4FF07F43C4F8F033D8F8003010
:10496000A4F8F45304F2D64B002B3FF48BAE3B88F3
:10497000302B7FF693AE3021D9F8000002F0A4FA74
:10498000354A03460A21584613F00AFC2F231CEE31
:10499000100A04A9C4F8FCB3ADF8143004960DF065
:1049A0007CFB64232A461CEE900ACDF800A040F25E
:1049B0008A21FDF743FF4FF07F43C4F83034D8F825
:1049C0000030A4F8345404F2EA45002B3FF45AAE08
:1049D0003B88322B7FF662AED9F80000322102F01C
:1049E00073FA1D4A03460A21284613F0D9FB3123E6
:1049F0001CEE900A04A9C4F83C54ADF81430049697
:104A00000DF04BFB18EE101A20460BF065FD1DEE65
:104A1000101A20460BF060FD1DEE901A20460BF098
:104A20005BFD1EEE101A20460BF056FD1EEE901A8E
:104A300020460BF051FD1FEE101A20460BF04CFDE6
:104A40001FEE901A20460BF047FD029920460BF00E
:104A500043FD09E0EC0A0220097102081471020802
:104A6000E40A0220E00A0220039920460BF034FDFC
:104A700018EE901A20460BF02FFD19EE101A204662
:104A80000BF02AFD19EE901A20460BF025FD1AEEC8
:104A9000101A20460BF020FD1AEE901A20460BF05B
:104AA0001BFD1BEE101A20460BF016FD1BEE901A94
:104AB00020460BF011FD1CEE101A20460BF00CFDE9
:104AC00020461CEE901A0BF007FD204607B0BDEC07
:104AD000108BBDE8F08F00BF704700F59673086833
:104AE000496803C37047704770474160704770471B
:104AF0000123037270477047704710B4C268416861
:104B00005410034601EB6200D20748BF0A599B6864
:104B10005DF8044B48BFD358184743682BB18368EE
:104B20002BB9C06800F0010070471846704701209B
:104B3000704710B50C2104461FF04FFC204610BDF5
:104B400010B5102104461FF048FC204610BD10B5DA
:104B50004FF4AC7104461FF040FC204610BD10B568
:104B60000FF076FE0368BDE810401B6B184710B5C8
:104B70000446D0F83C0158B10368DB68984738B167
:104B8000D4F83C0103689B6898470023C4F83C3183
:104B900010BD0000F8B5044617460E460FF0C0FEE3
:104BA000104B0025C4E954760F4E1C60C4E95255E1
:104BB0000E4B306823600E4BC4E95035036829461C
:104BC0009B68C4E94E559847284602F041F933687E
:104BD00093F876200AB1D86C00B9986818F0C7FA33
:104BE0002046F8BDDC0A0220900A0220B87A0208AA
:104BF000A07A0208064BC0F848310023C0F84C31B7
:104C000000F5A073C0F84401C0F83C31704700BF04
:104C1000754D0008064BC0F848310023C0F84C31F0
:104C200000F5A073C0F84401C0F83C31704700BFE4
:104C3000DD4E00082DE9F84F07469068DDF828A002
:104C4000994603681B6A8846144698474EF6231314
:104C5000984205D8414B424AA32142481FF0ECFB41
:104C6000606803681B6A98470F2803D83E4B3C4A8C
:104C7000A421F2E7E06803681B6A98470B2803D871
:104C80003A4B374AA521E8E70FF0E2FD0FF02EFE80
:104C9000D9F8000010B10368DB689847D9F8000024
:104CA00010B103681B689847386810B103685B69E6
:104CB0009847D8F8000010B103685B6898473868D7
:104CC00010B103681B689847D8F8000010B103685A
:104CD0009B689847E068036800215B6A98474FF03B
:104CE000000B234B03600546C0F804B080F808B001
:104CF000A068036859465B6A9847064603F03CF88B
:104D00006068036859465B6A98473146044602F07A
:104D10001FFFC9F80050C8F800403E60E4B1231DF1
:104D2000CAF800303368C4F808A03046DB68F46382
:104D30009847236820461B6898472946304611F05B
:104D400079F92B6828461B6998472B6828465B69C8
:104D500098472046BDE8F88F2346E1E774760208BD
:104D600002770208067802084D780208F0780208F7
:104D7000FC7A020807B5D0F854310093D0F85021DE
:104D8000044B00F59C710448FFF754FF03B05DF835
:104D900004FB00BFD00A0220CC0A02202DE9F84F04
:104DA00007469068DDF828A0994603681B6A884684
:104DB0001446984744F27B53984205D8414B424AE7
:104DC000A32142481FF038FB606803681B6A9847BC
:104DD0000F2803D83E4B3C4AA421F2E7E068036861
:104DE0001B6A98470B2803D83A4B374AA521E8E7B6
:104DF0000FF02EFD0FF07AFDD9F8000010B1036816
:104E0000DB689847D9F8000010B103681B68984721
:104E1000386810B103685B699847D8F8000010B192
:104E200003685B689847386810B103681B68984747
:104E3000D8F8000010B103689B689847E0680368E1
:104E400000215B6A98474FF0000B234B0360054637
:104E5000C0F804B080F808B0A068036859465B6ADF
:104E60009847064603F0D6FA6068036859465B6ABD
:104E700098473146044603F0CDF9C9F80050C8F808
:104E800000403E60E4B1231DCAF800303368C4F826
:104E900008A03046DB68F4639847236820461B6807
:104EA00098472946304611F0C5F82B6828461B69FB
:104EB00098472B6828465B6998472046BDE8F88FDD
:104EC0002346E1E77476020893790208067802081F
:104ED0004D780208F0780208FC7A020807B5D0F88D
:104EE00054310093D0F85021044B00F59C710448D4
:104EF000FFF754FF03B05DF804FB00BFD00A0220A7
:104F0000CC0A0220006A7047406A704770478B885D
:104F100080690A68DB0A50F823001044704710B516
:104F2000C2B1137BB3B1547BD27A240204F4E0649F
:104F30001443C26998B202EB840213888B4202D1F7
:104F400092F9020010BD05D8013880B20432002861
:104F5000F3D1F7E70020F5E710B5282104461FF04C
:104F60003CFA204610BD000030B589B00446BDF8BB
:104F700050500695BDF84C5005959DF8405004954D
:104F80009DF83C5003959DF8385002959DF834509B
:104F900001959DF83050009510F0ACFC064B236055
:104FA000119BA361129BE361159B2362169B6362B5
:104FB000204609B030BD00BF207B02087047704713
:104FC0007047704770477047704770477047704729
:104FD00070477047704770477047704708207047A8
:104FE00008B590F82C3033B1D0F8C030C0F8A830F4
:104FF000FDF78EF808BDD0F8BC30F7E77047704772
:105000007047000038B5084B036004464FF4F26562
:10501000635960191B68A5F58A75984715F5887F4F
:10502000F6D1204638BD00BF287D020810B5054BDB
:105030000360044600F58B403830FFF7E3FF20465D
:1050400010BD00BF887D02087047F0B4C56846688F
:105050006F10044606EB6500ED07A46844BFF559E0
:105060002C59A446F0BC604743682BB183682BB928
:10507000C06800F001007047184670470120704773
:1050800030B4C26844685510034604EB6200D2078E
:1050900048BF62599B6830BC48BFD3581847436823
:1050A0002BB183682BB9C06800F001007047184627
:1050B00070470120704730B4C268446855100346F9
:1050C00004EB6200D20748BF62599B6830BC48BFFE
:1050D000D358184743682BB183682BB9C06800F0D8
:1050E00001007047184670470120704790F82D3036
:1050F00080F8AE3080F85A30704710B50446FFF79C
:1051000081FF204640F6A4011FF067F9204610BD3C
:1051100010B5102104461FF060F9204610BD10B5EF
:10512000102104461FF059F9204610BD10B510217A
:1051300004461FF052F9204610BD10B5C4210446A4
:105140001FF04BF9204610BD10B50446FFF76EFF67
:10515000204644F66C711FF040F9204610BD000057
:1051600008B58BB2072B05D9054B064A06485421D2
:105170001FF062F94FF48A7301FB0300043008BD8D
:10518000707B02088B7B0208287C020870B50446FD
:10519000D03002F0E4F804F5D46002F0E0F804F551
:1051A000476002F0DCF804F5925002F0D8F804F5FC
:1051B000C050103002F0D3F804F5EF5002F0CFF8F1
:1051C00004F50E50303002F0CAF804F5265002F013
:1051D000C6F804F53D50103002F0C1F804F5545003
:1051E000203002F0BCF804F58A4020300AF04AFB77
:1051F00044F2BC5544F65C6663596019D3F88430B8
:1052000005F58A759847B542F6D170BD13B50446C9
:10521000084611461A4604F58B43383398420CD1A0
:10522000036801929B6898472368019ADB6A0146EC
:10523000204602B0BDE81040184702B010BD00F58E
:105240006C522432914202D103685B6B184700F51F
:105250006F522032914202D103681B6BF6E700F5D2
:1052600073521432914202D103689B6BEEE700F552
:1052700076521432914202D103681B6CE6E700F5C6
:1052800079521432914202D103685B6CDEE700F57B
:105290007C521432914202D103689B6CD6E700F530
:1052A0007F521432914202D10368DB6CCEE700F5E5
:1052B00081421432914202D103681B6DC6E700F5AA
:1052C00082425432914202D10368DB6BBEE700F5A3
:1052D00085424432914202D10268526D104700F576
:1052E0008742914208D144F239220021815400F5CD
:1052F0008440143010F054BA704700F56B503030D1
:10530000814208B505D10FF0A3FABDE80840FFF7C8
:1053100081BC08BD10B52622044600211FF032FBD7
:105320002046FCF7A5FF054B23600023A36284F809
:105330002C30012384F82430204610BDB49A020892
:105340000368C0E92E12D3F8883018472DE9F04FD2
:105350002DED108B044697B010F0C0FC22460025BE
:10536000DE4BE56342F8403B10460892FCF7A4FE92
:1053700004F16C0318460993FCF79EFED84BE366D4
:1053800004F1A003C4F89850A4F89C50184608EE05
:10539000103AFCF76DFFD34BC4F8A0304FF0010A70
:1053A00004F1D003C4F8C85084F8CCA0A4F8CE50BF
:1053B00018460A9301F0DEFF04F5D46318460B93F8
:1053C00001F0D8FF04F5476318460C9301F0D2FFB3
:1053D00004F5925318460D9301F0CCFF04F5C05329
:1053E00010331846039301F0C5FF04F5EF53184638
:1053F0000E9301F0BFFF04F50E53303318460693A9
:1054000004F53D5701F0B6FF04F526531846103752
:1054100004F554560F93203601F0ACFF384601F0E6
:10542000A9FF43F6F028304601F0A4FF04EB08037F
:1054300018460493FFF76EFFAB4A44F8082043F682
:105440001E324FF6FF7924F80290049B43F6203277
:1054500043F6E03824F8029083F8329004F56C5358
:105460002433184609EE903AFDF766FA04EB080378
:105470000EEE103A1846FDF733FA1EEE103A9B4A2C
:1054800044F8082003F178084046FDF7E3F943F6B5
:105490005841621896486050C2E90F5543F69C4245
:1054A0004146A55043F6A04243F6A44BA5501EEE3C
:1054B000100A0BF011F804EB0B0308EE903A1846B3
:1054C000FCF7D6FE18EE903A9D62864B44F80B30FE
:1054D00018EE903A83F82CA0DD8504F5735314334D
:1054E00018460AEE903AFCF7E3FE04F576531433BF
:1054F00018460BEE103AFCF7DBFE04F57953143333
:1055000018460BEE903AFCF7D3FE04F57C531433A7
:1055100018460CEE103AFCF7CBFE04F57F5314331B
:1055200018460CEE903AFCF7C3FE04F581431433A1
:1055300018460DEE103AFCF7BBFE04F582435433D7
:1055400018460DEE903AFCF7B3FE04F5844314338D
:10555000184609EE103A0AF0CFFE04F585434433AD
:1055600018460AEE103AFDF7E7F904F5874344F2CE
:105570003C4A18460FEE903AFDF7DEF904EB0A03B9
:105580000EEE903A1846FDF765F9DFF888B144F859
:105590000AB01EEE903A44F27C4ADD6304EB0A0343
:1055A0000FEE103A1846FDF755F91FEE103A44F881
:1055B0000AB0DD6344F2BC45631918460793FFF750
:1055C000A9FE44F2EA4304F5894B24F8039044F21F
:1055D000EC430BF1740B24F803906319584683F8DD
:1055E0003290444B635144F2F04304F58B4524F868
:1055F00003900AF09BFB44F2B853E21811923E4A22
:10560000E25004F59C435C333C350593284601F099
:105610009BFE059B05F58A75AB42F7D144F63C73BA
:10562000364AE25004EB030944F64473344AC9F89D
:105630000440E25044F648730025E55044F64C73AC
:10564000E21802922F4AE250029B2F4A5C6044F615
:1056500054734FF4F07AE25044F658730898E550CA
:1056600044F65C73E2181092284AE250109B284AD4
:105670005C6044F66473CDF800A0E25044F66873B1
:105680002A46E55029464FF44873FDF7D7F84FF006
:105690007F430998A366CDF800A04FF448732A46CB
:1056A0006FF00101FDF7CAF84FF0FF324FF07F4372
:1056B000C4E925230323A4F89C3018EE100A012125
:1056C0000BF014FAC82218EE100A2021FCF7E2FDB4
:1056D0000A99DFF844A018EE100A1FE0887D02083E
:1056E000C49E020820920208009D0208907C0208D5
:1056F0001C9E0208209B0208287D0208407D0208AB
:10570000FB520008587D02083F520008707D0208D5
:105710000D520008A49D0208996633FF0BF050FA61
:105720000B9918EE100A0BF04BFA0C9918EE100AB0
:105730000BF046FA0D9918EE100A0BF041FA039996
:1057400018EE100A0BF03CFA0E9918EE100A0BF046
:1057500037FA069918EE100A0BF032FA0F9918EE84
:10576000100A0BF02DFA394618EE100A0BF028FA41
:10577000314618EE100A0BF023FA04980E2212217B
:10578000FCF788FD4FF001060498ADF8506014AAAC
:1057900013A9ADF84C500CF0C0FC43F6183319EEC9
:1057A000900A1E2744F803900097C4232A462946EE
:1057B0003430FDF743F843F688333F4AE65203F1AD
:1057C0007F433E49CDF800A019EE900AA3F62203CC
:1057D000FDF75CF83A4B149319EE900A332314A9A1
:1057E000ADF85430FDF75EF819EE900A052229460F
:1057F0000097C4237830FDF721F843F6D833314EB3
:10580000E65043F6DC3319EE900AE650FCF7C1FE91
:1058100019EE900A0097C4234A2240F24921FDF76D
:105820000DF843F65433029AE2501EEE100A3B2262
:10583000009296232A4629463430FCF7FFFF43F6B0
:1058400044434FF00202E25203F17F431A4A1B49DC
:10585000CDF800A01EEE100AA3F6DE03FDF716F841
:10586000174B149314A942234046ADF854300CF062
:1058700014FC43F6EA33144FE25E43F6E833404645
:10588000E15EFCF70CFC3B68CDF80CA004F59D49EB
:1058900009F104092BB90D4B0D4AAE210D481EF03C
:1058A000CBFDDFF838A0BAF80030432B18D80A4BEC
:1058B000074AAF21F2E700BFCC9900FF996600FFCD
:1058C000147102080A0A0AFFE00A022000700208A6
:1058D0004270020870700208B7700208E40A0220E1
:1058E000D74B4321186801F0EFFAD64A03460B2143
:1058F000484612F055FC43F6944344F803903B6845
:1059000004F59D4909F11A09002BC4D0BAF80030FA
:10591000492BCCD9CA4B4921186801F0D5FAC94A9C
:1059200003460B21484612F03BFC43F698433B21CB
:1059300044F803902A464046009196232946FCF7F6
:105940007DFF43F69C431EEE100AE65043F6A0434B
:105950004FF03208E650FFF743FB3B218D221EEE4D
:10596000100A009196232021FCF768FF43F61043AC
:105970000299E15018EE900A02210BF0B7F818EEE8
:10598000900A40F29D12CB21FCF784FC1AEE900A9B
:1059900043462A4629463430CDF80080FCF74EFFB6
:1059A00043F638534FF00101E1520399A64A0091A2
:1059B00003F17F43A5491AEE900AA3F6D213FCF730
:1059C00065FFA34B149314A8342301461AEE900AE2
:1059D000ADF85430FCF775FF3B6804F59D4909F1BB
:1059E0003009002B3FF457AFBAF80030352B7FF663
:1059F0005EAF934A3521106801F066FA914A03467A
:105A00000A21484612F0CCFB43F688531AEE900A5E
:105A100044F803900522434629467830CDF80080AB
:105A2000FCF70CFF32461AEE900A3146FFF788FC6D
:105A300043F6DC434FF03210E05043F60453029932
:105A4000E15018EE900A1AEE901A0BF0B9F81BEE1E
:105A5000100A43462A4629463430CDF80080FCF728
:105A6000EDFE43F6F8534FF00101E1520399764AF7
:105A7000009103F17F4375491BEE100AA3F69223B0
:105A8000FCF704FF724B149314A8362301461BEE57
:105A9000100AADF85430FCF714FF3B6804F59D493B
:105AA00009F14409002B3FF4F6AEBAF80030372B69
:105AB0007FF6FDAE624A3721106801F005FA614AAF
:105AC00003460A21484612F06BFB43F648631BEE7F
:105AD000100A294644F80390CDF800804346052279
