:020000040800F2
:100000000000052099050008C91E0008CB1E000845
:10001000CD1E0008CF1E0008D11E00080000000001
:10002000000000000000000000000000C1070108FF
:10003000D31E00080000000051080108DD0001087F
:10004000E9050008E9050008E9050008E9050008D8
:10005000E9050008E9050008E9050008E9050008C8
:10006000E9050008E9050008E9050008E9050008B8
:10007000E9050008E9050008E9050008E9050008A8
:10008000E9050008E9050008E9050008E905000898
:10009000E9050008E9050008E9050008E905000888
:1000A000E9050008E9050008E9050008E905000878
:1000B000E9050008E9050008E9050008E905000868
:1000C000E9050008E9050008E9050008E905000858
:1000D000E9050008E9050008E9050008E905000848
:1000E000E9050008E9050008E9050008E905000838
:1000F000E9050008E9050008E9050008E905000828
:10010000E9050008E9050008E9050008E905000817
:10011000E9050008E9050008D51E0008E905000802
:10012000E9050008E9050008E9050008E9050008F7
:10013000E9050008E9050008E9050008E9050008E7
:10014000E9050008E9050008E9050008E9050008D7
:10015000E9050008E9050008E9050008E9050008C7
:10016000E9050008E9050008E9050008E9050008B7
:10017000E9050008E9050008E9050008000000009D
:10018000E9050008E9050008E9050008E905000897
:10019000E9050008E9050008E9050008E905000887
:1001A000E11E0008E9050008ED1E0008E905000849
:0401B000F91E00082C
:1001C00010B5054C237833B9044B13B10448AFF391
:1001D00000800123237010BD4001002000000000BA
:1001E000A889020808B5034B1BB103490348AFF3C4
:1001F000008008BD0000000044010020A88902081A
:1002000001F0FF01102A2BDB10F0070F08D010F8C7
:10021000013B013A8B422DD010F0070F42B3F6D1CB
:10022000F0B441EA012141EA014122F007047FF0E4
:1002300000070023F0E80256083C85EA010586EA3B
:10024000010685FA47F5A3FA87F586FA47F6A5FA77
:1002500087F68EB9EED1F0BC01F0FF0102F0070283
:1002600032B110F8013B013A83EA010313B1F8D12E
:100270000020704701387047002D06BF354603380F
:10028000073815F0010F07D1013015F4807F02BF48
:10029000013015F4C03F0130F0BC0138704700BF99
:1002A00053B94AB9002908BF00281CBF4FF0FF31DD
:1002B0004FF0FF3000F06EB9ADF1080C6DE904CEDF
:1002C00000F006F8DDF804E0DDE9022304B0704731
:1002D0002DE9F047089D04468C46002B40F08380B2
:1002E0008A42174647D9B2FA82F242B1C2F12000DF
:1002F00024FA00F09140974040EA010C94404FEA04
:100300001748230CBCFBF8F61FFA87FE08FB16C142
:1003100043EA014306FB0EF1994209D9FB1806F1A5
:10032000FF3080F01981994240F21681023E3B4431
:100330005B1AA4B2B3FBF8F008FB103344EA0344A1
:1003400000FB0EFEA64509D93C1900F1FF3380F0F1
:100350000581A64540F2028102383C4440EA06404D
:10036000A4EB0E0400261DB1D4400023C5E90043D0
:100370003146BDE8F08702B9FFDEB2FA82F2002A08
:1003800050D1CB1B4FEA174E1FFA87F80126B3FB5B
:10039000FEFC210C0EFB1C3341EA034108FB0CF36D
:1003A0008B4207D979180CF1FF3002D28B4200F250
:1003B000E9808446C91AA3B2B1FBFEF00EFB10110E
:1003C00043EA014408FB00F8A04507D93C1900F1B5
:1003D000FF3302D2A04500F2D9801846A4EB0804EE
:1003E00040EA0C40BFE78B4209D9002D00F0B180F4
:1003F0000026C5E9000130463146BDE8F087B3FA72
:1004000083F6002E4AD18B4202D3824200F2B8809A
:10041000841A61EB030101208C46002DA8D0C5E9A8
:10042000004CA5E7C2F1200320FA03F6974001FA39
:1004300002F04FEA174ED9403043030CB1FBFEF6F1
:100440001FFA87F80EFB161143EA014306FB08F179
:10045000994204FA02F409D9FB1806F1FF3C80F036
:100460008D80994240F28A80023E3B445B1A81B201
:10047000B3FBFEF00EFB103341EA034100FB08F32F
:100480008B4207D9791800F1FF3C73D28B4271D9A6
:1004900002383944CB1A40EA064678E7C6F1200C08
:1004A00003FA06F422FA0CF31C4320FA0CF701FAC3
:1004B00006F34FEA144E21FA0CF11F433B0CB1FB3B
:1004C000FEF91FFA84F80EFB191143EA014109FBFA
:1004D00008FA8A4502FA06F200FA06F308D961180A
:1004E00009F1FF3048D28A4546D9A9F102092144D1
:1004F000A1EB0A01BFB2B1FBFEF00EFB101147EAFF
:10050000014700FB08F8B84507D9E71900F1FF31AA
:100510002ED2B8452CD90238274440EA0940A7EB2F
:100520000807A0FB02894F45C64649461AD317D093
:100530005DB1B3EB0E0267EB010707FA0CFCF2406A
:100540004CEA0202F740C5E9002700263146BDE823
:10055000F0872E4628460BE70646E9E61846FDE6F4
:100560004345E5D2B8EB020E69EB04010138DFE741
:100570000846D2E760468DE78146B9E7664675E7EB
:1005800030464AE7ACF1020C394413E702383C44E8
:1005900024E700BF704700BFDFF834D0002103E03C
:1005A0000C4B5B58435004310B480C4B42189A4299
:1005B000F6D30B4A02E0002342F8043B094B9A426F
:1005C000F9D30CF087FD27F02FFA00F06FFF70478A
:1005D00000000520C0E102080000002040010020CA
:1005E00040010020B4C20220FEE700F0E7BD00F0A9
:1005F00057BE002108460CF0D5B800200CF00CB90D
:100600004068704741607047054A136843F0807343
:100610001360044A136843F001031360704700BF7E
:10062000FCED00E0001000E0511A01EB5301B1FBBA
:10063000F3F07047014B1868704700BF041000E0EA
:10064000704710B50C21044627F06CF8204610BD09
:10065000036810B51B69044631B19847A268636806
:100660009B1A1844606010BD9847A060FBE7704774
:100670007047000008B5FFF7BCFF024B00221A606C
:1006800008BD00BF5C01002070B50D46FFF7B5FF47
:100690000B4A937856781178D370C4B213F00100E6
:1006A0009670517014700AD016F0010007D011F046
:1006B000010004D0E3075ABF01202870002070BD5C
:1006C0005C01002010B50421044627F02BF82046D9
:1006D00010BD704710B50421044627F023F82046CA
:1006E00010BD000008B54FF4F0714FF448700CF0E5
:1006F0003DFC074B10B901221A7008BD1B78002B76
:10070000FBD1044B044A0548262127F039F800BFE5
:1007100060010020508A0208638A02088D8A02085C
:100720007FB50B4B1C780E4615465CB101A80CF04A
:100730005BFC9DF8043043B1BDF806303360BDF872
:100740000A302B60204604B070BD1C46FAE700BF9B
:100750006001002010B1012809D07047084B0948FA
:100760001A68B2FA82F2520940210DF0D5BC044B4E
:1007700005485A68B2FA82F252091021F5E700BF23
:100780006401002000180240000C024010B1012852
:1007900009D07047084B09481A68003A18BF01226F
:1007A00040210DF0B9BC044B05485A68003A18BF07
:1007B00001221021F5E700BF64010020001802406B
:1007C000000C024010B1012804D0704703484021BA
:1007D0000DF0A7BC02481021FAE700BF0018024044
:1007E000000C024008B530B1012809D00020431E9A
:1007F0005842584108BD044840210DF087FCF6E7F7
:1008000002481021F9E700BF00180240000C024026
:1008100070B5084D00240126E0B2FFF7E3FF18B1E0
:100820002B68012B18BF2E600134052C05F104053F
:10083000F2D170BD64010020012380F8741080F8AB
:10084000753070470020704700207047836B0BB1F4
:100850000846184770474FF6FF70704740680368B6
:100860009B69184770477047014B1868704700BF75
:10087000740100207047000038B50446094DFFF7A9
:10088000C7FF204600F08EFD002384F84A3028463A
:10089000FFF7BAFE012384F86C30034B25616361D6
:1008A00038BD00BF800100207C01002003680446A1
:1008B00007B5DB6F9847236820465B6F984700F0C9
:1008C0002DFA23682046DB6E9847002106480091E8
:1008D000292315220DF009FA00F020FA236820469A
:1008E000DB6E9847F8E700BF30C0022010B5044621
:1008F00014F052F823682046D3F8A430BDE8104025
:10090000184700F04EBD00F065BD00F065BD00F079
:1009100037BD00F03DBD00F061BD000008B5094BDA
:100920001B888B4203D8084B1B88934205D9074B81
:10093000074A08489E2126F023FF074B1980074BE2
:100940001A8008BD28BD02202ABD0220088B02089B
:100950006B8B0208AE8B02082EBD022030BD022038
:10096000024B00221A7013F0F1B900BF14000020EE
:1009700010B5044613F0F6F994F84B3013B1024B5E
:1009800001221A7010BD00BF1400002013F0A1B99D
:1009900010B57C21044626F0C5FE204610BD90F817
:1009A00077301BB1406803681B68184718467047CA
:1009B00010B590F8341090F874400C4B8C421A78B3
:1009C00009D03AB90A4A0B491488088810800C806B
:1009D00001221A7010BD002AFCD0054A054914886E
:1009E000088810800C800022F3E700BF2CBD022095
:1009F00028BD02202ABD022010B50C4C216031B95F
:100A00000B4B0C4A0C484FF42B7126F0B9FEC0E991
:100A10000F12003A0949436418BF01220A70003BD3
:100A2000074A18BF0123137010BD00BF74010020D6
:100A3000F38B02082B8C0208AE8B020832BD022019
:100A400033BD0220012807B50AD84B7800930B78F4
:100A50000848152200210DF048F903B05DF804FBA9
:100A600001910B5C009339220346002101480DF0EF
:100A70004DF9F2E730C0022037B50B4A0B4C022388
:100A800015251370557001924422009200213922DD
:100A900020460DF03BF90021009135232A462046DF
:100AA0000DF023F903B030BD8C01002030C00220CE
:100AB00007B50190FFF7E0FF019803B05DF804EB84
:100AC00000F06EBC07B5074B03EB80002A230190B2
:100AD000009339220423002103480DF017F903B0D5
:100AE0005DF804FB0400002030C0022070B5154DF5
:100AF00004460020FFF72EFE2A6892F86630013384
:100B000082F8663000F0FEF80F4B28681A781B78E0
:100B100080F84A2023B10D4D2B7803F0FF0623B156
:100B2000BDE870400020FFF731BE13F035FF084BE1
:100B300030461E60FFF7C6FF20460DF0C6F80123C1
:100B40002B7070BD34BD0220140000208E010020E7
:100B500078010020304B314A70B505461868304C9A
:100B6000013018602F4B03281E682ADCD4F80414C7
:100B70004FF4C87303FB006321F00801C4F80414A8
:100B800093620CBFE823C823023327491B0443F4B4
:100B9000F1730B61254B4B61A3F5F0735360244B4C
:100BA000D36201234B62FFF78DFF1D4AD2F8043454
:100BB00043F008032846C2F80434BDE870400DF045
:100BC00084B8D4F804341B4923F00803C4F804346F
:100BD000154B9662196101F1011159611649516075
:100BE0001349D16201225A620020FFF76BFFD4F84B
:100BF000043443F00803C4F804340020FFF7C6FDB2
:100C00000E4B00221A700E4B186820B10368BDE825
:100C100070401B6A184770BD78010020846801404D
:100C2000006C01407401002000680140E301CA002B
:100C300093018006E201CA000300CA008E01002071
:100C400034BD022008B5044B0146186801B10121EA
:100C500013F0BCFE012008BD34BD0220054B064840
:100C600000225A609A60054A1A60054B0360FFF73C
:100C700001BD00BF800100207C010020148A020811
:100C80003C8A0208012108B5002208460FF0B5FA97
:100C90000A4B186028B90A4B0A4A29210A4826F04B
:100CA0006FFD0022042101200FF046FB074B186066
:100CB00018B9074B034A2D21F0E708BD9401002025
:100CC0004C8D0208958D0208C48D02089001002009
:100CD000248E0208024B4FF0FF3118680FF0D8BA8B
:100CE00094010020014B18680FF0FEBA9401002017
:100CF000024B002118680FF0CBBA00BF940100200E
:100D0000FFF7F0BF03480449006800231A460FF0BC
:100D10004FBB00BF900100201800002013B5084C05
:100D200000231A4601A920680FF072FB20684FF0DB
:100D3000FF33002201A90FF06BFB02B010BD00BF12
:100D40009001002003685B6C18470120704703681E
:100D50009B6A184782B0002301930D4B1A6B42F433
:100D600000021A631A6B02F400020192019A1A69D6
:100D700042F400021A611A6922F400021A61054B5A
:100D8000054A1A61054B4FF080629A6002B07047C5
:100D900000380240F8C00220A90D000800E100E080
:100DA00040F2EF3070470000024B1B685868036840
:100DB0005B69184734BD022008B50B280BD8DFE863
:100DC00000F01206100A0A0A0A080808080801209A
:100DD00008BD0520FCE7054B054A0648672126F0BB
:100DE000CFFC0020F4E70220F2E700BF668E020885
:100DF000818E0208CB8E020808B50A2809D8DFE8E0
:100E000000F010060E080808080606060600012075
:100E100008BD054B054A0648882126F0B1FC002094
:100E2000F6E70220F4E700BF668E0208298F020869
:100E3000CB8E02082DE9F84391F81D800C46404600
:100E4000FFF7BAFFA77F05463846FFF7B5FF06460E
:100E50003846FFF7D1FFA18A628B4B4B521A1A64B6
:100E60009A61228B521A1A61E28A586342EA01425D
:100E70005A6421696268D963DA60D4F800C094F8D2
:100E80001C90BCF1800F4FEA09629E4630D014D806
:100E9000BCF1200F45EA020068D0BCF1400F65D0DC
:100EA000BCF1040F20D0384B2A4342F40032B8453D
:100EB000DA6148D140F2012214E0BCF5807F07D00E
:100EC000BCF5007FEFD142F4003242F0090203E0AA
:100ED00042F4003242F00A02DA61E2681A625E62AB
:100EE00059612A4A1A604CE040F40030D861F6E7B4
:100EF000A0682A4342F40032041DDC62DA61027801
:100F00005E62596142B1012A1FD0214B214A224819
:100F10004FF4897126F034FC4288D969501E21F4BF
:100F20007F4222F0100242EA0022DA610124164BCD
:100F3000DA6942F02002DA61DA699206FCD4102202
:100F40009A60002CCDD1154ACCE74288D969501E51
:100F500021F47F4222F0100242EA0022B9F1FF049C
:100F600042F0100218BF0124DA61E0E7074B40F4B9
:100F70000030CEF81C00CEF82460CEF81410CEF865
:100F80000030BDE8F88300BF00B00240010202005B
:100F9000748F02088E8F0208CB8E020801020100B6
:100FA00038B50C46887FFFF727FFA58AE18A164BE4
:100FB000628B586341EA05415964521B2169D96328
:100FC0001A642568082D0ED19A611A615862207F33
:100FD0000E4A42EA0062DA61E2681A620C4A59611A
:100FE000D9601A6038BD0022D8611A61E1680A0A26
:100FF000480902F4784200F4FC600243C1F3C401E2
:101000000A439A63034AECE700B00240090001007A
:101010000102020001020300054B0360054B4FF083
:101020008062C3F88820BFF34F8FBFF36F8F704784
:10103000D48F020800E100E010B50446FFF7ECFF92
:1010400020464FF4426126F06DFB204610BD0000A3
:1010500070B5044625460A4B0C30002660602672A7
:10106000667245F8203B6022294613F0E3FD04F543
:101070004263EE602035AB42FBD1204670BD00BF1D
:10108000D48F0208012070470C2070470C2303FB0B
:101090000100083070470C2303FB01000830704743
:1010A0000120704700487047089C0100024B03FB79
:1010B00001000830704700BF089C0100024B03FB91
:1010C00001000830704700BF089C010001207047F4
:1010D0001020704700EB01100830704700EB011042
:1010E00008307047084604F0B5B9000010B5034B4E
:1010F0000360044611F0DEF9204610BD8C90020812
:1011000010B50446FFF7F2FF2046142126F00AFB33
:10111000204610BD10B5034B0360044611F0CAF918
:10112000204610BD5890020810B50446FFF7F2FFA4
:101130002046024926F0F6FA204610BD109C010018
:1011400010B5034B0360044611F0B4F9204610BDFE
:101150002490020810B50446FFF7F2FF204618213C
:1011600026F0E0FA204610BD10B5094B0360044696
:1011700000F5CE303C30FFF7B9FF04F12C00FFF74B
:10118000C9FF04F11400FFF7DBFF204610BD00BFCC
:10119000C090020808B50248FFF7E6FF08BD00BF8F
:1011A0009C01002010B50446FFF7DEFF20460249EF
:1011B00026F0B8FA204610BDAC9D01002DE9F341A0
:1011C00000F00CFF054600F00DFF00240146234609
:1011D0002846224600941AF035FA254B254A264D1A
:1011E0001A60204607F0D4FC24481AF06DF92B78D9
:1011F000BFF35B8FDB0735D4284626F095FA88B31A
:101200001F4C204F204B236007F1180604F11400F7
:1012100004F12C086060C4F80880E760266111F0D2
:101220004BF91A4B6361404611F046F9184BE362E3
:10123000384611F041F904F5CE33164ADA6303F16A
:10124000500008F0FAFD224607F11401304608F07C
:10125000A7FD304604F0FEF8284626F071FA0E4845
:1012600026F0ACFA0D4802B0BDE8F041FFF704BB30
:1012700090BD0220E8AB0120980100201C00002056
:101280009C010020D89D0120C090020824900208F3
:10129000589002088C900208951100086CAB012050
:1012A0000148FFF703BB00BF6CAB012070B5244EB3
:1012B000244C254D254B23603046FFF7C9FE2846B8
:1012C0001DF090FA224B2348DC6000224FF480711D
:1012D000C3E9121220491A85C3E919124FF080712F
:1012E0005967012183F878101C4983F82A200B6084
:1012F0004FF4507101801A48DA62C3E90422C3E94D
:101300000622C3E90822C3E90E22C3E91022C3E979
:101310001422C3E916221A861A6683F86C201A670B
:10132000C3E9016501800F4883F834204FF4F07160
:1013300001800D4801800D490A700D4A1A6070BD88
:101340004C9F0120489F0120ECAB0120F88A020845
:101350006CAB012028BD02200100000134BD022039
:101360002EBD02202ABD022030BD02202CBD02204D
:10137000848C02080148FFF74FBE00BF4C9F01203C
:10138000024B902283F85A23704700BF00E100E02F
:10139000024B4FF080629A60704700BF00E100E0AE
:1013A0007047704738B5044612F0E9FC23681D6E9B
:1013B00016F0E4F901462046A8472368D3F8845084
:1013C00000231A464FF040412046A847012384F8E5
:1013D0004A3038BD12F083BC12F0DFBD044B4FF031
:1013E0008062C3F88820BFF34F8FBFF36F8F7047C1
:1013F00000E100E00149002010F064BB450C00084A
:1014000008B564200EF0EDFEFBE7000030B595B0A6
:101410001022002109A826F061FB1422002102A855
:1014200026F05CFB00241F4B00941A6C42F08052A3
:101430001A641B6C03F080530093009B1A4B0194B9
:101440001A6842F440421A601B6803F44043019357
:101450000122019B4FF48033CDE9072302254FF48D
:1014600080030821CDE90D534FF4B473CDE90F1378
:1014700004200623CDE9120307A811950EF0FEF90A
:101480000DF04EFC0F23CDE9023504944FF4805348
:101490004FF4A054052102A8CDE905430DF0C2FF89
:1014A00015B030BD00380240007000402DE9804882
:1014B000B9B00BF01DFEFFF7A9FF142200212BA8E5
:1014C000002426F00BFBC94B02941A6BC84842F06B
:1014D00010021A631A6B02F010020292029A03942D
:1014E0001A6B42F002021A631A6B02F002020392B4
:1014F000039A04941A6B42F040021A631A6B02F0CA
:1015000040020492049A05941A6B42F008021A638E
:101510001A6B02F008020592059A06941A6B42F4BF
:1015200080721A631A6B02F480720692069A07940C
:101530001A6B42F020021A631A6B02F02002079223
:10154000079A08941A6B42F480621A631A6B02F4C9
:1015500080620892089A09941A6B42F080021A631A
:101560001A6B02F080020992099A0A941A6B42F0EF
:1015700004021A631A6B02F004020A920A9A0B948C
:101580001A6B42F400721A631B6B03F400730B9323
:10159000012208210B9B0CF0BFFD9648224610212A
:1015A0000CF0BAFD9448224640210CF0B5FD2246CD
:1015B000924880210CF0B0FD112608238C482BA9FD
:1015C00001274FF00208CDE92B364FF0100BCDE983
:1015D0002D440CF013FC87482D942BA9CDE92BB793
:1015E000CDF8B8800CF00AFC402383482BA9802555
:1015F000CDE92B37CDE92D480CF000FC2BA90323B6
:101600007E482E93CDE92B562D940CF0F7FB7C48A9
:101610007C4E7D4B03600BF011FE7C4BC6E90A4407
:10162000C6E90C443046C6E90034C6E902440BF072
:1016300019FF394630460BF0CDFF294622466F4848
:10164000734E0CF069FD14200BF07EFD29463A46DE
:101650006A480CF061FD0A200BF076FD2422214639
:1016600015A826F03BFA182221460FA826F036FAD4
:10167000342221462BA826F031FA2C2221461EA81E
:1016800026F02CFA634B0E940425C6E900340CA90D
:101690007D233046C6E90257CDE90C380CF062F8DC
:1016A00015A93046CDE91574CDE91744CDE91944A3
:1016B000CDE91B441D940CF07FFA1C222123CDE9B7
:1016C0000F230F211923CDE9111330460FA9CDE9BE
:1016D00013440CF034FA294630460CF01FFA42F25B
:1016E000107130460CF073FB214630460BF0D7FFEB
:1016F0004FF480704FF40073CDE92B034FF4806AF0
:101700004FF400634FF48052CDE92DA34FF4005302
:10171000CDE92F234FF480494FF480334FF4003C40
:10172000CDE931934FF48023CDE933C34FF4002E3C
:101730004FF080732BA93046CDE935E3CDF8DC803E
:101740000CF0B8F9C8231EA93046CDE9203BCDE9FD
:101750002245CDE91E44CDE92484CDE926442897CD
:101760000CF036F9214630460CF021F92A482B4975
:101770000462C0E9001440232021C0E904134FF49F
:10178000C071C0E90614072103234FF48052CDE94C
:101790002C152E912BA9CDE92F38C0E90929C0E9D4
:1017A0000245CDF8AC80CDF8C4800EF01DFA0BF0E8
:1017B000C7FB0BF077FB342221461EA8184D26F0FC
:1017C0008DF9184AAC86C5E90024CA234FF4F1729A
:1017D000C5E90932CB2140F2E3122846C5E90B12D4
:1017E000C5E90244C5E904471EE000BF00380240D5
:1017F00000280240000C024000180240001C024079
:1018000028C00220F8C002200030024000B0024090
:1018100030C00220006C014038C10220400100A00D
:101820004CC0022000680140C5E90678C5F8208058
:1018300085F836400DF03EF9FF21C8234FF4F072D1
:10184000CDE9231405204FF04041CDE92601CDE933
:1018500028321EA9CDE9212828462246CDE91F3489
:101860001E94CDF894A0ADF8A8408DF8AA400DF0D4
:10187000EDF92A68936923F00103936130460CF077
:1018800001FA394640460AF0CFFC282315222146AA
:10189000304600940CF029FA2BA93046CDE92B44B0
:1018A000CDE92D44CDE92F44CDE93144CDE9334490
:1018B00035940CF0FFF84FF44871224628460DF09D
:1018C000F3F92A681E4893691E4D1F4E3B439361EE
:1018D0001E4B0462C0E900371B23C0E9043AC0E98B
:1018E000027BC0E906440DF033FB0BF0A1F90BF0CD
:1018F000D5F80BF04BF8164B2C622846C5E900636F
:10190000C5E90244C5E90494C5E906440CF0EEFDBE
:1019100028460CF093FEFEF768FE0EF0EDFB0D4A34
:101920000D4821460EF014FC0C4B0D4A1860214660
:101930000C480EF00DFC0C4B18600EF0EFFBFEE7B0
:101940006CC10220D4BF022000540040001000A04F
:10195000801A06000C91020801140008D0BF022072
:10196000E8900208EF050008F4C002200268034B6B
:101970009A4201D10BF0D6BB704700BF0010004067
:101980007047012070470023036001230B607047FC
:1019900082B00E4B00220092596C41F48041596490
:1019A000596C01F48041009100990192196C41F049
:1019B000805119641B6C03F080530193019B0F212C
:1019C0006FF0010002B00BF0E5BB00BF0038024031
:1019D0000268094B9A4282B00BD100230193074B56
:1019E0001A6B42F480521A631B6B03F48053019309
:1019F000019B02B0704700BF003002400038024037
:101A000007B50F4B02689A4216D10022A3F5F043A6
:101A10000192196B41F4000119631B6B03F400037D
:101A2000019305215A20019B0BF0B4FB5A2003B00F
:101A30005DF804EB0BF0E0BB03B05DF804FB00BF06
:101A400000B0024010B5044688B01422002103A85B
:101A500026F044F82268184B9A422AD103F54C43E9
:101A6000002401945A6C154842F000625A645A6C82
:101A700002F000620192019A02941A6B42F4007221
:101A80001A631B6B03F4007302930422029B02236C
:101A9000CDE9032303A90D230793CDE905440CF0F9
:101AA000ADF95C20224605210BF074FB5C200BF0A5
:101AB000A3FB08B010BD00BF006C01400024024031
:101AC00030B5044689B01422002103A826F006F898
:101AD00022681A4B9A422FD1194C1A4800250195B9
:101AE000236B43F002032363236B03F00203019390
:101AF000019B4FF440721223CDE9032301210323FC
:101B0000CDE90513042303A907930CF077F9029597
:101B1000236C43F400132364236C03F40013029337
:101B2000029B236A43F400132362236A23F4001305
:101B3000236264200BF008FB09B030BD0054004064
:101B4000003802400004024008B502680A4B9A427D
:101B500010D10A4A0A48136C23F4001313644FF49B
:101B600080710CF031FABDE8084005484FF400716F
:101B70000CF02ABA08BD00BF0054004000380240F3
:101B80000004024010B5044690B03C22002101A898
:101B900025F0A4FF2268134B9A4221D10823019318
:101BA0004FF4B47305930024062301A808930B9403
:101BB0000DF002FD08B1FFF7E3FE0B4B00945A6CE9
:101BC00042F080625A645B6C03F08063009358209B
:101BD00000220521009B0BF0DDFA58200BF00CFBD6
:101BE00010B010BD0068014000380240F0B5044656
:101BF00089B01422002103A825F070FF2268244B2D
:101C00009A4243D1234B2448002400949A6B42F01B
:101C100002029A639A6B02F002020092009A019407
:101C20001A6B42F002021A631A6B02F0020201926E
:101C3000019A02941A6B42F020021A631B6B0594FE
:101C400003F02003029302260325029B0A27402368
:101C500003A9CDE90336CDE906570CF0CFF84FF4D0
:101C60009863CDE903360D48092303A90793CDE90D
:101C700005450CF0C3F84FF440730848079703A9D3
:101C8000CDE90336CDE905450CF0B8F809B0F0BD53
:101C9000001000A00038024000040240001402407E
:101CA00008B50268094B9A420FD1094A0948936B5B
:101CB00023F00203936340210CF086F9BDE808404D
:101CC00005484FF4F8610CF07FB908BD001000A082
:101CD000003802400004024000140240F0B5314BCD
:101CE0001C6887B0002C5BD101221A602E4B009437
:101CF0009A6B2E4842F001029A639B6B039403F0A7
:101D000001030093022703260C25009B01A94FF62F
:101D10008373CDE90137CDE904650CF06FF848F223
:101D200033132348059501A9CDE90137CDE90346D1
:101D30000CF064F84CF203731E48059501A9CDE937
:101D40000137CDE903460CF059F840F2FF631A4819
:101D5000059501A9CDE90137CDE903460CF04EF810
:101D60004FF63F031548059501A9CDE90137CDE9A7
:101D700003460CF043F84FF47F431148059501A941
:101D8000CDE90137CDE903460CF038F80D230D48B5
:101D9000059501A9CDE90137CDE903460CF02EF8F0
:101DA00007B0F0BD68AC01200038024000100240CE
:101DB00000180240000C02400020024000140240C3
:101DC000001C02400008024008B5174B1A6852BBBD
:101DD00001221A60154A1648936B23F0010393639E
:101DE0004FF683710CF0F0F8124848F233110CF002
:101DF000EBF811484CF203710CF0E6F80F4840F292
:101E0000FF610CF0E1F80E484FF63F010CF0DCF8F2
:101E10000C484FF47F410CF0D7F8BDE808400A4861
:101E20000D210CF0D1B808BD64AC0120003802408F
:101E30000010024000180240000C02400020024046
:101E400000140240001C02400008024030B5014668
:101E500089B0002236200BF09DF936200BF0CCF92A
:101E60000025154B02951A6C144C42F010021A64AE
:101E70001B6C03F01003029301A903A8029B0DF051
:101E80007DFB0DF06BFB0E4B236040F2E733E3600C
:101E900040000C4BB0FBF3F0013860602046256138
:101EA000A5600EF03FF820B920460DF0F5FE09B010
:101EB00030BD0120FBE700BF00380240B8C102205E
:101EC0000010004040420F007047FEE7FEE7FEE7CB
:101ED000FEE7704701480DF01DBF00BFB8C10220EA
:101EE00001480CF056BE00BF4CC0022001480BF068
:101EF000E7BA00BFF8C0022001480BF0E6BC00BF03
:101F000030C002200120704708B525F07FFC162361
:101F100003604FF0FF3008BD08B525F077FC1623AD
:101F20000360FEE770B50E4614460025A54201DBAE
:101F3000204670BDAFF3008070550135F6E770B5EF
:101F40000E4614460025A54201DB204670BD705D9B
:101F5000AFF300800135F6E74FF0FF3070474FF4E4
:101F600000534B60002070470120704700207047ED
:101F700008B50A4B1968024609B909491960186879
:101F8000694602448A4206D925F040FC0C230360CE
:101F90004FF0FF3008BD1A60FCE700BF6CAC0120B9
:101FA000B8C20220704710B50421044625F0BAFBE0
:101FB000204610BD012908B506D0022908D059B91C
:101FC00006F034FE006808BD06F030FE4068FAE70F
:101FD00006F02CFE8068F6E70020F4E70048704722
:101FE000F49102080920704713B5002451B1036829
:101FF00001948DF8034001AA9C680DF10303A047EA
:1020000002B010BD0846FBE74089704780897047E1
:102010008088704783798088184480B27047C0797F
:1020200000F07F007047C079C009704700207047FA
:1020300081807047C180704701817047418170473E
:102040007047704770477047704710B4C488036882
:10205000121B84881B6D091B12B25DF8044B09B278
:1020600018474FF6FF7383814FF0FF330362136805
:10207000C36110607047806A704790F825201AB1DC
:1020800090F8242002B118607047704710B50446DC
:10209000D0F8F80F50B10368DB68984730B1D4F836
:1020A000F80F0368BDE810409B68184710BD10206A
:1020B0007047704738B5074B0360044640F6D85563
:1020C000635960191B68EC3D984715F1E80FF7D18B
:1020D000204638BDB893020810B5044B036004468F
:1020E00000F59270FFF7E6FF204610BDE893020866
:1020F000F0B4C56846686F10044606EB6500ED074E
:10210000A46844BFF5592C59A446F0BC6047436805
:102110002BB183682BB9C06800F0010070471846E6
:1021200070470120704710B50446FFF7C3FF2046F3
:1021300040F6C46125F0F6FA204610BD10B5102116
:10214000044625F0EFFA204610BD10B50446FFF70F
:10215000C3FF204640F6FC7125F0E4FA204610BD8E
:1021600008B58BB20F2B05D9054B064A06485421FA
:1021700025F006FBEC2301FB0300043008BD00BF83
:10218000A8920208C39202085093020870B505464F
:102190008C3010F03FFB4FF4947440F6E8762B59E6
:1021A0002819D3F88430EC349847B442F7D170BD85
:1021B00013B50446084611461A4604F59273984230
:1021C0000DD1036801929B6898472368019AD3F860
:1021D00088300146204602B0BDE81040184702B0E2
:1021E00010BD70B5036804465B6B154698472368BD
:1021F000294620469B6BBDE8704018472DE9F04703
:10220000074600234FF480724B498284C0E90133B2
:10221000C0E90333C0E90533C0E90733836247F8F7
:102220002C1BA0F85020FF2280F8522000F16005FE
:10223000424A43650446C0E90C33C0E90E33C0E9A5
:102240001033C0E912338365A0F85C30C2622846BF
:1022500010F034FD3A4BC4F8243104F5927A04F5B9
:10226000947604F6E8783046EC3607F0ADFDB045DC
:10227000F9D1344BC4F8E83F334BC4F8F03F0026A3
:10228000324BA36031463846C4F8EC4FC4F8F46FC3
:10229000C4F8F86FFFF7CCFE31463846FFF7CAFEA8
:1022A00038464FF4F072BA21FFF79BFF284A666662
:1022B0004FF0FF334FF00109C4E9152328464FF4CE
:1022C000F072A4F85C90BA21FFF78BFF31462846E4
:1022D00010F000FF4946284610F054FF28461D49DB
:1022E00010F039FE28460A2110F038FE28460A214F
:1022F00010F037FE2846202110F0A9FD3246314665
:10230000284610F0EDFC3146284610F001FD32461B
:102310002846202110F018FE42465146284610F06B
:10232000FEFB3946204611F0A3F82046294611F05D
:102330009FF82046BDE8F087E8930208C8C4020869
:10234000B8930208D0930208B1210008BA00BD007A
:10235000474747FF6D8F010870477047704710B5BA
:102360000446D0F8100150B10368DB68984730B1DB
:10237000D4F810010368BDE810409B68184710BDF1
:102380007047704790F82C302BB1C26EC26523B1F4
:10239000436F03667047826EF8E7036FF9E708B58D
:1023A00090F82C3033B1D0F8BC30C0F8A830FFF72B
:1023B000E9FF08BDD0F8B830F7E77047704730B490
:1023C000C26844685510034604EB6200D20748BF58
:1023D00062599B6830BC48BFD358184743682BB13B
:1023E00083682BB9C06800F0010070471846704739
:1023F0000120704790F82D3080F8AE3080F85A30C8
:10240000704790F82D3080F85A30704710B5082189
:10241000044625F087F9204610BD10B57821044602
:1024200025F080F9204610BD10B5C021044625F0E6
:1024300079F9204610BD10B51021044625F072F937
:10244000204610BD10B54FF48A71044625F06AF994
:10245000204610BD10B50446006B50B10368DB6820
:10246000984730B1206B036821469B68BDE8104057
:10247000184710BD00F12C038B4210B504460AD159
:102480000368D3F88C30984723682046D3F89030FF
:10249000BDE81040184710BD0B7970B590F82C605E
:1024A00004460D469BB98EB9B3FA83F35B0984F8F1
:1024B0002C3023682046D3F888309847236820467C
:1024C0005B69984716B12B79012B03D070BD002EA4
:1024D000FCD0E9E723682046D3F88430BDE870409B
:1024E00018470000074A02600022C0E90122C0E943
:1024F0000322C0E90522C0E907224FF480728284DA
:10250000704700BFB8C8020870B503680446DB6AAC
:10251000154698472368294620461B6BBDE8704046
:102520001847000070B50446FFF7DCFF4FF47F4307
:102530002646A3850123002584F82430224BA5627A
:10254000256346F8343B26222946304625F0C6FA54
:102550003046FFF7C7FFFF2384F85A301B4B6363F5
:10256000314620462646C4E91A55C4E91C55E5659E
:102570002566A4F86450A56310F07AFF144B46F862
:10258000783B26222946304625F0A8FA3046FFF748
:10259000A9FF104BC4F8A0304FF6FF73A4F8A43085
:1025A0004FF47F03C4F8AC300B4BC4F8A85020465E
:1025B000C4E92D55A4F8B050A367C4F8BC50314607
:1025C00010F056FF204670BD9C950208C8C4020852
:1025D000349602088C950208A8C302082DE9FF4131
:1025E00004462546FFF77EFF0026494BA66245F8C4
:1025F0002C3B2846FFF796FF464BC4F81061C4E910
:102600004034454BC4E942364FF03C13A36004F11B
:102610006000324631460190FFF776FF3C221146BA
:102620000198FFF7DEFD0123A4F89030A3F16513B4
:10263000A3F5C843C4F8943003F1351303F5585398
:10264000C4F89830354BC4F89C3003F5422303F2AC
:102650003923C4F8A030E36A2846D3F88830984775
:1026600004F1A4072E4B029302A913233846ADF8B8
:102670000C3012F094FCB4F93630A4F8AE30294B8B
:10268000A28E1B68A4F8AC2004F1EC082BB9264BF1
:10269000264AAE21264825F073F8264B1B88142BBA
:1026A00003D8254B214AAF21F4E7244B14211868A5
:1026B00006F0AAFA224A03460A21404618F006FD0F
:1026C00031463846C4F8E0801222FFF71DFF3C2255
:1026D00011463846FFF785FD1A4B2846C4E93933C1
:1026E000FFF75DFE324631462846FFF70DFF3C22DC
:1026F00011462846FFF775FD04F580732046E36513
:10270000294610F0B5FE204604B0BDE8F08100BFB8
:10271000E4960208CC96020875240008636362FF01
:102720008C95020884BD022078940208BA940208AD
:10273000E894020888BD02202F95020890BD02206F
:10274000819502080A0A0AFF704770477047704770
:102750007047704770477047704770B542F6E44560
:102760000446405948B10368DB68984728B160596E
:102770000368BDE870409B68184770BD0368D3F8D4
:1027800088301847FFF7FABFFFF7F8BFFFF7F6BF2B
:10279000FFF7F4BFFFF7F2BFFFF7F0BFFFF7EEBFA1
:1027A000FFF7ECBFFFF7EABFFFF7E8BFFFF7E6BFB1
:1027B000FFF7E4BFFFF7E2BFFFF7E0BFFFF7DEBFC1
:1027C000FFF7DCBFFFF7DABFFFF7D8BFFFF7D6BFD1
:1027D000FFF7D4BFFFF7D2BFFFF7D0BFFFF7CEBFE1
:1027E000FFF7CCBFFFF7CABFFFF7C8BFFFF7C6BFF1
:1027F000FFF7C4BFFFF7C2BFFFF7C0BFFFF7BEBF01
:10280000FFF7BCBF704708B590F82C3033B1D0F853
:10281000B830C0F8A830FFF7B5FD08BDD0F8B43027
:10282000F7E770477047704710B4C26841685410AA
:10283000034601EB6200D20748BF0A599B685DF866
:10284000044B48BFD358184743682BB183682BB952
:10285000C06800F0010070471846704701207047BB
:1028600030B4C26844685510034604EB6200D207D6
:1028700048BF62599B6830BC48BFD358184743686B
:102880002BB183682BB9C06800F00100704718466F
:1028900070470120704790F82D3080F8AE3080F8F6
:1028A0005A30704710B51021044624F03BFF2046F3
:1028B00010BD10B51021044624F034FF204610BD91
:1028C00010B5BC21044624F02DFF204610BD10B5E4
:1028D00042F6E841044624F025FF204610BD10B51D
:1028E0000446603006F0BAFB04F5BA7006F0B6FB99
:1028F00004F5227006F0B2FB04F5677006F0AEFB3B
:1029000004F5966006F0AAFB04F2C45006F0A6FB9C
:1029100004F5DB6006F0A2FB04F2EC7006F09EFB0F
:1029200004F5106006F09AFB04F6142006F096FBFE
:1029300004F6283006F092FB04F63C4006F08EFBCD
:1029400004F5556006F08AFB04F6646006F086FB29
:1029500004F6787006F082FB04F584500C3006F023
:102960007DFB04F58D5006F079FB04F5955014308D
:1029700006F074FB04F59E50083006F06FFB04F57A
:10298000A6501C3006F06AFB04F5AF50103006F07C
:1029900065FB04F5B850043006F060FB04F5C05048
:1029A000183006F05BFB04F5C9500C3006F056FBFE
:1029B00004F5D25006F052FB04F5DA50143006F05C
:1029C0004DFB04F5E350083006F048FB04F5EB50EE
:1029D0001C3006F043FB04F5F450103006F03EFBCB
:1029E00004F5FD50043006F039FB04F50C5034308A
:1029F00006F034FB04F51150083006F02FFB04F507
:102A000015501C30BDE8104006F028BB00F50353FC
:102A10003833994210B504460AD10368D3F8A4307C
:102A200098472368D3F8AC302046BDE810401847DB
:102A300000F506533433994203D10368D3F8A0302C
:102A4000F3E700F509533433994203D10368D3F80F
:102A50009C30EAE700F519533033994203D10368FB
:102A6000D3F89830E1E700F51C533033994203D195
:102A70000368D3F89430D8E700F51F532C339942FC
:102A800003D10368D3F89030CFE700F52253283301
:102A9000994203D10368D3F88C30C6E700F525537B
:102AA0002433994203D10368D3F8A830BDE710BDA1
:102AB00038B504461D46FFF727FDBDF9102029460D
:102AC0002046FFF78EFB38BD10B5262204460021B4
:102AD00025F004F82046FFF705FD044B2360FF2393
:102AE00084F826300023A362204610BD3CC20208B1
:102AF00010B526220446002124F0F0FF2046FFF7FF
:102B0000F1FC074B2360074BA3624FF6FF73A385CD
:102B10004FF47F020023C4E90C322387204610BD06
:102B200094C102088C95020810B40367019B4367A7
:102B300003685DF8044BD3F88830C0E91A121847CF
:102B400013B504467830019012F029FAB4F90A203E
:102B5000B4F908100198FFF744FB02B010BD13B59B
:102B600004467830019012F01AFAB4F90A20B4F948
:102B700008100198FFF735FB02B010BD70B5044690
:102B8000FFF7B0FC4FF47F432646A38501230025C1
:102B900084F824300D4BA562256346F8343B30465B
:102BA000FFF792FF0A4B63632A4629463046C4E981
:102BB0001A55C4E91C552566A4F86450FFF7A4FC17
:102BC0002046314610F054FC204670BD9C9502080A
:102BD000C8C4020838B504462546FFF7CFFF074BA7
:102BE00045F8783B2846FFF783FF00232046C4E9D9
:102BF0002D33294610F03CFC204638BD8097020852
:102C00002DE9F04F2DED108B0446BDB0FFF76AFCA7
:102C100022460025D44BA56242F82C3B10460AEE12
:102C2000902AFFF751FFD14BE36204F1600318468D
:102C3000A565A4F85C500B9306F01AFA04F5BA7374
:102C400018460C9306F014FA04F5227318460D93F7
:102C500006F00EFA04F5677318460E9306F008FAAC
:102C600004F5966318460F9306F002FA04F2C45373
:102C70001846109306F0FCF904F5DB63184611932F
:102C800006F0F6F904F2EC731846129306F0F0F928
:102C900004F510631846139306F0EAF904F61423BA
:102CA0001846149306F0E4F904F6283318461593F1
:102CB00006F0DEF904F63C431846169306F0D8F900
:102CC00004F555631846179306F0D2F904F66463C9
:102CD0001846189306F0CCF904F678731846199341
:102CE00006F0C6F904F584530C3318460BEE103A7F
:102CF00006F0BEF904F58D5318461A9306F0B8F99C
:102D000004F59553143318460BEE903A06F0B0F9DB
:102D100004F59E53083318460CEE103A06F0A8F955
:102D200004F5A6531C3318460CEE903A06F0A0F9B1
:102D300004F5AF53103318460DEE103A06F098F92B
:102D400004F5B853043318460DEE903A06F090F9A6
:102D500004F5C053183318460EEE103A06F088F901
:102D600004F5C9530C3318460EEE903A06F080F97C
:102D700004F5D25318461B9306F07AF904F5DA539A
:102D8000143318460FEE103A06F072F904F5E353C7
:102D9000083318460FEE903A06F06AF904F5EB5343
:102DA0001C331846049306F063F904F5F45310330A
:102DB0001846059306F05CF904F5FD53043342F21E
:102DC000B8061846069306F053F9A3190AEE103A0E
:102DD0001846FFF78DFE664BA3511AEE103ADD63DD
:102DE00004F503533833184608EE103AFFF7F2FEA5
:102DF00004F506533433184608EE903AFFF792FB79
:102E000004F509533433184609EE103AFFF78AFBEC
:102E100004F50C5334331846079306F029F904F5EA
:102E2000115308331846089306F022F904F5155398
:102E30001C331846099306F01BF904F51953303377
:102E400004F51C5A18460AF1300A04F51F5909EE18
:102E5000903A09F12C09FFF765FB04F5225850461A
:102E6000FFF7B8FE08F12808484604F5255BFFF790
:102E7000B1FE0BF1240B4046FFF7ACFE5846FFF7BE
:102E800051FB42F6C423E21803923A4AE250039BF4
:102E9000394A5C6042F6CC233849E25042F6D023EE
:102EA00042F6D422E550A3180A93354BA3500A9A50
:102EB000546042F6DC221AEE900AA15042F6E0225B
:102EC000A55042F6E422A118A35042F6EC224C6031
:102ED0001C912C49A15042F6F022A55042F6F42252
:102EE000A118A35042F6FC224C601D912649A15026
:102EF00004F52C52156042F60432A118A35042F694
:102F00000C324C601E912149A15042F61032A5505E
:102F100042F61432A118A35042F61C324C601F91A5
:102F20001B49A15042F62032A55042F62432A11886
:102F30002091A35042F62C324C601649A15042F623
:102F40003032A55042F63432A118A35042F63C323A
:102F50004C6021911049A15004F52D52156042F6A4
:102F60004432A1181AE000BF48980208C8C40208F9
:102F7000A8C30208189802080D2A00087D27000837
:102F80003098020885270008892700088D27000847
:102F9000912700089527000899270008A35042F6BA
:102FA0004C324C602291AF49A15042F65032A550AC
:102FB00042F65432A118A35042F65C324C60239181
:102FC000A949A15042F66032A55042F66432A118D8
:102FD000A35042F66C324C602491A449A15042F6B1
:102FE0007032A55042F67432A118A35042F67C32DA
:102FF0004C6025919E49A15004F52E52156042F671
:103000008432A118A35042F68C3226914C60994923
:10301000A15042F69032A55042F69432A118A35026
:1030200042F69C324C6027919349A15042F6A0325F
:10303000A55042F6A432A118A35042F6AC324C601F
:1030400028918E49A15042F6B032A55042F6B432D2
:10305000A118A35042F6BC324C6029918849A15076
:1030600004F52F52156042F6C432A118A35042F65F
:10307000CC324C602A918349A15042F6D032A550FF
:1030800042F6D432A118A35042F6DC324C602B91A8
:103090007D49A15042F6E032A55042F6E432A11833
:1030A000A35042F6EC324C602C917849A15042F684
:1030B000F032A55042F6F432A1182D91A35042F6F9
:1030C000FC324C607249A15004F53052156042F652
:1030D0000442A118A35042F60C424C602E916D4957
:1030E000A15042F61042A55042F61442A118A35036
:1030F00042F61C424C602F916749A15042F6204293
:10310000A55042F62442A118A35042F62C424C602E
:1031100030916249A15042F63042A55042F6344205
:10312000A118A35042F63C424C6031915C49A15039
:1031300004F53152156042F64442A118A35042F6FC
:103140004C424C6032915749A15042F65042A55032
:1031500042F65442A118A35042F65C424C603391AF
:103160005149A15042F66042A55042F66442A1186E
:10317000A35042F66C424C6034914C49A15042F647
:103180007042A55042F67442A118A35042F67C4208
:103190004C6035914649A15004F53252156042F613
:1031A0008442A118A35042F68C424C6036914149AA
:1031B000A15042F69042A55042F69442A118A35065
:1031C00042F69C424C6037913B49A15042F6A042E6
:1031D000A55042F6A442A118A35042F6AC424C605E
:1031E00038913649A15042F6B0423549A55042F6D1
:1031F000B442A718A35042F6BC427C60A15004F52B
:1032000033523049156042F6C442A618A35042F624
:10321000CC427460A15042F6D042A55042F6D4424E
:10322000A118A35042F6DC43274A4C60E25042F614
:10323000E0433991E55042F6E4432A46E550234BFA
:10324000A3604FF4967300936FF004014FF448733A
:10325000FFF72EFC1E4B636503F1C73303F1605388
:10326000A36537E09D270008A1270008A5270008CF
:10327000A9270008AD270008B1270008B5270008D6
:10328000B9270008BD270008C1270008C527000886
:10329000C9270008CD270008D1270008D527000836
:1032A000D9270008DD270008E1270008E5270008E6
:1032B000E9270008ED270008F1270008F527000896
:1032C000F9270008FD2700080128000820032C0129
:1032D0009C9B9AFF4FF006030B98A4F85C303322B6
:1032E0002321FFF711F90A9B0C98C4F8703133229F
:1032F0006021FFF709F91C9B0D98C4F88432332232
:103300009D21FFF701F91D9B0E98C4F898333322D5
:10331000DA21FFF7F9F81E9B0F98C4F8AC3433227A
:1033200040F21711FFF7F0F81F9B1098C4F8C03552
:1033300033224FF4AA71FFF7E7F8209B1198C4F8E5
:10334000D436332240F29111FFF7DEF8219B129818
:10335000C4F8E83733224FF4E771FFF7D5F8229B22
:103360001398C4F8FC38332240F20B21FFF7CCF855
:10337000239B1498C4F8103A33224FF41271FFF7CC
:10338000C3F8249B1598C4F8243B70222321FFF72F
:10339000BBF8279B1698C4F8383C70226021FFF7D1
:1033A000B3F8289B1798C4F84C3D70229D21FFF775
:1033B000ABF8299B1898C4F8603E7022DA21FFF719
:1033C000A3F82A9B1998C4F8743F702240F2171191
:1033D000FFF79AF841F288032B9AE2501BEE100A8D
:1033E00070224FF4AA71FFF78FF841F29C132C9AC8
:1033F000E2501A98702240F29111FFF785F841F2DD
:10340000B0232D9AE2501BEE900A70224FF4E77120
:10341000FFF77AF841F2C4332E9AE2501CEE100AFC
:10342000702240F20B21FFF76FF841F2D8432F9A38
:10343000E2501CEE900A70224FF41271FFF764F80C
:1034400041F2EC53309AE2501DEE100AAD22602199
:10345000FFF75AF804F5B853319A1A601DEE900A36
:10346000AD229D21FFF750F841F61403329AE25045
:103470001EEE100AAD22DA21FFF746F841F62813B6
:10348000339AE2501EEE900AAD2240F21711FFF778
:103490003BF841F63C23349AE2501B98AD224FF49E
:1034A000AA71FFF731F841F65033359AE2501FEE1A
:1034B000100AAD2240F29111FFF726F841F664435D
:1034C000369AE2501FEE900AAD224FF4E771FFF7F3
:1034D0001BF841F67853379AE2500498AD2240F237
:1034E0000B21FFF711F841F68C63389AE2500598EA
:1034F000AD224FF41271FFF707F804F5FD5306985B
:103500001F60AD2240F28521FEF7FEFF42F2B403B8
:103510001522E6501E2300931AEE100A4FF434735E
:103520002321FFF7C5FA42F2E8034FF07F42E25051
:103530001AEE103A9D860A4B1B6804F5285624366D
:103540002BB9084B084AAE21084824F019F9084B5A
:103550001B88022B10D8074B034AAF21F4E700BFAA
:1035600084BD022078940208BA940208E894020804
:1035700088BD02202F950208CE4B0221186805F065
:1035800043FBCD4A03462821304617F09FFD42F207
:10359000F40318EE107AE6501AEE100AC74E3A9667
:1035A00003233AA9ADF8EC3011F0F9FC792207F1C8
:1035B000340000923C232A462946FFF779FA42F26A
:1035C0005C134FF00102E252BD4B0093A3F13313A1
:1035D000BC4ABD4918EE100AA3F54C53FFF7A4FAF4
:1035E000092318EE100A3AA93A96ADF8EC30FFF725
:1035F000A7FA7921342207F1780000913C2329466B
:10360000FFF756FA42F2AC13B04FE75042F2B01354
:1036100018EE100AE750FFF7F6F8792118EE100AB5
:1036200000913C23AD2240F2C221FFF741FA42F261
:10363000281318EE900A3C260399E1502A464FF4CD
:10364000D573294634300096FFF732FA9C4A00922F
:1036500042F218234FF00101A2F54B12E152A2F6FB
:10366000CD429B4B984918EE900AFFF75DFA0DF199
:10367000E80C924B3A9361460C2318EE900AADF891
:10368000EC30FFF76CFA42F67423E218E55218EEBC
:10369000900A42F268232946E25078302A464FF4D5
:1036A000D5730096FFF704FA42F26C2318EE900AE5
:1036B000E75042F27023E750FEF771FE18EE900AD1
:1036C0004FF4D573EA22DA210096FFF7F1F942F2BE
:1036D000E41319EE100A0399E1502A4633462946AD
:1036E00034300096FFF7E4F9754A009242F2D8238D
:1036F0004FF00101A2F54B12E15219EE100A744B82
:103700007149A2F6CD42FFF70FFA0DF1E80E6B4BAF
:103710003A937146042319EE100AADF8EC30FFF726
:103720001EFA6C4904F52A5E0B680EF1080ECDF8FE
:1037300028E0002B3FF405AF67480388052B7FF690
:103740000AAF5C480521006805F05EFA5A4A034654
:103750000A210A9817F0BAFC42F2283319EE100A2F
:103760000A99E15014222946334678300096FFF733
:103770009FF942F22C3319EE100AE75042F230332F
:10378000E750FEF70CFE19EE100A3346EA229D219F
:103790000096FFF78DF942F2A4230399E1500798B0
:1037A000702240F28521FEF7AFFE42F24443399980
:1037B000E1500898332240F28521FEF7A5FE42F23F
:1037C00058532599E1500998332240F2C221FEF75F
:1037D0009BFE42F26C6319EE900A2699E1502A464C
:1037E0003346294634300096FFF762F9344A009296
:1037F00042F2D4634FF0010C24F803C0A2F54B123F
:1038000003F17F43304919EE900A03F69243A2F682
:10381000CD42FFF789F94FF0060EADF8ECE00DF15F
:10382000E80E264B3A93714619EE900AFFF797F986
:10383000284904F52A5E0B680EF11C0ECDF828E02D
:10384000002B3FF47EAE24480388072B7FF683AE1F
:1038500018480721006805F0D7F9174A03460A21DE
:103860000A9817F033FC42F2247319EE900A0A9971
:10387000E15014222946334678300096FFF718F9B4
:1038800042F2287319EE900AE75042F22C73E75087
:10389000FEF785FD19EE900A3346EA226021009674
:1038A000FFF706F942F2A0634FF0790E0399E15059
:1038B00014E000BF90BD0220819502088C9502089B
:1038C000996633FFCC9900FF996600FF0A0A0AFF48
:1038D000663300FF84BD022088BD0220CDF800E0E1
:1038E0002A46294633460AF13400FFF7E1F8D94A5F
:1038F000009242F294734FF0010C24F803C0A2F539
:103900004B1203F17F43A2F6CD42D34903F6D233E3
:103910005046FFF709F90DF1E80ED04B3A93714686
:1039200008235046ADF8EC30FFF70AF92946142277
:1039300033460AF178000096FFF7BAF842F2E473D2
:103940005046E75042F2E873E750FEF75CFF33461B
:10395000AD22232150460096FFF7AAF842F2607389
:103960000399E1502A462946334609F1340000966E
:10397000FFF79EF8B74A009242F650034FF0010C51
:1039800024F803C0A2F54B1203F17F43A2F6CD4207
:10399000B149B24D03F616334846FFF7C5F80DF1AD
:1039A000E80E71460A2348463A95ADF8EC30FFF729
:1039B000C7F814220021334609F178000096FFF77A
:1039C00077F842F6A0034846E75042F6A403E750D2
:1039D000FEF719FF3346EA2240F285214846009659
:1039E000FFF766F842F61C030399E15000221146E6
:1039F000334608F134000096FFF75AF8954A0092D2
:103A000042F60C134FF0010C24F803C0A2F54B1240
:103A100003F17F43A2F6CD428F4903F65A23404675
:103A2000FFF782F80DF1E80E71460B2340463A95F8
:103A3000ADF8EC30FFF784F814220021334608F18A
:103A400078000096FFF734F842F65C134046E750E2
:103A500042F66013E750FEF7D6FE3346702240F27E
:103A6000C22140460096FFF723F842F6D803039997
:103A7000E1500022114633460BF134000096FFF767
:103A800017F8744A009242F6C8134FF0010C24F85C
:103A900003C0A2F54B1203F17F436F4903F69E1357
:103AA000A2F6CD425846FFF73FF83A953AAD0F23BC
:103AB00029465846ADF8EC30FFF751F868490B68D5
:103AC00004F52A553035002B3FF43BAD654A138889
:103AD000102B7FF640AD64481021006805F094F883
:103AE000624A03460A21284617F0F0FA42F61823E4
:103AF0001422E550002133460BF178000096FEF7C2
:103B0000D7FF42F61C235846E75042F62023E750E1
:103B1000FEF745FC334658460096EA222321FEF77D
:103B2000C7FF42F69413039AE2501AEE901A204609
:103B30000FF09EFC0B9920460FF09AFC0C99204642
:103B40000FF096FC0D9920460FF092FC0E9920463E
:103B50000FF08EFC0F9920460FF08AFC109920463A
:103B60000FF086FC119920460FF082FC1299204636
:103B70000FF07EFC139920460FF07AFC1499204632
:103B80000FF076FC159920460FF072FC169920462E
:103B90000FF06EFC179920460FF06AFC189920462A
:103BA0000FF066FC199920460FF062FC1BEE101A0C
:103BB00020460FF05DFC1A9920460FF059FC1BEED1
:103BC000901A20460FF054FC1CEE101A20460FF0FD
:103BD0004FFC1CEE901A20460FF04AFC1DEE101A06
:103BE00020460FF045FC1DEE901A20460FF040FCD9
:103BF0001EEE101A20460FF03BFC1EEE901A2046D7
:103C00000FF036FC1B9920460FF032FC1FEE101A05
:103C100020460FF02DFC1FEE901A20460FF028FCD6
:103C2000049920460FF024FC059920460FF020FC53
:103C3000069920460FF01CFC1AEE101A20460FF0D1
:103C400017FC18EE101A20460FF012FC18EE901A0E
:103C50000EE000BF996633FF996600FF8C9502085D
:103C600084BD022088BD022090BD022081950208FB
:103C700020460FF0FDFB19EE101A20460FF0F8FB5E
:103C8000079920460FF0F4FB089920460FF0F0FB4F
:103C9000099920460FF0ECFB19EE901A20460FF020
:103CA000E7FB514620460FF0E3FB494620460FF064
:103CB000DFFB414620460FF0DBFB204659460FF064
:103CC000D7FB20463DB0BDEC108BBDE8F08F00BFA8
:103CD000704770477047704770B541F2A8050446B9
:103CE000405948B10368DB68984728B160590368B8
:103CF000BDE870409B68184770BD0368D3F88830F2
:103D00001847FFF7FABFFFF7F8BFFFF7F6BFFFF757
:103D1000F4BFFFF7F2BFFFF7F0BFFFF7EEBFFFF70B
:103D2000ECBFFFF7EABFFFF7E8BFFFF7E6BF70475A
:103D30007047704710B4C26841685410034601EBE5
:103D40006200D20748BF0A599B685DF8044B48BF20
:103D5000D358184743682BB183682BB9C06800F06B
:103D600001007047184670470120704730B4C268A0
:103D700044685510034604EB6200D20748BF6259FD
:103D80009B6830BC48BFD358184743682BB1836841
:103D90002BB9C06800F00100704718467047012039
:103DA000704710B51021044623F0BCFC204610BD1E
:103DB00010B51021044623F0B5FC204610BD10B507
:103DC00041F2AC01044623F0ADFC204610BD10B515
:103DD000044600F5067005F041F904F54B7005F056
:103DE0003DF904F5886005F039F904F2545005F006
:103DF00035F904F5CD6005F031F904F27C7005F079
:103E00002DF904F5096005F029F904F6A41005F070
:103E100025F904F6B82005F021F904F6CC3005F0B8
:103E20001DF904F54E6005F019F904F6F450BDE8EB
:103E3000104005F013B900F16003994210B5044633
:103E40000AD10368D3F88C3098472368D3F89830A8
:103E50002046BDE81040184700F58E73994203D103
:103E60000368D3F89030F4E700F60873994203D161
:103E70000368D3F89430ECE710BD00002DE9F04F53
:103E80002DED0C8B044691B0A3460025FEF72AFBCE
:103E9000CD4BA5624BF82C3B5846FEF715FE04F1BE
:103EA0006009CA4BE36204F58E78A565A4F85C50FE
:103EB0004846FEF78FFE04F5EC7A4046FEF78AFE90
:103EC0005046FEF715FEC24BC4F8D83104F5067310
:103ED0001846C4F8145208EE103A05F0C9F804F573
:103EE0004B73184608EE903A05F0C2F804F5886363
:103EF000184609EE103A05F0BBF804F25453184680
:103F000009EE903A05F0B4F804F5CD6318460AEED0
:103F1000103A05F0ADF804F27C7318460AEE903AB8
:103F200005F0A6F804F5096318460BEE103A05F003
:103F30009FF804F6A41318460BEE903A05F098F893
:103F400004F6B82318460CEE103A05F091F804F682
:103F5000CC3318460CEE903A05F08AF804F54E631F
:103F600018460DEE103A05F083F804F6F45318469F
:103F700004F608770DEE903A05F07AF83846FEF729
:103F800029FE944B944AC4F8D83FC4F8F02F934BC1
:103F9000C4F8E03F04F58052914B9249C4F8E83FE1
:103FA000C4F8F83FC4F8DC4FC4F8E45FC4F8EC4F41
:103FB000C4F8F45FC4F8FC4F116041F204025846A3
:103FC000A55041F20802A118A35041F210024C6022
:103FD00004918549A15041F214027926A55041F27D
:103FE0001802A118A35004F581524C6005917F4935
:103FF000116041F22402A55041F22802A118A350F9
:1040000041F230024C6006917949A15041F23402EC
:10401000A55041F23802A118A35004F582524C6019
:1040200007917449116041F24402A55041F24802DF
:10403000A1180891A35041F250024C606E49A15062
:1040400041F25402A55041F25802A118A35004F5C0
:1040500083524C6009916949116041F26402A55094
:1040600041F26802A118A35041F270024C600A911B
:104070006349A15041F27402A55041F27802A1189F
:10408000A35004F584524C600B915E49116041F2DB
:104090008402A55041F28802A118A35041F2900277
:1040A0004C600C915849A15041F29402A55041F244
:1040B0009802A118A35004F58553544A4C601A6025
:1040C00041F2A4030D91E55041F2A8032A46E550C0
:1040D0004F4BA3604FF49673009329464FF48773B8
:1040E000FEF7E6FC4B4A00964FF07F43C4E91523E8
:1040F00005232A46A4F85C3029463C2304F19400A9
:10410000FEF7D6FC4FF001034349A4F8C430434BFB
:104110004348C4F8D000C4E9323103F54C13C4F865
:10412000D430236E4846D3F8883098470DF1380EC6
:104130003C4B0E9371461C234846ADF83C30FEF7CD
:10414000FFFC3222294600963C2304F1D800FEF7FA
:10415000AFFC354B4846C4E94533FEF754FB0096A7
:104160003C2304F6D8766A22C4214846FEF7A0FC18
:104170000296C4F890603C2633462A46294604F548
:10418000A8700096FEF794FC2349244AD4F81C3109
:104190002348D3F88830C4F88C014FF0010CC4E9EF
:1041A000612102F54C12A4F880C1C4F89021404668
:1041B00098471C4A0E921B230EA94046ADF83C308E
:1041C000FEF7BEFC32E000BF30990208C8C4020806
:1041D000A8C3020800990208FB3C0008373E00080B
:1041E00018990208033D0008073D00080B3D000830
:1041F0000F3D0008133D0008173D00081B3D000857
:104200001F3D0008233D0008273D00082B3D000806
:104210000E012C01878787FFCC9900FF996600FF6C
:10422000663300FF8C9502080A0A0AFF1422294609
:10423000334604F5CA700096FEF73AFCAA4B404696
:10424000C4E97433FEF7DFFA3346E422C421404662
:104250000096FEF72DFC029BC4F84C311923009305
:104260000E22C8230D215046FEF722FC4FF07F435B
:10427000C4F8083204F6C47303939C4BA4F80C52A0
:104280001B682BB99A4B9B4AAE219B4823F078FAC6
:104290009A4B1B881A2B03D8994B964AAF21F4E707
:1042A000984B1A21186804F0AFFC974A03460A217C
:1042B000039816F00BFF039BC4F814324FF0190259
:1042C000924B0E930EA95046ADF83C2010F067FEBD
:1042D00018EE100A2D220D21FEF716F904F6E873E8
:1042E00018EE900AC4F828332D224A21FEF70CF963
:1042F00004F6F873C4F83C3419EE100A2D22872115
:10430000FEF702F9049AC4F8502519EE900A6A22C1
:104310000D21FEF7F9F8059AC4F864261AEE100A82
:104320006A224A21FEF7F0F8069AC4F878271AEEB6
:10433000900A6A228721FEF7E7F8079AC4F88C28CA
:104340001BEE100AA7220D21FEF7DEF8089AC4F82A
:10435000A0291BEE900AA7224A21FEF7D5F8099A58
:10436000C4F8B42A1CEE100AA7228721FEF7CCF865
:104370000A9AC4F8C82B1CEE900AE4220D21FEF71D
:10438000C3F80B9AC4F8DC2C1DEE100AE4224A2173
:10439000FEF7BAF80C9AC4F8F02D1DEE900AE4224C
:1043A0008721FEF7B1F80D9AC4F8042F2946334649
:1043B0002A4604F63C700096FEF77AFB4FF00102A5
:1043C000A4F86C2F524AC4F8702F02F54C523332C5
:1043D000C4F8742FA2F5CC42663AD4F8083FC4F86A
:1043E000782F02F1331202F54C52C4F87C2F384674
:1043F000D3F888309847454B0E930EA916233846BC
:10440000ADF83C30FEF79CFB29463346142204F5F8
:1044100078600096FEF74CFB334BC4F8BC3FC4F801
:10442000C03F3846FEF7EFF92D2233463846009656
:10443000C421FEF73DFB029BC4F8383F5946204695
:104440000FF016F8494620460FF012F84146204674
:104450000FF00EF8514620460FF00AF818EE101A29
:1044600020460FF005F818EE901A20460FF000F8DD
:1044700019EE101A20460EF0FBFF19EE901A204696
:104480000EF0F6FF1AEE101A20460EF0F1FF1AEEAB
:10449000901A20460EF0ECFF1BEE101A20460EF08C
:1044A000E7FF1BEE901A20460EF0E2FF1CEE101AFA
:1044B00020460EF0DDFF1CEE901A20460EF0D8FFCD
:1044C0001DEE101A20460EF0D3FF1DEE901A204666
:1044D0000EF0CEFF204639460EF0CAFF204611B03E
:1044E000BDEC0C8BBDE8F08F0A0A0AFF84BD0220E8
:1044F00078940208BA940208E894020888BD022061
:104500002F95020890BD0220819502088C95020823
:10451000996600FF7047704710B54FF4A0610446DC
:1045200023F000F9204610BD10B5262204460021D4
:1045300023F0D4FA2046FDF7D5FFFF23044A84F880
:1045400026300023A3622260E3622386204610BD4A
:10455000C8C4020810B526220446002123F0BEFA82
:104560002046FDF7BFFF084BA3624FF6FF73A385FC
:104570004FF47F020023C4E90C32044A23872260EF
:10458000E363204610BD00BF8C950208A8C3020853
:104590002DE9F04F2DED108B044687B0FDF7A2FFFB
:1045A000224600258E4BA56242F82C3B104608EEB1
:1045B000102AFFF7B9FF04F1600318460DEE103A18
:1045C000FFF7B2FF04F1940318460DEE903AFFF79F
:1045D000ABFF04F1C80318460EEE103AFFF7A4FF34
:1045E00004F1FC0318460EEE903AFFF79DFF04F528
:1045F000987318460FEE103AFFF796FF04F5B27362
:1046000018460FEE903AFFF78FFF04F5CC7318466B
:104610000293FFF789FF04F5E67318460393FFF74B
:1046200083FF04F50073184608EE903AFFF792FFF7
:1046300004F51073184609EE103AFFF78BFF04F5E6
:104640002073184609EE903AFFF784FF04F53073A3
:1046500018460AEE103AFFF77DFF04F5407318463E
:104660000AEE903AFFF776FF04F5507318460BEE0A
:10467000103AFFF76FFF04F5607318460BEE903A9F
:10468000FFF768FF04F5707318460CEE103AFFF759
:1046900061FF04F58063184614270CEE903AFFF78B
:1046A00059FF504BA3604FF0FF394FF001084FF016
:1046B0007F4618EE100A96232A4629460097FEF7F1
:1046C000F7F9C4E915961DEE100A32232A46962101
:1046D000A4F85C800097FEF7EBF9C4E922961DEE82
:1046E000900A64232A46C821A4F890800097FEF718
:1046F000DFF9C4E92F961EEE100A64232A464FF410
:104700009671A4F8C4800097FEF7D2F9C4E93C96EC
:104710001EEE900A32232A464FF4C871A4F8F8809E
:104720000097FEF7C5F9C4E949961FEE100A462323
:104730002A464FF4E171A4F82C810097FEF7B8F9EE
:10474000C4E956961FEE900A50232A464FF4027190
:10475000A4F860810097FEF7ABF9C4E9639602986C
:10476000A4F8948132232A464FF416710097FEF77D
:104770009FF94FF0130AC4E970960398A4F8C88112
:1047800064232A4640F28A210097FEF791F9C4E992
:104790007D96962318EE900ADFF86090A4F8FC81CD
:1047A000CDF800A02A462946FEF782F90E4BC4F840
:1047B0003032D9F80030A4F8348204F5886B2BB974
:1047C0000A4B0B4AAE210B4822F0DAFFDFF83080AB
:1047D000B8F80030242B15D8074B054AAF21F2E773
:1047E000D4990208EE021400020203FF7894020832
:1047F000BA940208E89402082F95020884BD0220AA
:1048000088BD0220E24B2421186804F0FDF9E14A3A
:1048100003463946584616F059FCDF4FC4F83CB2FF
:10482000232318EE900A04A9ADF81430049710F071
:10483000B6FB322319EE100ACDF800A02A469621C5
:10484000FEF736F9D9F80030C4F87062A4F8745253
:1048500004F58D6B002BB3D0B8F80030222BBBD9F8
:10486000CB4B2221186804F0CFF9CA4A0346052130
:10487000584616F02BFC212319EE100AC4F87CB21E
:1048800004A9ADF81430049710F089FB642319EEE5
:10489000900ACDF800A02A46C821FEF709F9D9F8F8
:1048A0000030C4F8B062A4F8B45204F2724B002B8A
:1048B00086D0B8F80030262B8ED9B54B2621186843
:1048C00004F0A2F9B34A03460A21584616F0FEFB4B
:1048D000252319EE900AC4F8BCB204A9ADF814302F
:1048E000049710F05CFB64231AEE100ACDF800A0C8
:1048F0002A464FF49671FEF7DBF8D9F80030C4F879
:10490000F062A4F8F45204F2864B002B3FF458AF47
:10491000B8F80030282B7FF65FAF9D4B2821186830
:1049200004F072F99B4A03460A21584616F0CEFB62
:1049300027231AEE100A04A9C4F8FCB2ADF814300B
:10494000049710F02CFB32232A461AEE900ACDF879
:1049500000A04FF4C871FEF7ABF8D9F80030A4F806
:104960003453C4F8306304F29A45002B3FF428AF67
:10497000B8F800302A2B7FF62FAFDFF81492DFF85B
:104980002082D9F800002A2104F03EF9814A03462A
:104990000A21284616F09AFB4FF0130A29231AEE33
:1049A000900AC4F83C5304A9ADF81430049710F0F1
:1049B000F6FA46231BEE100ACDF800A000224FF4B1
:1049C000E171FEF775F84FF07F43C4F87033D8F803
:1049D000003000253E46A4F8745304F2AE4B002B81
:1049E0003FF4EEAE6D4F3B882C2B7FF6F5AE2C21BD
:1049F000D9F8000004F008F9664A03460A2158462F
:104A000016F064FB2B231BEE100AC4F87CB304A938
:104A1000ADF81430049610F0C2FA50231BEE900A41
:104A2000CDF800A02A464FF40271FEF741F84FF08E
:104A30007F43C4F8B033D8F80030A4F8B45304F27C
:104A4000C24B002B3FF4BCAE3B882E2B7FF6C4AE8E
:104A50002E21D9F8000004F0D7F84E4A03460A2167
:104A6000584616F033FB2D231BEE900AC4F8BCB356
:104A700004A9ADF81430049610F091FA32231CEE1C
:104A8000100ACDF800A02A464FF41671FEF710F870
:104A90004FF07F43C4F8F033D8F80030A4F8F45353
:104AA00004F2D64B002B3FF48BAE3B88302B7FF6C5
:104AB00093AE3021D9F8000004F0A6F8354A034639
:104AC0000A21584616F002FB2F231CEE100A04A9F7
:104AD000C4F8FCB3ADF81430049610F060FA642307
:104AE0002A461CEE900ACDF800A040F28A21FDF77C
:104AF000DFFF4FF07F43C4F83034D8F80030A4F81B
:104B0000345404F2EA45002B3FF45AAE3B88322B72
:104B10007FF662AED9F80000322104F075F81D4A24
:104B200003460A21284616F0D1FA31231CEE900ADA
:104B300004A9C4F83C54ADF81430049610F02FFAD0
:104B400018EE101A20460EF093FC1DEE101A2046A7
:104B50000EF08EFC1DEE901A20460EF089FC1EEE23
:104B6000101A20460EF084FC1EEE901A20460EF01D
:104B70007FFC1FEE101A20460EF07AFC1FEE901AF2
:104B800020460EF075FC029920460EF071FC09E0FB
:104B900090BD0220819502088C95020888BD0220F4
:104BA00084BD0220039920460EF062FC18EE901A94
:104BB00020460EF05DFC19EE101A20460EF058FC4F
:104BC00019EE901A20460EF053FC1AEE101A2046E9
:104BD0000EF04EFC1AEE901A20460EF049FC1BEE29
:104BE000101A20460EF044FC1BEE901A20460EF0E0
:104BF0003FFC1CEE101A20460EF03AFC20461CEE3C
:104C0000901A0EF035FC204607B0BDEC108BBDE8C5
:104C1000F08F00BF7047704710B540F294510446C2
:104C200022F080FD204610BD2DE9F04F2DED108BB8
:104C3000044689B0FDF756FC22460025994BA56233
:104C400042F82C3B104608EE102AFFF76DFC04F1E9
:104C5000600318460DEE903AFFF766FC04F19403EA
:104C600018460EEE103AFFF75FFC04F1C803184631
:104C70000EEE903AFFF758FC04F1FC0318460FEED5
:104C8000103AFFF751FC04F5987318460FEE903A6E
:104C9000FFF74AFC04F5B27318460293FFF744FC91
:104CA00004F5CC7318460393FFF73EFC04F5E67356
:104CB00018460493FFF738FC04F500731846059373
:104CC000FFF732FC04F50D73184608EE903AFFF733
:104CD00041FC04F51D73184609EE103AFFF73AFC43
:104CE00004F52D73184609EE903AFFF733FC04F5EE
:104CF0003D7318460AEE103AFFF72CFC04F54D738D
:104D000018460AEE903AFFF725FC04F55D73184645
:104D10000BEE103AFFF71EFC04F56D7318460BEE10
:104D2000903AFFF717FC04F57D7318460CEE103A25
:104D3000FFF710FC04F2344318460CEE903AFFF7EC
:104D400009FC04F27443184614270DEE103AFFF7DD
:104D500001FC554BA3604FF0FF394FF001084FF0B5
:104D60007F4618EE100A32232A4696210097FDF757
:104D70009FFEC4E915961DEE900A96232A46294601
:104D8000A4F85C800097FDF793FEC4E922961EEE1E
:104D9000100A32232A46C821A4F890800097FDF714
:104DA00087FEC4E92F961EEE900A32232A46FA2186
:104DB000A4F8C4800097FDF77BFEC4E93C961FEE83
:104DC000100A32232A464FF49671A4F8F88000970F
:104DD000FDF76EFEC4E949961FEE900A32232A467B
:104DE0004FF4AF71A4F82C810097FDF761FEC4E980
:104DF00056960298A4F8608132232A464FF4C8716F
:104E00000097FDF755FEC4E963960398A4F89481D2
:104E100046232A464FF4E1710097FDF749FEC4E9A5
:104E200070960498A4F8C88164232A464FF402714E
:104E30000097FDF73DFE4FF0130AC4E97D960598F3
:104E4000A4F8FC8182232A464FF41B710097FDF7DA
:104E50002FFEC4E98A96962318EE900ADFF8609038
:104E6000A4F83082CDF800A02A462946FDF720FE9E
:104E70000E4BC4F86432D9F80030A4F8688204F20A
:104E8000B44B2BB90A4B0B4AAE210B4822F078FCED
:104E9000DFF83080B8F80030642B15D8074B054A8E
:104EA000AF21F2E7649A0208EE021400020203FF47
:104EB00078940208BA940208E89402082F95020830
:104EC00084BD022088BD0220DC4B6421186803F0F9
:104ED0009BFEDB4A03463946584616F0F7F8D94F91
:104EE000C4F870B2632318EE900A06A9ADF81C301E
:104EF000069710F054F8322319EE100ACDF800A0EE
:104F00002A469621FDF7D4FDD9F80030C4F8A462F2
:104F1000A4F8A85204F2DC4B002BB3D0B8F8003050
:104F2000662BBBD9C54B6621186803F06DFEC44AD9
:104F300003460521584616F0C9F8652319EE100AF4
:104F4000C4F8B0B206A9ADF81C30069710F027F8E7
:104F5000322319EE900ACDF800A02A46C821FDF7A9
:104F6000A7FDD9F80030C4F8E462A4F8E85204F2CE
:104F7000E64B002B86D0B8F80030682B8ED9AF4BAB
:104F80006821186803F040FEAD4A03460A215846DE
:104F900016F09CF8672319EE900AC4F8F0B206A93F
:104FA000ADF81C3006970FF0FAFF32231AEE100A04
:104FB000CDF800A02A46FA21FDF77AFDD9F8003095
:104FC000C4F82463A4F8285304F2FA4B002B3FF4EE
:104FD00059AFB8F800306A2B7FF660AF974B6A2163
:104FE000186803F011FE964A03460A21584616F047
:104FF0006DF869231AEE100A06A9C4F830B3ADF8AB
:105000001C3006970FF0CBFF32232A461AEE900A87
:10501000CDF800A04FF49671FDF74AFDD9F80030A5
:10502000A4F86853C4F8646304F20E55002B3FF4EF
:1050300029AFB8F800306C2B7FF630AFDFF8FCA159
:105040006C21DAF8000003F0DFFD7D4A03460A21F7
:10505000284616F03BF84FF013096B231AEE900A1E
:10506000C4F87053069706A9774FADF81C300FF0BF
:1050700096FF32231BEE100ACDF8009000224FF469
:10508000AF71FDF715FD3B684FF07F480025C4F870
:10509000A483A4F8A85304F2225B002B3FF4F2AEE1
:1050A0006A4E3388702B7FF6F9AE7021DAF8000073
:1050B00003F0AAFD624A03460A21584616F006F894
:1050C000604BC4F8B0B31BEE100A069306A96F2319
:1050D000ADF81C300FF063FF32231BEE900ACDF8C1
:1050E00000902A464FF4C871FDF7E2FC3B68C4F813
:1050F000E483A4F8E85304F2365B002B3FF4C2AE1D
:105100003388742B7FF6CAAE7421DAF8000003F0FE
:105110007BFD4B4A03460A21584615F0D7FF494B01
:10512000C4F8F0B31BEE900A069306A97323ADF8FA
:105130001C300FF034FF46231CEE100ACDF800900F
:105140002A464FF4E171FDF7B3FC3B68C4F82484B0
:10515000A4F8285404F24A5B002B3FF493AE338842
:105160006E2B7FF69BAE6E21DAF8000003F04CFD4B
:10517000334A03460A21584615F0A8FF314BC4F8BC
:1051800030B41CEE100A069306A96D23ADF81C304E
:105190000FF005FF64231CEE900ACDF800902A461C
:1051A0004FF40271FDF784FC3B68C4F86484A4F8F2
:1051B000685404F25E5B002B3FF464AE3388722BBC
:1051C0007FF66CAE7221DAF8000003F01DFD1C4A78
:1051D00003460A21584615F079FF1A4B06931CEE38
:1051E000900A712306A9C4F870B4ADF81C300FF012
:1051F000D6FE82232A461DEE100ACDF800904FF409
:105200001B71FDF755FC3B68A4F8A854C4F8A484AE
:1052100004F27255002B3FF435AE3388762B7FF6BF
:105220003DAEDAF80000762103F0EEFC044A0346B6
:105230001021284615F04AFF0AE000BF90BD022069
:10524000819502088C95020884BD022088BD022049
:10525000384B06931DEE100A752306A9C4F8B05406
:10526000ADF81C300FF09BFE18EE101A20460EF021
:10527000FFF81DEE901A20460EF0FAF81EEE101AF6
:1052800020460EF0F5F81EEE901A20460EF0F0F8CB
:105290001FEE101A20460EF0EBF81FEE901A204673
:1052A0000EF0E6F8029920460EF0E2F80399204647
:1052B0000EF0DEF8049920460EF0DAF80599204643
:1052C0000EF0D6F818EE901A20460EF0D1F819EE2E
:1052D000101A20460EF0CCF819EE901A20460EF067
:1052E000C7F81AEE101A20460EF0C2F81AEE901AFD
:1052F00020460EF0BDF81BEE101A20460EF0B8F84E
:105300001BEE901A20460EF0B3F81CEE101A204641
:105310000EF0AEF81CEE901A20460EF0A9F82046CA
:105320001DEE101A0EF0A4F8204609B0BDEC108B4B
:10533000BDE8F08F8C950208704700F596730868F9
:10534000496803C3704770477047416070477047B2
:105350000123037270477047704710B4C2684168F8
:105360005410034601EB6200D20748BF0A599B68FC
:105370005DF8044B48BFD358184743682BB1836886
:105380002BB9C06800F00100704718467047012033
:10539000704710B50C21044622F0C4F9204610BD18
:1053A00010B51021044622F0BDF9204610BD10B5FD
:1053B0004FF4AC71044622F0B5F9204610BD10B58B
:1053C00012F0DCF90368BDE810401B6B184710B5FC
:1053D0000446D0F83C0158B10368DB68984738B1FF
:1053E000D4F83C0103689B6898470023C4F83C311B
:1053F00010BD0000F8B5044617460E4612F026FA16
:10540000104B0025C4E954760F4E1C60C4E9525578
:105410000E4B306823600E4BC4E9503503682946B3
:105420009B68C4E94E559847284603F0B1FB3368A2
:1054300093F876200AB1D86C00B998681BF01DF873
:105440002046F8BD80BD022034BD0220309F0208F6
:10545000189F0208064BC0F848310023C0F84C31B1
:1054600000F5A073C0F84401C0F83C31704700BF9C
:10547000D9550008064BC0F848310023C0F84C311C
:1054800000F5A073C0F84401C0F83C31704700BF7C
:10549000415700082DE9F84F07469068DDF828A02D
:1054A000994603681B6A884614469847434B9842BE
:1054B00005D8434B434AA321434822F061F9606871
:1054C00003681B6A98470F2803D8404B3D4AA42124
:1054D000F2E7E06803681B6A98470B2803D83C4B47
:1054E000384AA521E8E712F049F912F095F9D9F800
:1054F000000010B10368DB689847D9F8000010B1CC
:1055000003681B689847386810B103685B6998475F
:10551000D8F8000010B103685B689847386810B18C
:1055200003681B689847D8F8000010B103689B68AF
:105530009847E068036800215B6A98474FF0000BCA
:10554000244B03600546C0F804B080F808B0A0689A
:10555000036859465B6A9847064605F0F3FA6068A7
:10556000036859465B6A98473146044604F078FC64
:10557000C9F80050C8F800403E60E4B1231DCAF8E5
:1055800000303368C4F808A03046DB68F4639847FD
:10559000236820461B6898472946304613F0E0FCF4
:1055A0002B6828461B6998472B6828465B699847F3
:1055B0002046BDE8F88F2346E1E700BF079C0100C5
:1055C000EC9A02087A9B02087E9C0208C59C02089D
:1055D000689D0208749F020807B5D0F85431009303
:1055E000D0F85021044B00F59C710448FFF752FF9E
:1055F00003B05DF804FB00BF74BD022070BD022043
:105600002DE9F84F07469068DDF828A09946036811
:105610001B6A88461446984744F27B53984205D843
:10562000414B424AA321424822F0AAF8606803682D
:105630001B6A98470F2803D83E4B3C4AA421F2E747
:10564000E06803681B6A98470B2803D83A4B374A2F
:10565000A521E8E712F092F812F0DEF8D9F8000080
:1056600010B10368DB689847D9F8000010B10368EF
:105670001B689847386810B103685B699847D8F889
:10568000000010B103685B689847386810B1036880
:105690001B689847D8F8000010B103689B689847CA
:1056A000E068036800215B6A98474FF0000B234BCA
:1056B00003600546C0F804B080F808B0A06803682D
:1056C00059465B6A9847064605F0C6FD6068036860
:1056D00059465B6A98473146044605F0BDFCC9F857
:1056E0000050C8F800403E60E4B1231DCAF8003005
:1056F0003368C4F808A03046DB68F4639847236831
:1057000020461B6898472946304613F029FC2B6831
:1057100028461B6998472B6828465B6998472046AE
:10572000BDE8F88F2346E1E7EC9A02080B9E0208D9
:105730007E9C0208C59C0208689D0208749F0208AE
:1057400007B5D0F854310093D0F85021044B00F540
:105750009C710448FFF754FF03B05DF804FB00BFE1
:1057600074BD022070BD0220006A7047406A704715
:1057700070478B8880690A68DB0A50F82300104460
:10578000704710B5C2B1137BB3B1547BD27A2402F7
:1057900004F4E0641443C26998B202EB84021388F3
:1057A0008B4202D192F9020010BD05D8013880B2B7
:1057B00004320028F3D1F7E70020F5E710B52821DF
:1057C000044621F0AFFF204610BD000030B589B07F
:1057D0000446BDF850500695BDF84C5005959DF80F
:1057E000405004959DF83C5003959DF83850029523
:1057F0009DF8345001959DF83050009513F010F845
:10580000064B2360119BA361129BE361159B2362EE
:10581000169B6362204609B030BD00BF989F020806
:10582000704710B50446D0F8E40050B10368DB6857
:10583000984730B1D4F8E4000368BDE810409B6895
:10584000184710BD704710B5E821044621F06AFFE3
:10585000204610BD2DE9F347044627460025FCF7F6
:1058600041FE4A4BA56247F82C3B04F158083846E4
:10587000FDF72AF904F184064046FDF725F929468B
:105880002622304622F02AF93046FCF72BFE4FF64E
:10589000FF73A4F8B0304FF47F03C4F8B8303C4B2A
:1058A000C4F8843001223B4BDFF81091A36011460D
:1058B000C4F8B450A4F8BC50C4F8C050C4F8E450C4
:1058C0003846C4F8AC90FCF71FFE1E22B8213846BB
:1058D000FCF787FC4FF0FF3A0122114684F8515043
:1058E0004046C4F854A0FCF70FFE1E22B8214046E3
:1058F000FCF777FC284BC4F8803084F87D500422F4
:1059000006213046FCF700FE192282213046FCF7C2
:1059100068FC224BA4F8B8501B68C4F8B4A004F18A
:10592000C4052BB91E4B1F4AAE211F4821F028FF8A
:105930001E4B1B88502B03D81D4B1A4AAF21F4E78E
:105940001C4B5021186803F05FF91B4A03461021D5
:10595000284615F0BBFB4F2369463046C4F8C050BB
:10596000ADF80430CDF800900FF019FB3946204611
:105970000DF07EFD414620460DF07AFD2046314671
:105980000DF076FD204602B0BDE8F087F09F0208DA
:10599000A8C30208BA00200024E69AFF84BD0220B2
:1059A00078940208BA940208E894020888BD02209C
:1059B0002F95020890BD0220819502088C9502085F
:1059C000704770477047704770477047704770471F
:1059D000704770477047704770477047704770470F
:1059E00070477047704770477047704770477047FF
:1059F000704770477047704708B590F82C3033B146
:105A0000D0F8C030C0F8A830FCF7BCFC08BDD0F816
:105A1000BC30F7E770477047704730B4C2684468DD
:105A20005510034604EB6200D20748BF62599B68D9
:105A300030BC48BFD358184743682BB183682BB993
:105A4000C06800F001007047184670470120704799
:105A500030B4C26844685510034604EB6200D207B4
:105A600048BF62599B6830BC48BFD3581847436849
:105A70002BB183682BB9C06800F00100704718464D
:105A800070470120704790F82D3080F8AE3080F8D4
:105A90005A30704710B51021044621F043FE2046CD
:105AA00010BD10B51021044621F03CFE204610BD6B
:105AB00010B5C421044621F035FE204610BD10B5B6
:105AC0000446D03003F0ABFD04F2646003F0A7FDA0
:105AD00004F6F83003F0A3FD04F58C500C3003F00D
