:020000040800F2
:1000000000000520BD050008DD1E0008DF1E0008F9
:10001000E11E0008E31E0008E51E000800000000C5
:1000200000000000000000000000000011D20008E5
:10003000E71E000800000000A1D200082DCB000838
:100040000D0600080D0600080D0600080D06000844
:100050000D0600080D0600080D0600080D06000834
:100060000D0600080D0600080D0600080D06000824
:100070000D0600080D0600080D0600080D06000814
:100080000D0600080D0600080D0600080D06000804
:100090000D0600080D0600080D0600080D060008F4
:1000A0000D0600080D0600080D0600080D060008E4
:1000B0000D0600080D0600080D0600080D060008D4
:1000C0000D0600080D0600080D0600080D060008C4
:1000D0000D0600080D0600080D0600080D060008B4
:1000E0000D0600080D0600080D0600080D060008A4
:1000F0000D0600080D0600080D0600080D06000894
:100100000D0600080D0600080D0600080D06000883
:100110000D0600080D060008E91E00080D0600087F
:100120000D0600080D0600080D0600080D06000863
:100130000D0600080D0600080D0600080D06000853
:100140000D0600080D0600080D0600080D06000843
:100150000D0600080D0600080D0600080D06000833
:100160000D0600080D0600080D0600080D06000823
:100170000D0600080D0600080D060008000000002E
:100180000D0600080D0600080D0600080D06000803
:100190000D0600080D0600080D0600080D060008F3
:1001A000F51E00080D060008011F00080D060008D6
:0401B0000D1F000817
:1001C00010B5054C237833B9044B13B10448AFF391
:1001D00000800123237010BDA80100200000000052
:1001E0004C52020808B5034B1BB103490348AFF357
:1001F000008008BD00000000AC0100204C52020845
:1002000001F0FF01102A2BDB10F0070F08D010F8C7
:10021000013B013A8B422DD010F0070F42B3F6D1CB
:10022000F0B441EA012141EA014122F007047FF0E4
:1002300000070023F0E80256083C85EA010586EA3B
:10024000010685FA47F5A3FA87F586FA47F6A5FA77
:1002500087F68EB9EED1F0BC01F0FF0102F0070283
:1002600032B110F8013B013A83EA010313B1F8D12E
:100270000020704701387047002D06BF354603380F
:10028000073815F0010F07D1013015F4807F02BF48
:10029000013015F4C03F0130F0BC0138704700BF99
:1002A00010F8012B11F8013B012A28BF9A42F7D020
:1002B000D01A7047034613F8012B002AFBD1181AF5
:1002C0000138704753B94AB9002908BF00281CBF3C
:1002D0004FF0FF314FF0FF3000F06EB9ADF1080C78
:1002E0006DE904CE00F006F8DDF804E0DDE9022354
:1002F00004B070472DE9F047089D04468C46002B5A
:1003000040F083808A42174647D9B2FA82F242B15E
:10031000C2F1200024FA00F09140974040EA010C1D
:1003200094404FEA1748230CBCFBF8F61FFA87FEEF
:1003300008FB16C143EA014306FB0EF1994209D9B5
:10034000FB1806F1FF3080F01981994240F21681C6
:10035000023E3B445B1AA4B2B3FBF8F008FB103337
:1003600044EA034400FB0EFEA64509D93C1900F1FE
:10037000FF3380F00581A64540F2028102383C44FB
:1003800040EA0640A4EB0E0400261DB1D440002331
:10039000C5E900433146BDE8F08702B9FFDEB2FA95
:1003A00082F2002A50D1CB1B4FEA174E1FFA87F872
:1003B0000126B3FBFEFC210C0EFB1C3341EA03417A
:1003C00008FB0CF38B4207D979180CF1FF3002D2ED
:1003D0008B4200F2E9808446C91AA3B2B1FBFEF059
:1003E0000EFB101143EA014408FB00F8A04507D9B1
:1003F0003C1900F1FF3302D2A04500F2D980184623
:10040000A4EB080440EA0C40BFE78B4209D9002D59
:1004100000F0B1800026C5E9000130463146BDE854
:10042000F087B3FA83F6002E4AD18B4202D3824280
:1004300000F2B880841A61EB030101208C46002D84
:10044000A8D0C5E9004CA5E7C2F1200320FA03F6C5
:10045000974001FA02F04FEA174ED9403043030C9F
:10046000B1FBFEF61FFA87F80EFB161143EA0143B3
:1004700006FB08F1994204FA02F409D9FB1806F1C7
:10048000FF3C80F08D80994240F28A80023E3B44DE
:100490005B1A81B2B3FBFEF00EFB103341EA03415D
:1004A00000FB08F38B4207D9791800F1FF3C73D2A7
:1004B0008B4271D902383944CB1A40EA064678E7B4
:1004C000C6F1200C03FA06F422FA0CF31C4320FABE
:1004D0000CF701FA06F34FEA144E21FA0CF11F4310
:1004E0003B0CB1FBFEF91FFA84F80EFB191143EA2D
:1004F000014109FB08FA8A4502FA06F200FA06F3FE
:1005000008D9611809F1FF3048D28A4546D9A9F1C6
:1005100002092144A1EB0A01BFB2B1FBFEF00EFBC0
:10052000101147EA014700FB08F8B84507D9E71959
:1005300000F1FF312ED2B8452CD90238274440EAC9
:100540000940A7EB0807A0FB02894F45C64649466C
:100550001AD317D05DB1B3EB0E0267EB010707FAB0
:100560000CFCF2404CEA0202F740C5E900270026E5
:100570003146BDE8F0872E4628460BE70646E9E6F9
:100580001846FDE64345E5D2B8EB020E69EB0401DF
:100590000138DFE70846D2E760468DE78146B9E7D4
:1005A000664675E730464AE7ACF1020C394413E77A
:1005B00002383C4424E700BF704700BFDFF834D066
:1005C000002103E00C4B5B58435004310B480C4BAB
:1005D00042189A42F6D30B4A02E0002342F8043B49
:1005E000094B9A42F9D309F09DFA22F0E1FD00F09F
:1005F00067FF7047000005202CA1020800000020C2
:10060000A8010020A801002030060220FEE700F02B
:10061000E1BD00F04FBE0021084608F0EBBD002010
:1006200008F022BE4068704741607047054A136871
:1006300043F080731360044A136843F001031360AE
:10064000704700BFFCED00E0001000E0511A01EB24
:100650005301B1FBF3F07047014B1868704700BFBE
:10066000041000E0704710B50C21044622F01EFC77
:10067000204610BD036810B51B69044631B1984788
:10068000A26863689B1A1844606010BD9847A06018
:10069000FBE770477047000008B5FFF7BCFF024B4F
:1006A00000221A6008BD00BFC401002070B50D46CD
:1006B000FFF7B5FF0B4A937856781178D370C4B220
:1006C00013F001009670517014700AD016F00100FA
:1006D00007D011F0010004D0E3075ABF01202870B1
:1006E000002070BDC401002010B50421044622F092
:1006F000DDFB204610BD704710B50421044622F0F2
:10070000D5FB204610BD000008B54FF4F0714FF442
:10071000487009F053F9074B10B901221A7008BD4F
:100720001B78002BFBD1044B044A0548262122F0FC
:10073000EBFB00BFC801002000530208135302085E
:100740003D5302087FB50B4B1C780E4615465CB135
:1007500001A809F071F99DF8043043B1BDF80630E5
:100760003360BDF80A302B60204604B070BD1C46D3
:10077000FAE700BFC801002010B1012809D0704776
:10078000084B09481A68B2FA82F2520940210AF06D
:10079000EBB9044B05485A68B2FA82F252091021AB
:1007A000F5E700BFCC01002000180240000C024019
:1007B00010B1012809D07047084B09481A68003A5F
:1007C00018BF012240210AF0CFB9044B05485A68EE
:1007D000003A18BF01221021F5E700BFCC0100202C
:1007E00000180240000C024010B1012804D07047EC
:1007F000034840210AF0BDB902481021FAE700BFC2
:1008000000180240000C024008B530B1012809D0A0
:100810000020431E5842584108BD044840210AF0B8
:100820009DF9F6E702481021F9E700BF00180240E1
:10083000000C024070B5084D00240126E0B2FFF71D
:10084000E3FF18B12B68012B18BF2E600134052C73
:1008500005F10405F2D170BDCC010020012380F820
:10086000741080F875307047002070470020704782
:10087000836B0BB10846184770474FF6FF707047FF
:10088000406803689B69184770477047014B1868B8
:10089000704700BFDC0100207047000038B50446F7
:1008A000094DFFF7C7FF204600F086FD002384F8BE
:1008B0004A302846FFF7BAFE012384F86C30034B18
:1008C0002561636138BD00BFE8010020E40100201C
:1008D0000368044607B5DB6F9847236820465B6FC3
:1008E000984700F02DFA23682046DB6E98470021D8
:1008F000064800912923152209F01FFF00F020FA75
:1009000023682046DB6E9847F8E700BFAC0302205F
:1009100010B504460FF0F2FE23682046D3F8A43049
:10092000BDE81040184700F046BD00F05DBD00F086
:100930005DBD00F02FBD00F035BD00F059BD0000D9
:1009400008B5094B1B888B4203D8084B1B88934280
:1009500005D9074B074A08489E2122F0D5FA074BD4
:100960001980074B1A8008BD8000022082000220F7
:10097000A4530208075402084A54020886000220C1
:1009800088000220024B00221A700FF091B800BFBD
:100990001400002010B504460FF096F894F84B3080
:1009A00013B1024B01221A7010BD00BF14000020C9
:1009B0000FF041B810B57C21044622F077FA2046AA
:1009C00010BD90F877301BB1406803681B6818476A
:1009D0001846704710B590F8341090F874400C4BDE
:1009E0008C421A7809D03AB90A4A0B491488088807
:1009F00010800C8001221A7010BD002AFCD0054A1C
:100A000005491488088810800C800022F3E700BF95
:100A100084000220800002208200022010B50C4CCD
:100A2000216031B90B4B0C4A0C484FF42B7122F06A
:100A30006BFAC0E90F12003A0949436418BF01225A
:100A40000A70003B074A18BF0123137010BD00BF96
:100A5000DC0100208F540208C75402084A540208DF
:100A60008A0002208B000220012807B50AD84B78A3
:100A700000930B7808481522002109F05EFE03B0B0
:100A80005DF804FB01910B5C0093392203460021C1
:100A9000014809F063FEF2E7AC03022037B50B4AC8
:100AA0000B4C0223152513705570019244220092BD
:100AB00000213922204609F051FE00210091352302
:100AC0002A46204609F039FE03B030BDF40100206B
:100AD000AC03022007B50190FFF7E0FF019803B0D7
:100AE0005DF804EB00F066BC07B5074B03EB800034
:100AF0002A2301900093392204230021034809F09E
:100B00002DFE03B05DF804FB04000020AC030220BE
:100B100070B5154D04460020FFF72EFE2A6892F8A6
:100B20006630013382F8663000F0FEF80F4B28681B
:100B30001A781B7880F84A2023B10D4D2B7803F0EA
:100B4000FF0623B1BDE870400020FFF731BE0FF073
:100B5000D5FD084B30461E60FFF7C6FF204609F062
:100B6000DCFD01232B7070BD8C00022014000020DE
:100B7000F6010020E0010020304B314A70B50546F7
:100B80001868304C013018602F4B03281E682ADC8F
:100B9000D4F804144FF4C87303FB006321F0080178
:100BA000C4F8041493620CBFE823C8230233274916
:100BB0001B0443F4F1730B61254B4B61A3F5F073F8
:100BC0005360244BD36201234B62FFF78DFF1D4A14
:100BD000D2F8043443F008032846C2F80434BDE8D0
:100BE000704009F09ABDD4F804341B4923F008037F
:100BF000C4F80434154B9662196101F10111596171
:100C0000164951601349D16201225A620020FFF750
:100C10006BFFD4F8043443F00803C4F80434002014
:100C2000FFF7C6FD0E4B00221A700E4B186820B15C
:100C30000368BDE870401B6A184770BDE0010020E2
:100C400084680140006C0140DC0100200068014024
:100C5000E301CA0093018006E201CA000300CA0052
:100C6000F60100208C00022008B5044B01461868EC
:100C700001B101210FF05CFD012008BD8C000220B4
:100C8000054B064800225A609A60054A1A60054BD7
:100C90000360FFF701BD00BFE8010020E401002070
:100CA000C4520208EC520208012108B5002208468D
:100CB0000BF0CBFF0A4B186028B90A4B0A4A2921CE
:100CC0000A4822F021F90022042101200CF05CF8EE
:100CD000074B186018B9074B034A2D21F0E708BDF0
:100CE000FC010020E855020831560208605602084F
:100CF000F8010020AF560208024B4FF0FF31186890
:100D00000BF0EEBFFC010020014B18680CF014B88A
:100D1000FC010020024B002118680BF0E1BF00BF6E
:100D2000FC010020FFF7F0BF0348044900680023DE
:100D30001A460CF065B800BFF8010020180000202A
:100D400013B5084C00231A4601A920680CF088F856
:100D500020684FF0FF33002201A90CF081F802B0A7
:100D600010BD00BFF801002003685B6C184701202C
:100D7000704703689B6A184782B0002301930D4BAC
:100D80001A6B42F400021A631A6B02F40002019219
:100D9000019A1A6942F400021A611A6922F40002E7
:100DA0001A61054B054A1A61054B4FF080629A6043
:100DB00002B070470038024074040220CD0D0008D4
:100DC00000E100E040F2EF3070470000024B1B688A
:100DD000586803685B6918478C00022008B50B2827
:100DE0000BD8DFE800F01206100A0A0A0A08080801
:100DF0000808012008BD0520FCE7054B054A064808
:100E0000672122F081F80020F4E70220F2E700BF1A
:100E1000F15602080C5702085657020808B50A286E
:100E200009D8DFE800F010060E08080808060606D4
:100E30000600012008BD054B054A0648882122F01E
:100E400063F80020F6E70220F4E700BFF15602083D
:100E5000A3570208565702082DE9F84391F81D8060
:100E60000C464046FFF7BAFFA77F05463846FFF716
:100E7000B5FF06463846FFF7D1FFA18A628B4B4B80
:100E8000521A1A649A61228B521A1A61E28A5863C2
:100E900042EA01425A6421696268D963DA60D4F88F
:100EA00000C094F81C90BCF1800F4FEA09629E4686
:100EB00030D014D8BCF1200F45EA020068D0BCF154
:100EC000400F65D0BCF1040F20D0384B2A4342F4C8
:100ED0000032B845DA6148D140F2012214E0BCF595
:100EE000807F07D0BCF5007FEFD142F4003242F0A2
:100EF000090203E042F4003242F00A02DA61E268D9
:100F00001A625E6259612A4A1A604CE040F400306D
:100F1000D861F6E7A0682A4342F40032041DDC627F
:100F2000DA6102785E62596142B1012A1FD0214B19
:100F3000214A22484FF4897121F0E6FF4288D9699D
:100F4000501E21F47F4222F0100242EA0022DA61B0
:100F50000124164BDA6942F02002DA61DA6992065E
:100F6000FCD410229A60002CCDD1154ACCE74288DF
:100F7000D969501E21F47F4222F0100242EA002279
:100F8000B9F1FF0442F0100218BF0124DA61E0E772
:100F9000074B40F40030CEF81C00CEF82460CEF8A9
:100FA0001410CEF80030BDE8F88300BF00B0024056
:100FB00001020200EE5702080858020856570208BC
:100FC0000102010038B50C46887FFFF727FFA58A8C
:100FD000E18A164B628B586341EA05415964521B02
:100FE0002169D9631A642568082D0ED19A611A61A6
:100FF0005862207F0E4A42EA0062DA61E2681A62B1
:101000000C4A5961D9601A6038BD0022D8611A6152
:10101000E1680A0A480902F4784200F4FC600243DD
:10102000C1F3C4010A439A63034AECE700B00240EB
:10103000090001000102020001020300054B0360E8
:10104000054B4FF08062C3F88820BFF34F8FBFF38A
:101050006F8F70475058020800E100E010B5044659
:10106000FFF7ECFF20464FF4426121F01FFF2046BE
:1010700010BD000070B5044625460A4B0C30002612
:1010800060602672667245F8203B602229460FF0A8
:1010900083FC04F54263EE602035AB42FBD1204671
:1010A00070BD00BF50580208012070470C207047E7
:1010B0000C2303FB0100083070470C2303FB0100E5
:1010C00008307047012070474DF6147070474DF698
:1010D000147303FB0100083070474DF6147303FBD3
:1010E000010008307047012070471020704700EB66
:1010F00001100830704700EB0110083070470846B7
:1011000003F0C8BC10B5034B036004460DF0FAFEB3
:10111000204610BD0859020810B50446FFF7F2FF3B
:101120002046142121F0C2FE204610BD10B5034B0D
:10113000036004460DF0E6FE204610BDD4580208B8
:1011400010B50446FFF7F2FF20464DF61C7121F062
:10115000ADFE204610BD000010B5034B03600446F1
:101160000DF0D0FE204610BDA058020810B5044670
:10117000FFF7F2FF2046182121F098FE204610BD0F
:1011800010B5094B0360044600F55F404830FFF797
:10119000B9FF04F12C00FFF7C9FF04F11400FFF7B9
:1011A000DBFF204610BD00BF3C59020808B50248CD
:1011B000FFF7E6FF08BD00BF0402002010B504469B
:1011C000FFF7DEFF20464EF2B80121F06FFE204609
:1011D00010BD00002DE9F34100F00AFF054600F0C4
:1011E0000BFF00240146234628462246009415F0B2
:1011F000EDFD244B244A254D1A60204605F05EFB88
:10120000234815F025FD2B78BFF35B8FDB0733D424
:10121000284621F04DFE78B31E4C1F4F1F4B236014
:1012200007F1180604F1140004F12C086060C4F8FA
:101230000880E76026610DF067FE194B6361404648
:101240000DF062FE174BE36238460DF05DFE164B63
:101250003B6007F1140006F089F9224607F11401FA
:10126000304606F079F9304603F014FC284621F0A8
:101270002BFE0E4821F066FE0D4802B0BDE8F0419D
:10128000FFF70CBBE80002205CEF0020000200200A
:101290001C000020040200204CE100203C59020800
:1012A000A0580208D458020808590208AD110008D5
:1012B000E0EE00200148FFF70BBB00BFE0EE00208E
:1012C00070B5244E244C254D254B23603046FFF746
:1012D000D1FE284618F04AFE224B2348DC6000224B
:1012E0004FF48071C3E9121220491A85C3E919121B
:1012F0004FF080715967012183F878101C4983F8F9
:101300002A200B604FF4507101801A48DA62C3E959
:101310000422C3E90622C3E90822C3E90E22C3E975
:101320001022C3E91422C3E916221A861A6683F82A
:101330006C201A67C3E9016501800F4883F83420E7
:101340004FF4F07101800D4801800D490A700D4A7B
:101350001A6070BDC0E20020BCE2002060EF0020F7
:1013600094530208E0EE00208000022001000001FA
:101370008C000220860002208200022088000220C9
:1013800084000220205502080148FFF757BE00BF25
:10139000C0E20020024B902283F85A23704700BF1E
:1013A00000E100E0024B4FF080629A60704700BF9E
:1013B00000E100E07047704738B504460EF091FB3D
:1013C00023681D6E11F08EFF01462046A847236852
:1013D000D3F8845000231A464FF040412046A847D6
:1013E000012384F84A3038BD0EF02BBB0EF087BCC9
:1013F000044B4FF08062C3F88820BFF34F8FBFF3D8
:101400006F8F704700E100E0014900200DF082B8C5
:10141000690C000808B564200BF00BFCFBE700002A
:1014200030B595B01022002109A822F013F814223B
:10143000002102A822F00EF800241F4B00941A6C21
:1014400042F080521A641B6C03F080530093009B9F
:101450001A4B01941A6842F440421A601B6803F464
:10146000404301930122019B4FF48033CDE90723D0
:1014700002254FF480030821CDE90D534FF4B473D6
:10148000CDE90F1304200623CDE9120307A8119517
:101490000AF01CFF0AF06CF90F23CDE90235049421
:1014A0004FF480534FF4A054052102A8CDE9054321
:1014B0000AF0E0FC15B030BD00380240007000407A
:1014C0002DE98048B9B008F03BFBFFF7A9FF1422D3
:1014D00000212BA8002421F0BDFFC94B02941A6BF8
:1014E000C84842F010021A631A6B02F0100202920E
:1014F000029A03941A6B42F002021A631A6B02F00A
:1015000002020392039A04941A6B42F040021A6397
:101510001A6B02F040020492049A05941A6B42F08E
:1015200008021A631A6B02F008020592059A0694E3
:101530001A6B42F480721A631A6B02F4807206927C
:10154000069A07941A6B42F020021A631A6B02F093
:1015500020020792079A08941A6B42F480621A6379
:101560001A6B02F480620892089A09941A6B42F08E
:1015700080021A631A6B02F080020992099A0A9497
:101580001A6B42F004021A631A6B02F004020A9208
:101590000A9A0B941A6B42F400721A631B6B03F4E1
:1015A00000730B93012208210B9B09F0DDFA96488A
:1015B0002246102109F0D8FA94482246402109F029
:1015C000D3FA22469248802109F0CEFA1126082348
:1015D0008C482BA901274FF00208CDE92B364FF09C
:1015E000100BCDE92D4409F031F987482D942BA932
:1015F000CDE92BB7CDF8B88009F028F9402383480E
:101600002BA98025CDE92B37CDE92D4809F01EF90E
:101610002BA903237E482E93CDE92B562D9409F058
:1016200015F97C487C4E7D4B036008F02FFB7C4B0A
:10163000C6E90A44C6E90C443046C6E90034C6E9A6
:10164000024408F037FC3946304608F0EBFC2946E6
:1016500022466F48734E09F087FA142008F09CFA6E
:1016600029463A466A4809F07FFA0A2008F094FAB7
:101670002422214615A821F0EDFE182221460FA8AC
:1016800021F0E8FE342221462BA821F0E3FE2C2293
:1016900021461EA821F0DEFE634B0E940425C6E908
:1016A00000340CA97D233046C6E90257CDE90C3839
:1016B00008F080FD15A93046CDE91574CDE9174431
:1016C000CDE91944CDE91B441D9408F09DFF1C226F
:1016D0002123CDE90F230F211923CDE91113304622
:1016E0000FA9CDE9134408F052FF2946304608F00F
:1016F0003DFF42F21071304609F091F82146304624
:1017000008F0F5FC4FF480704FF40073CDE92B0323
:101710004FF4806A4FF400634FF48052CDE92DA35B
:101720004FF40053CDE92F234FF480494FF4803319
:101730004FF4003CCDE931934FF48023CDE933C31E
:101740004FF4002E4FF080732BA93046CDE935E3DE
:10175000CDF8DC8008F0D6FEC8231EA93046CDE9BE
:10176000203BCDE92245CDE91E44CDE92484CDE9D5
:101770002644289708F054FE2146304608F03FFEE4
:101780002A482B490462C0E9001440232021C0E903
:1017900004134FF4C071C0E90614072103234FF46A
:1017A0008052CDE92C152E912BA9CDE92F38C0E917
:1017B0000929C0E90245CDF8AC80CDF8C4800AF013
:1017C0003BFF08F0E5F808F095F8342221461EA802
:1017D000184D21F03FFE184AAC86C5E90024CA2303
:1017E0004FF4F172C5E90932CB2140F2E3122846E9
:1017F000C5E90B12C5E90244C5E904471EE000BF74
:101800000038024000280240000C0240001802404C
:10181000001C0240A4030220740402200030024095
:1018200000B00240AC030220006C0140B40402206E
:10183000400100A0C803022000680140C5E9067805
:10184000C5F8208085F8364009F05CFEFF21C823EA
:101850004FF4F072CDE9231405204FF04041CDE95B
:101860002601CDE928321EA9CDE9212828462246A5
:10187000CDE91F341E94CDF894A0ADF8A8408DF8A2
:10188000AA4009F00BFF2A68936923F001039361D2
:10189000304608F01FFF3946404607F0EDF928238F
:1018A000152221463046009408F047FF2BA9304608
:1018B000CDE92B44CDE92D44CDE92F44CDE9314488
:1018C000CDE93344359408F01DFE4FF448712246AB
:1018D000284609F011FF2A681E4893691E4D1F4EC5
:1018E0003B4393611E4B0462C0E900371B23C0E9F0
:1018F000043AC0E9027BC0E906440AF051F807F057
:10190000BFFE07F0F3FD07F069FD164B2C62284679
:10191000C5E90063C5E90244C5E90494C5E9064484
:1019200009F00CFB284609F0B1FBFEF770FE0BF046
:101930000BF90D4A0D4821460BF032F90C4B0D4ABC
:10194000186021460C480BF02BF90C4B18600BF07B
:101950000DF9FEE7E8040220500302200054004085
:10196000001000A0801A060088590208151400080B
:101970004C03022064590208130600087004022078
:101980000268034B9A4201D108F0F4B8704700BFD7
:1019900000100040704701207047002303600123BE
:1019A0000B60704782B00E4B00220092596C41F4DC
:1019B00080415964596C01F4804100910099019271
:1019C000196C41F0805119641B6C03F08053019332
:1019D000019B0F216FF0010002B008F003B900BFB6
:1019E000003802400268094B9A4282B00BD10023B2
:1019F0000193074B1A6B42F480521A631B6B03F47A
:101A000080530193019B02B0704700BF0030024039
:101A10000038024007B50F4B02689A4216D10022E7
:101A2000A3F5F0430192196B41F4000119631B6B9C
:101A300003F40003019305215A20019B08F0D2F81A
:101A40005A2003B05DF804EB08F0FEB803B05DF86F
:101A500004FB00BF00B0024010B5044688B0142259
:101A6000002103A821F0F6FC2268184B9A422AD1E3
:101A700003F54C43002401945A6C154842F000626F
:101A80005A645A6C02F000620192019A02941A6B35
:101A900042F400721A631B6B03F400730293042276
:101AA000029B0223CDE9032303A90D230793CDE96C
:101AB000054408F0CBFE5C202246052108F092F890
:101AC0005C2008F0C1F808B010BD00BF006C0140F8
:101AD0000024024030B5044689B01422002103A836
:101AE00021F0B8FC22681A4B9A422FD1194C1A489F
:101AF00000250195236B43F002032363236B03F05E
:101B000002030193019B4FF440721223CDE903239A
:101B100001210323CDE90513042303A9079308F04A
:101B200095FE0295236C43F400132364236C03F4A5
:101B300000130293029B236A43F400132362236A77
:101B400023F400132362642008F026F809B030BDA6
:101B500000540040003802400004024008B502680A
:101B60000A4B9A4210D10A4A0A48136C23F4001314
:101B700013644FF4807108F04FFFBDE8084005483A
:101B80004FF4007108F048BF08BD00BF005400408A
:101B9000003802400004024010B5044690B03C22D8
:101BA000002101A821F056FC2268134B9A4221D152
:101BB000082301934FF4B47305930024062301A86E
:101BC00008930B940AF020FA08B1FFF7E3FE0B4BE1
:101BD00000945A6C42F080625A645B6C03F080633C
:101BE0000093582000220521009B07F0FBFF58209E
:101BF00008F02AF810B010BD00680140003802401B
:101C0000F0B5044689B01422002103A821F022FC7B
:101C10002268244B9A4243D1234B24480024009449
:101C20009A6B42F002029A639A6B02F002020092EF
:101C3000009A01941A6B42F002021A631A6B02F0C6
:101C400002020192019A02941A6B42F020021A6376
:101C50001B6B059403F02003029302260325029BCD
:101C60000A27402303A9CDE90336CDE9065708F03A
:101C7000EDFD4FF49863CDE903360D48092303A920
:101C80000793CDE9054508F0E1FD4FF4407308489E
:101C9000079703A9CDE90336CDE9054508F0D6FD40
:101CA00009B0F0BD001000A000380240000402405E
:101CB0000014024008B50268094B9A420FD1094A44
:101CC0000948936B23F002039363402108F0A4FEBC
:101CD000BDE8084005484FF4F86108F09DBE08BD16
:101CE000001000A00038024000040240001402402E
:101CF000F0B5314B1C6887B0002C5BD101221A6013
:101D00002E4B00949A6B2E4842F001029A639B6B13
:101D1000039403F001030093022703260C25009B84
:101D200001A94FF68373CDE90137CDE9046508F0C9
:101D30008DFD48F233132348059501A9CDE90137FC
:101D4000CDE9034608F082FD4CF203731E48059569
:101D500001A9CDE90137CDE9034608F077FD40F24E
:101D6000FF631A48059501A9CDE90137CDE903467E
:101D700008F06CFD4FF63F031548059501A9CDE924
:101D80000137CDE9034608F061FD4FF47F43114868
:101D9000059501A9CDE90137CDE9034608F056FDC7
:101DA0000D230D48059501A9CDE90137CDE903467D
:101DB00008F04CFD07B0F0BDDCEF00200038024019
:101DC0000010024000180240000C024000200240B7
:101DD00000140240001C02400008024008B5174BE6
:101DE0001A6852BB01221A60154A1648936B23F0F9
:101DF000010393634FF6837108F00EFE124848F218
:101E0000331108F009FE11484CF2037108F004FE8A
:101E10000F4840F2FF6108F0FFFD0E484FF63F010A
:101E200008F0FAFD0C484FF47F4108F0F5FDBDE8DD
:101E300008400A480D2108F0EFBD08BDD8EF00208A
:101E4000003802400010024000180240000C02401E
:101E50000020024000140240001C02400008024022
:101E600030B5014689B00022362007F0BBFE36208F
:101E700007F0EAFE0025154B02951A6C144C42F04F
:101E800010021A641B6C03F01003029301A903A84B
:101E9000029B0AF09BF80AF089F80E4B236040F28F
:101EA000E733E36040000C4BB0FBF3F001386060B7
:101EB00020462561A5600AF05DFD20B920460AF0A4
:101EC00013FC09B030BD0120FBE700BF0038024021
:101ED000340502200010004040420F007047FEE72A
:101EE000FEE7FEE7FEE7704701480AF03BBC00BF93
:101EF00034050220014809F074BB00BFC80302206A
:101F0000014808F005B800BF74040220014808F039
:101F100004BA00BFAC0302200120704708B521F0CD
:101F200039F8162303604FF0FF3008BD08B521F0E3
:101F300031F816230360FEE770B50E4614460025FF
:101F4000A54201DB204670BDAFF30080705501351E
:101F5000F6E770B50E4614460025A54201DB204683
:101F600070BD705DAFF300800135F6E74FF0FF30D4
:101F700070474FF400534B600020704701207047BA
:101F80000020704708B50A4B1968024609B909498B
:101F900019601868694602448A4206D920F0FAFF9F
:101FA0000C2303604FF0FF3008BD1A60FCE700BF50
:101FB000E4EF002030060220704710B504210446EB
:101FC00020F074FF204610BD012908B506D0022973
:101FD00008D059B904F0BEFC006808BD04F0BAFC92
:101FE0004068FAE704F0B6FC8068F6E70020F4E702
:101FF00000487047C05902080920704713B50024F3
:1020000051B1036801948DF8034001AA9C680DF159
:102010000303A04702B010BD0846FBE740897047A4
:10202000808970478088704783798088184480B29F
:102030007047C07900F07F007047C079C0097047D1
:102040000020704781807047C180704701817047D0
:10205000418170477047704770477047704710B4B0
:10206000C4880368121B84881B6D091B12B25DF8BB
:10207000044B09B218474FF6FF7383814FF0FF33CB
:1020800003621368C36110607047806A704790F8FC
:1020900025201AB190F8242002B11860704770B55D
:1020A000036804465B6B154698472368294620461B
:1020B0009B6BBDE870401847094A02604FF480717D
:1020C00000228184FF21C0E90122C0E90322C0E986
:1020D0000522C0E9072280F826108262704700BFFF
:1020E0006880020870477047704710B50446D0F802
:1020F000100150B10368DB68984730B1D4F8100183
:102100000368BDE810409B68184710BD70477047D2
:1021100090F82C302BB1C26EC26523B1436F0366B9
:102120007047826EF8E7036FF9E708B590F82C3036
:1021300033B1D0F8BC30C0F8A830FFF7E9FF08BDD4
:10214000D0F8B830F7E77047704730B4C2684468D9
:102150005510034604EB6200D20748BF62599B68E2
:1021600030BC48BFD358184743682BB183682BB99C
:10217000C06800F0010070471846704701207047A2
:1021800090F82D3080F8AE3080F85A30704790F8D3
:102190002D3080F85A30704710B50821044620F0E1
:1021A00085FE204610BD10B57821044620F07EFE45
:1021B000204610BD10B5C021044620F077FE204611
:1021C00010BD10B51021044620F070FE204610BD51
:1021D00010B54FF48A71044620F068FE204610BD09
:1021E00010B50446006B50B10368DB68984730B106
:1021F000206B036821469B68BDE81040184710BD5E
:1022000000F12C038B4210B504460AD10368D3F8C1
:102210008C30984723682046D3F89030BDE81040B2
:10222000184710BD0B7970B590F82C6004460D4628
:102230009BB98EB9B3FA83F35B0984F82C30236819
:102240002046D3F888309847236820465B69984732
:1022500016B12B79012B03D070BD002EFCD0E9E71D
:1022600023682046D3F88430BDE87040184700004A
:10227000074A02600022C0E90122C0E90322C0E946
:102280000522C0E907224FF480728284704700BFA4
:102290006C86020870B503680446DB6A15469847E9
:1022A0002368294620461B6BBDE870401847000094
:1022B00070B50446FFF7DCFF4FF47F432646A38545
:1022C0000123002584F82430224BA562256346F8BB
:1022D000343B26222946304621F0BCF83046FFF731
:1022E000C7FFFF2384F85A301B4B636331462046F7
:1022F0002646C4E91A55C4E91C55E5652566A4F8C7
:102300006450A5630CF066FF144B46F8783B262218
:102310002946304621F09EF83046FFF7A9FF104BC2
:10232000C4F8A0304FF6FF73A4F8A4304FF47F0335
:10233000C4F8AC300B4BC4F8A8502046C4E92D5566
:10234000A4F8B050A367C4F8BC5031460CF042FF6B
:10235000204670BD985B02087C820208305C02084F
:10236000885B0208D48102082DE9FF410446254616
:10237000FFF77EFF0026494BA66245F82C3B284616
:10238000FFF796FF464BC4F81061C4E94034454B53
:10239000C4E942364FF03C13A36004F160003246BA
:1023A00031460190FFF776FF3C2211460198FFF776
:1023B00076FE0123A4F89030A3F16513A3F5C8437A
:1023C000C4F8943003F1351303F55853C4F898302A
:1023D000354BC4F89C3003F5422303F23923C4F88B
:1023E000A030E36A2846D3F88830984704F1A40760
:1023F0002E4B029302A913233846ADF80C300EF091
:1024000080FCB4F93630A4F8AE30294BA28E1B689C
:10241000A4F8AC2004F1EC082BB9264B264AAE21D7
:10242000264820F071FD264B1B88142B03D8254B22
:10243000214AAF21F4E7244B1421186804F07AFAFA
:10244000224A03460A21404614F0F4FB314638463E
:10245000C4F8E0801222FFF71DFF3C2211463846E7
:10246000FFF71DFE1A4B2846C4E93933FFF75DFE1E
:10247000324631462846FFF70DFF3C2211462846DA
:10248000FFF70DFE04F580732046E36529460CF046
:10249000A1FE204604B0BDE8F08100BFE05C020868
:1024A000C85C020801220008636362FF885B0208BF
:1024B000DC000220745A0208B65A0208E45A0208E4
:1024C000E00002202B5B0208E80002207D5B02088E
:1024D0000A0A0AFF70477047704770477047704795
:1024E00070477047704770B542F6E445044640595E
:1024F00048B10368DB68984728B160590368BDE8B4
:1025000070409B68184770BD0368D3F8883018473F
:10251000FFF7FABFFFF7F8BFFFF7F6BFFFF7F4BF0B
:10252000FFF7F2BFFFF7F0BFFFF7EEBFFFF7ECBF1B
:10253000FFF7EABFFFF7E8BFFFF7E6BFFFF7E4BF2B
:10254000FFF7E2BFFFF7E0BFFFF7DEBFFFF7DCBF3B
:10255000FFF7DABFFFF7D8BFFFF7D6BFFFF7D4BF4B
:10256000FFF7D2BFFFF7D0BFFFF7CEBFFFF7CCBF5B
:10257000FFF7CABFFFF7C8BFFFF7C6BFFFF7C4BF6B
:10258000FFF7C2BFFFF7C0BFFFF7BEBFFFF7BCBF7B
:10259000704708B590F82C3033B1D0F8B830C0F897
:1025A000A830FFF7B5FD08BDD0F8B430F7E77047A5
:1025B0007047704710B4C26841685410034601EB7D
:1025C0006200D20748BF0A599B685DF8044B48BFB8
:1025D000D358184743682BB183682BB9C06800F003
:1025E00001007047184670470120704730B4C26838
:1025F00044685510034604EB6200D20748BF625995
:102600009B6830BC48BFD358184743682BB18368D8
:102610002BB9C06800F001007047184670470120D0
:10262000704790F82D3080F8AE3080F85A307047FF
:1026300010B51021044620F039FC204610BD10B51D
:102640001021044620F032FC204610BD10B5BC21FC
:10265000044620F02BFC204610BD10B542F6E841A0
:10266000044620F023FC204610BD10B5044660301F
:1026700004F090F904F5BA7004F08CF904F52270B6
:1026800004F088F904F5677004F084F904F59660A5
:1026900004F080F904F2C45004F07CF904F5DB6026
:1026A00004F078F904F2EC7004F074F904F51060A9
:1026B00004F070F904F6142004F06CF904F62830E4
:1026C00004F068F904F63C4004F064F904F5556040
:1026D00004F060F904F6646004F05CF904F67870C4
:1026E00004F058F904F584500C3004F053F904F563
:1026F0008D5004F04FF904F59550143004F04AF968
:1027000004F59E50083004F045F904F5A6501C303D
:1027100004F040F904F5AF50103004F03BF904F533
:10272000B850043004F036F904F5C050183004F005
:1027300031F904F5C9500C3004F02CF904F5D250ED
:1027400004F028F904F5DA50143004F023F904F504
:10275000E350083004F01EF904F5EB501C3004F08F
:1027600019F904F5F450103004F014F904F5FD5093
:10277000043004F00FF904F50C50343004F00AF979
:1027800004F51150083004F005F904F515501C301B
:10279000BDE8104004F0FEB800F503533833994209
:1027A00010B504460AD10368D3F8A43098472368CB
:1027B000D3F8AC302046BDE81040184700F506536A
:1027C0003433994203D10368D3F8A030F3E700F51E
:1027D00009533433994203D10368D3F89C30EAE7B4
:1027E00000F519533033994203D10368D3F8983078
:1027F000E1E700F51C533033994203D10368D3F865
:102800009430D8E700F51F532C33994203D1036865
:10281000D3F89030CFE700F522532833994203D103
:102820000368D3F88C30C6E700F52553243399426A
:1028300003D10368D3F8A830BDE710BD38B504460E
:102840001D46FFF727FDBDF9102029462046FFF75A
:1028500026FC38BD10B526220446002120F0FAFDE2
:102860002046FFF705FD074B2360074BA3624FF699
:10287000FF73A3854FF47F020023C4E90C32238742
:10288000204610BDC07F0208885B020810B40367B1
:10289000019B436703685DF8044BD3F88830C0E9B7
:1028A0001A12184713B50446783001900EF029FA31
:1028B000B4F90A20B4F908100198FFF7F0FB02B050
:1028C00010BD13B50446783001900EF01AFAB4F931
:1028D0000A20B4F908100198FFF7E1FB02B010BD1F
:1028E00070B50446FFF7C4FC4FF47F432646A3852A
:1028F0000123002584F824300D4BA562256346F89A
:10290000343B3046FFF7D8FB0A4B63632A4629461F
:102910003046C4E91A55C4E91C552566A4F864502C
:10292000FFF7B8FC204631460CF054FC204670BD41
:10293000985B02087C82020838B504462546FFF7FA
:10294000CFFF074B45F8783B2846FFF783FF00236E
:102950002046C4E92D3329460CF03CFC204638BD06
:102960007C5D02082DE9F04F2DED108B0446BDB0C3
:10297000FFF77EFC22460025D44BA56242F82C3B93
:1029800010460AEE902AFFF797FBD14BE36204F161
:1029900060031846A565A4F85C500B9304F004F896
:1029A00004F5BA7318460C9303F0FEFF04F5227386
:1029B00018460D9303F0F8FF04F5677318460E935D
:1029C00003F0F2FF04F5966318460F9303F0ECFF53
:1029D00004F2C4531846109303F0E6FF04F5DB63DA
:1029E0001846119303F0E0FF04F2EC7318461293BB
:1029F00003F0DAFF04F510631846139303F0D4FFD5
:102A000004F614231846149303F0CEFF04F628337B
:102A10001846159303F0C8FF04F63C431846169376
:102A200003F0C2FF04F555631846179303F0BCFF8B
:102A300004F664631846189303F0B6FF04F678733F
:102A40001846199303F0B0FF04F584530C3318466D
:102A50000BEE103A03F0A8FF04F58D5318461A93B5
:102A600003F0A2FF04F59553143318460BEE903A89
:102A700003F09AFF04F59E53083318460CEE103A03
:102A800003F092FF04F5A6531C3318460CEE903A5F
:102A900003F08AFF04F5AF53103318460DEE103AD9
:102AA00003F082FF04F5B853043318460DEE903A54
:102AB00003F07AFF04F5C053183318460EEE103AAF
:102AC00003F072FF04F5C9530C3318460EEE903A2A
:102AD00003F06AFF04F5D25318461B9303F064FF1A
:102AE00004F5DA53143318460FEE103A03F05CFF86
:102AF00004F5E353083318460FEE903A03F054FF01
:102B000004F5EB531C331846049303F04DFF04F512
:102B1000F45310331846059303F046FF04F5FD53B4
:102B2000043342F2B8061846069303F03DFFA3199A
:102B30000AEE103A1846FFF78DFE664BA3511AEEC7
:102B4000103ADD6304F503533833184608EE103AA3
:102B5000FFF7F2FE04F506533433184608EE903AB8
:102B6000FFF7A6FB04F509533433184609EE103A73
:102B7000FFF79EFB04F50C5334331846079303F01C
:102B800013FF04F5115308331846089303F00CFFA4
:102B900004F515531C331846099303F005FF04F59B
:102BA0001953303304F51C5A18460AF1300A04F55B
:102BB0001F5909EE903A09F12C09FFF779FB04F54A
:102BC00022585046FFF7B8FE08F12808484604F599
:102BD000255BFFF7B1FE0BF1240B4046FFF7ACFE7F
:102BE0005846FFF765FB42F6C423E21803923A4ABF
:102BF000E250039B394A5C6042F6CC233849E250EC
:102C000042F6D02342F6D422E550A3180A93354B5E
:102C1000A3500A9A546042F6DC221AEE900AA150A0
:102C200042F6E022A55042F6E422A118A35042F653
:102C3000EC224C601C912C49A15042F6F022A55088
:102C400042F6F422A118A35042F6FC224C601D91DA
:102C50002649A15004F52C52156042F60432A11801
:102C6000A35042F60C324C601E912149A15042F60D
:102C70001032A55042F61432A118A35042F61C326D
:102C80004C601F911B49A15042F62032A55042F6DC
:102C90002432A1182091A35042F62C324C601649E0
:102CA000A15042F63032A55042F63432A118A3505A
:102CB00042F63C324C6021911049A15004F52D524E
:102CC000156042F64432A1181AE000BF445E0208C3
:102CD0007C820208D4810208145E02089927000849
:102CE000092500082C5E020811250008152500089A
:102CF000192500081D2500082125000825250008A4
:102D0000A35042F64C324C602291AF49A15042F69A
:102D10005032A55042F65432A118A35042F65C320C
:102D20004C602391A949A15042F66032A55042F669
:102D30006432A118A35042F66C324C602491A4492D
:102D4000A15042F67032A55042F67432A118A35039
:102D500042F67C324C6025919E49A15004F52E52DA
:102D6000156042F68432A118A35042F68C322691A7
:102D70004C609949A15042F69032A55042F69432E7
:102D8000A118A35042F69C324C6027919349A15060
:102D900042F6A032A55042F6A432A118A35042F642
:102DA000AC324C6028918E49A15042F6B032A55009
:102DB00042F6B432A118A35042F6BC324C602991BD
:102DC0008849A15004F52F52156042F6C432A1186B
:102DD000A35042F6CC324C602A918349A15042F66E
:102DE000D032A55042F6D432A118A35042F6DC32BC
:102DF0004C602B917D49A15042F6E032A55042F63D
:102E0000E432A118A35042F6EC324C602C91784980
:102E1000A15042F6F032A55042F6F432A1182D919D
:102E2000A35042F6FC324C607249A15004F5305276
:102E3000156042F60442A118A35042F60C424C60C1
:102E40002E916D49A15042F61042A55042F614420F
:102E5000A118A35042F61C424C602F916749A15023
:102E600042F62042A55042F62442A118A35042F651
:102E70002C424C6030916249A15042F63042A5503C
:102E800042F63442A118A35042F63C424C603191C4
:102E90005C49A15004F53152156042F64442A11834
:102EA000A35042F64C424C6032915749A15042F631
:102EB0005042A55042F65442A118A35042F65C423B
:102EC0004C6033915149A15042F66042A55042F600
:102ED0006442A118A35042F66C424C6034914C49B4
:102EE000A15042F67042A55042F67442A118A35078
:102EF00042F67C424C6035914649A15004F532526D
:102F0000156042F68442A118A35042F68C424C60F0
:102F100036914149A15042F69042A55042F6944262
:102F2000A118A35042F69C424C6037913B49A150F6
:102F300042F6A042A55042F6A442A118A35042F680
:102F4000AC424C6038913649A15042F6B042354906
:102F5000A55042F6B442A718A35042F6BC427C608A
:102F6000A15004F533523049156042F6C442A61808
:102F7000A35042F6CC427460A15042F6D042A55014
:102F800042F6D442A118A35042F6DC43274A4C60D3
:102F9000E25042F6E0433991E55042F6E4432A46D6
:102FA000E550234BA3604FF4967300936FF0040138
:102FB0004FF44873FFF742FC1E4B636503F1C733C0
:102FC00003F16053A36537E0292500082D2500088B
:102FD0003125000835250008392500083D25000861
:102FE0004125000845250008492500084D25000811
:102FF0005125000855250008592500085D250008C1
:103000006125000865250008692500086D25000870
:103010007125000875250008792500087D25000820
:103020008125000885250008892500088D250008D0
:1030300020032C019C9B9AFF4FF006030B98A4F8E9
:103040005C3033222321FFF725F90A9B0C98C4F842
:10305000703133226021FFF71DF91C9B0D98C4F8D5
:10306000843233229D21FFF715F91D9B0E98C4F879
:1030700098333322DA21FFF70DF91E9B0F98C4F81D
:10308000AC34332240F21711FFF704F91F9B10985C
:10309000C4F8C03533224FF4AA71FFF7FBF8209B28
:1030A0001198C4F8D436332240F29111FFF7F2F8A8
:1030B000219B1298C4F8E83733224FF4E771FFF7E9
:1030C000E9F8229B1398C4F8FC38332240F20B2114
:1030D000FFF7E0F8239B1498C4F8103A33224FF41A
:1030E0001271FFF7D7F8249B1598C4F8243B70227F
:1030F0002321FFF7CFF8279B1698C4F8383C70229D
:103100006021FFF7C7F8289B1798C4F84C3D702240
:103110009D21FFF7BFF8299B1898C4F8603E7022E4
:10312000DA21FFF7B7F82A9B1998C4F8743F702288
:1031300040F21711FFF7AEF841F288032B9AE250E4
:103140001BEE100A70224FF4AA71FFF7A3F841F2A8
:103150009C132C9AE2501A98702240F29111FFF7BA
:1031600099F841F2B0232D9AE2501BEE900A70229A
:103170004FF4E771FFF78EF841F2C4332E9AE25014
:103180001CEE100A702240F20B21FFF783F841F287
:10319000D8432F9AE2501CEE900A70224FF412711D
:1031A000FFF778F841F2EC53309AE2501DEE100A26
:1031B000AD226021FFF76EF804F5B853319A1A601A
:1031C0001DEE900AAD229D21FFF764F841F614032D
:1031D000329AE2501EEE100AAD22DA21FFF75AF8B9
:1031E00041F62813339AE2501EEE900AAD2240F2C7
:1031F0001711FFF74FF841F63C23349AE2501B9821
:10320000AD224FF4AA71FFF745F841F65033359AD5
:10321000E2501FEE100AAD2240F29111FFF73AF88A
:1032200041F66443369AE2501FEE900AAD224FF405
:10323000E771FFF72FF841F67853379AE250049878
:10324000AD2240F20B21FFF725F841F68C63389A46
:10325000E2500598AD224FF41271FFF71BF804F508
:10326000FD5306981F60AD2240F28521FFF712F84A
:1032700042F2B4031522E6501E2300931AEE100A00
:103280004FF434732321FFF7D9FA42F2E8034FF0E9
:103290007F42E2501AEE103A9D860A4B1B6804F5F5
:1032A000285624362BB9084B084AAE2108481FF08F
:1032B0002BFE084B1B88022B10D8074B034AAF216B
:1032C000F4E700BFDC000220745A0208B65A020874
:1032D000E45A0208E00002202B5B0208CE4B0221D8
:1032E000186803F027FBCD4A03462821304613F027
:1032F000A1FC42F2F40318EE107AE6501AEE100A1E
:10330000C74E3A9603233AA9ADF8EC300DF0F9FC1C
:10331000792207F1340000923C232A462946FFF720
:103320008DFA42F25C134FF00102E252BD4B009362
:10333000A3F13313BC4ABD4918EE100AA3F54C5350
:10334000FFF7A4FA092318EE100A3AA93A96ADF845
:10335000EC30FFF7A7FA7921342207F178000091C9
:103360003C232946FFF76AFA42F2AC13B04FE7500C
:1033700042F2B01318EE100AE750FFF70AF979216C
:1033800018EE100A00913C23AD2240F2C221FFF753
:1033900055FA42F2281318EE900A3C260399E150A0
:1033A0002A464FF4D573294634300096FFF746FA83
:1033B0009C4A009242F218234FF00101A2F54B12F1
:1033C000E152A2F6CD429B4B984918EE900AFFF7C6
:1033D0005DFA0DF1E80C924B3A9361460C2318EE1E
:1033E000900AADF8EC30FFF76CFA42F67423E2185D
:1033F000E55218EE900A42F268232946E2507830EE
:103400002A464FF4D5730096FFF718FA42F26C2360
:1034100018EE900AE75042F27023E750FEF785FE5F
:1034200018EE900A4FF4D573EA22DA210096FFF7DE
:1034300005FA42F2E41319EE100A0399E1502A4604
:103440003346294634300096FFF7F8F9754A009262
:1034500042F2D8234FF00101A2F54B12E15219EECE
:10346000100A744B7149A2F6CD42FFF70FFA0DF125
:10347000E80E6B4B3A937146042319EE100AADF82F
:10348000EC30FFF71EFA6C4904F52A5E0B680EF16A
:10349000080ECDF828E0002B3FF405AF67480388FD
:1034A000052B7FF60AAF5C480521006803F042FA5D
:1034B0005A4A03460A210A9813F0BCFB42F2283309
:1034C00019EE100A0A99E150142229463346783041
:1034D0000096FFF7B3F942F22C3319EE100AE750C9
:1034E00042F23033E750FEF720FE19EE100A334661
:1034F000EA229D210096FFF7A1F942F2A423039945
:10350000E1500798702240F28521FEF7C3FE42F297
:1035100044433999E1500898332240F28521FEF75F
:10352000B9FE42F258532599E1500998332240F2EE
:10353000C221FEF7AFFE42F26C6319EE900A2699A3
:10354000E1502A463346294634300096FFF776F993
:10355000344A009242F2D4634FF0010C24F803C0C5
:10356000A2F54B1203F17F43304919EE900A03F69E
:103570009243A2F6CD42FFF789F94FF0060EADF85F
:10358000ECE00DF1E80E264B3A93714619EE900AE5
:10359000FFF797F9284904F52A5E0B680EF11C0E17
:1035A000CDF828E0002B3FF47EAE24480388072B9B
:1035B0007FF683AE18480721006803F0BBF9174A6D
:1035C00003460A210A9813F035FB42F2247319EEE0
:1035D000900A0A99E1501422294633467830009621
:1035E000FFF72CF942F2287319EE900AE75042F2E5
:1035F0002C73E750FEF799FD19EE900A3346EA2244
:1036000060210096FFF71AF942F2A0634FF0790E9D
:103610000399E15014E000BFE80002207D5B02083E
:10362000885B0208996633FFCC9900FF996600FF1A
:103630000A0A0AFF663300FFDC000220E0000220D5
:10364000CDF800E02A46294633460AF13400FFF758
:10365000F5F8D94A009242F294734FF0010C24F825
:1036600003C0A2F54B1203F17F43A2F6CD42D3492A
:1036700003F6D2335046FFF709F90DF1E80ED04BAF
:103680003A93714608235046ADF8EC30FFF70AF93B
:103690002946142233460AF178000096FFF7CEF847
:1036A00042F2E4735046E75042F2E873E750FEF707
:1036B00070FF3346AD22232150460096FFF7BEF837
:1036C00042F260730399E1502A462946334609F1D4
:1036D00034000096FFF7B2F8B74A009242F6500362
:1036E0004FF0010C24F803C0A2F54B1203F17F4305
:1036F000A2F6CD42B149B24D03F616334846FFF764
:10370000C5F80DF1E80E71460A2348463A95ADF822
:10371000EC30FFF7C7F814220021334609F1780096
:103720000096FFF78BF842F6A0034846E75042F6B2
:10373000A403E750FEF72DFF3346EA2240F285212D
:1037400048460096FFF77AF842F61C030399E150C9
:1037500000221146334608F134000096FFF76EF858
:10376000954A009242F60C134FF0010C24F803C066
:10377000A2F54B1203F17F43A2F6CD428F4903F627
:103780005A234046FFF782F80DF1E80E71460B23ED
:1037900040463A95ADF8EC30FFF784F8142200214A
:1037A000334608F178000096FFF748F842F65C13BC
:1037B0004046E75042F66013E750FEF7EAFE334614
:1037C000702240F2C22140460096FFF737F842F6D9
:1037D000D8030399E1500022114633460BF134001F
:1037E0000096FFF72BF8744A009242F6C8134FF088
:1037F000010C24F803C0A2F54B1203F17F436F497B
:1038000003F69E13A2F6CD425846FFF73FF83A95CD
:103810003AAD0F2329465846ADF8EC30FFF751F882
:1038200068490B6804F52A553035002B3FF43BAD51
:10383000654A1388102B7FF640AD6448102100685C
:1038400003F078F8624A03460A21284613F0F2F999
:1038500042F618231422E550002133460BF178007C
:103860000096FEF7EBFF42F61C235846E75042F65F
:103870002023E750FEF759FC334658460096EA22CB
:103880002321FEF7DBFF42F69413039AE2501AEE6F
:10389000901A20460BF09EFC0B9920460BF09AFCE8
:1038A0000C9920460BF096FC0D9920460BF092FCEB
:1038B0000E9920460BF08EFC0F9920460BF08AFCE7
:1038C000109920460BF086FC119920460BF082FCE3
:1038D000129920460BF07EFC139920460BF07AFCDF
:1038E000149920460BF076FC159920460BF072FCDB
:1038F000169920460BF06EFC179920460BF06AFCD7
:10390000189920460BF066FC199920460BF062FCD2
:103910001BEE101A20460BF05DFC1A9920460BF0A6
:1039200059FC1BEE901A20460BF054FC1CEE101AAA
:1039300020460BF04FFC1CEE901A20460BF04AFC80
:103940001DEE101A20460BF045FC1DEE901A204685
:103950000BF040FC1EEE101A20460BF03BFC1EEE56
:10396000901A20460BF036FC1B9920460BF032FCD7
:103970001FEE101A20460BF02DFC1FEE901A204669
:103980000BF028FC049920460BF024FC05992046F6
:103990000BF020FC069920460BF01CFC1AEE101AC6
:1039A00020460BF017FC18EE101A20460BF012FC04
:1039B00018EE901A0EE000BF996633FF996600FF7B
:1039C000885B0208DC000220E0000220E800022000
:1039D0007D5B020820460BF0FDFB19EE101A204615
:1039E0000BF0F8FB079920460BF0F4FB08992046F2
:1039F0000BF0F0FB099920460BF0ECFB19EE901A46
:103A000020460BF0E7FB514620460BF0E3FB49460E
:103A100020460BF0DFFB414620460BF0DBFB204647
:103A200059460BF0D7FB20463DB0BDEC108BBDE8EE
:103A3000F08F00BF704770477047704770B541F214
:103A4000A8050446405948B10368DB68984728B187
:103A500060590368BDE870409B68184770BD0368F3
:103A6000D3F888301847FFF7FABFFFF7F8BFFFF722
:103A7000F6BFFFF7F4BFFFF7F2BFFFF7F0BFFFF7A6
:103A8000EEBFFFF7ECBFFFF7EABFFFF7E8BFFFF7B6
:103A9000E6BF70477047704710B4C2684168541061
:103AA000034601EB6200D20748BF0A599B685DF8E4
:103AB000044B48BFD358184743682BB183682BB9D0
:103AC000C06800F001007047184670470120704739
:103AD00030B4C26844685510034604EB6200D20754
:103AE00048BF62599B6830BC48BFD35818474368E9
:103AF0002BB183682BB9C06800F0010070471846ED
:103B000070470120704710B5102104461FF0CEF910
:103B1000204610BD10B5102104461FF0C7F92046FD
:103B200010BD10B541F2AC0104461FF0BFF92046AC
:103B300010BD10B5044600F5067002F02BFF04F529
:103B40004B7002F027FF04F5886002F023FF04F2B7
:103B5000545002F01FFF04F5CD6002F01BFF04F289
:103B60007C7002F017FF04F5096002F013FF04F601
:103B7000A41002F00FFF04F6B82002F00BFF04F6C9
:103B8000CC3002F007FF04F54E6002F003FF04F6AC
:103B9000F450BDE8104002F0FDBE00F16003994210
:103BA00010B504460AD10368D3F88C3098472368CF
:103BB000D3F898302046BDE81040184700F58E73C2
:103BC000994203D10368D3F89030F4E700F6087304
:103BD000994203D10368D3F89430ECE710BD00009C
:103BE0002DE9F04F2DED0C8B044691B0A346002536
:103BF000FEF73EFBCD4BA5624BF82C3B5846FEF73B
:103C00005BFA04F16009CA4BE36204F58E78A5659E
:103C1000A4F85C504846FEF78FFE04F5EC7A404667
:103C2000FEF78AFE5046FEF715FEC24BC4F8D831A7
:103C300004F506731846C4F8145208EE103A02F060
:103C4000B3FE04F54B73184608EE903A02F0ACFE52
:103C500004F58863184609EE103A02F0A5FE04F256
:103C60005453184609EE903A02F09EFE04F5CD63D7
:103C700018460AEE103A02F097FE04F27C731846DA
:103C80000AEE903A02F090FE04F5096318460BEE36
:103C9000103A02F089FE04F6A41318460BEE903A8F
:103CA00002F082FE04F6B82318460CEE103A02F039
:103CB0007BFE04F6CC3318460CEE903A02F074FE0C
:103CC00004F54E6318460DEE103A02F06DFE04F650
:103CD000F453184604F608770DEE903A02F064FEAD
:103CE0003846FEF729FE944B944AC4F8D83FC4F8EE
:103CF000F02F934BC4F8E03F04F58052914B92496A
:103D0000C4F8E83FC4F8F83FC4F8DC4FC4F8E45FF7
:103D1000C4F8EC4FC4F8F45FC4F8FC4F116041F2F2
:103D200004025846A55041F20802A118A35041F2DE
:103D300010024C6004918549A15041F21402792689
:103D4000A55041F21802A118A35004F581524C600D
:103D500005917F49116041F22402A55041F22802E9
:103D6000A118A35041F230024C6006917949A1504C
:103D700041F23402A55041F23802A118A35004F5D3
:103D800082524C6007917449116041F24402A5507F
:103D900041F24802A1180891A35041F250024C6030
:103DA0006E49A15041F25402A55041F25802A118A7
:103DB000A35004F583524C6009916949116041F2A6
:103DC0006402A55041F26802A118A35041F27002AA
:103DD0004C600A916349A15041F27402A55041F22E
:103DE0007802A118A35004F584524C600B915E49EF
:103DF000116041F28402A55041F28802A118A3503B
:103E000041F290024C600C915849A15041F2940249
:103E1000A55041F29802A118A35004F58553544AC5
:103E20004C601A6041F2A4030D91E55041F2A803E1
:103E30002A46E5504F4BA3604FF4967300932946F2
:103E40004FF48773FEF7FAFC4B4A00964FF07F431E
:103E5000C4E9152305232A46A4F85C3029463C23EF
:103E600004F19400FEF7EAFC4FF001034349A4F883
:103E7000C430434B4348C4F8D000C4E9323103F5A1
:103E80004C13C4F8D430236E4846D3F88830984792
:103E90000DF1380E3C4B0E9371461C234846ADF88D
:103EA0003C30FEF7FFFC3222294600963C2304F109
:103EB000D800FEF7C3FC354B4846C4E94533FEF74E
:103EC00068FB00963C2304F6D8766A22C421484653
:103ED000FEF7B4FC0296C4F890603C2633462A46AE
:103EE000294604F5A8700096FEF7A8FC2349244A49
:103EF000D4F81C312348D3F88830C4F88C014FF033
:103F0000010CC4E9612102F54C12A4F880C1C4F887
:103F10009021404698471C4A0E921B230EA940460A
:103F2000ADF83C30FEF7BEFC32E000BF2C5F02086B
:103F30007C820208D4810208FC5E02085F3A000815
:103F40009B3B0008145F0208673A00086B3A0008C0
:103F50006F3A0008733A0008773A00087B3A000885
:103F60007F3A0008833A0008873A00088B3A000835
:103F70008F3A00080E012C01878787FFCC9900FF3C
:103F8000996600FF663300FF885B02080A0A0AFF91
:103F900014222946334604F5CA700096FEF74EFCFB
:103FA000AA4B4046C4E97433FEF7F3FA3346E422E1
:103FB000C42140460096FEF741FC029BC4F84C31F8
:103FC000192300930E22C8230D215046FEF736FC1C
:103FD0004FF07F43C4F8083204F6C47303939C4B3C
:103FE000A4F80C521B682BB99A4B9B4AAE219B48F4
:103FF0001EF08AFF9A4B1B881A2B03D8994B964ABE
:10400000AF21F4E7984B1A21186802F093FC974A05
:1040100003460A21039812F00DFE039BC4F81432E4
:104020004FF01902924B0E930EA95046ADF83C206A
:104030000CF067FE18EE100A2D220D21FEF72AF96A
:1040400004F6E87318EE900AC4F828332D224A21AA
:10405000FEF720F904F6F873C4F83C3419EE100AA0
:104060002D228721FEF716F9049AC4F8502519EE7F
:10407000900A6A220D21FEF70DF9059AC4F864260C
:104080001AEE100A6A224A21FEF704F9069AC4F8C9
:1040900078271AEE900A6A228721FEF7FBF8079A22
:1040A000C4F88C281BEE100AA7220D21FEF7F2F8A7
:1040B000089AC4F8A0291BEE900AA7224A21FEF70D
:1040C000E9F8099AC4F8B42A1CEE100AA72287213D
:1040D000FEF7E0F80A9AC4F8C82B1CEE900AE42216
:1040E0000D21FEF7D7F80B9AC4F8DC2C1DEE100A50
:1040F000E4224A21FEF7CEF80C9AC4F8F02D1DEE0A
:10410000900AE4228721FEF7C5F80D9AC4F8042F1F
:10411000294633462A4604F63C700096FEF78EFB8D
:104120004FF00102A4F86C2F524AC4F8702F02F528
:104130004C523332C4F8742FA2F5CC42663AD4F80C
:10414000083FC4F8782F02F1331202F54C52C4F83C
:104150007C2F3846D3F888309847454B0E930EA9EC
:1041600016233846ADF83C30FEF79CFB2946334613
:10417000142204F578600096FEF760FB334BC4F818
:10418000BC3FC4F8C03F3846FEF703FA2D22334641
:1041900038460096C421FEF751FB029BC4F8383F15
:1041A000594620460BF016F8494620460BF012F807
:1041B000414620460BF00EF8514620460BF00AF817
:1041C00018EE101A20460BF005F818EE901A20464B
:1041D0000BF000F819EE101A20460AF0FBFF19EE5A
:1041E000901A20460AF0F6FF1AEE101A20460AF03E
:1041F000F1FF1AEE901A20460AF0ECFF1BEE101A9F
:1042000020460AF0E7FF1BEE901A20460AF0E2FF74
:104210001CEE101A20460AF0DDFF1CEE901A204614
:104220000AF0D8FF1DEE101A20460AF0D3FF1DEE4B
:10423000901A20460AF0CEFF204639460AF0CAFFFF
:10424000204611B0BDEC0C8BBDE8F08F0A0A0AFFC6
:10425000DC000220745A0208B65A0208E45A020826
:10426000E00002202B5B0208E80002207D5B0208D0
:10427000885B0208996600FF7047704710B54FF4DD
:10428000A06104461EF012FE204610BD10B5262285
:10429000044600211FF0DEF82046FDF7E9FFFF236A
:1042A000044A84F826300023A3622260E362238656
:1042B000204610BD7C82020810B52622044600214B
:1042C0001FF0C8F82046FDF7D3FF084BA3624FF656
:1042D000FF73A3854FF47F020023C4E90C32044A24
:1042E00023872260E363204610BD00BF885B02087D
:1042F000D48102082DE9F04F2DED108B044687B0D4
:10430000FDF7B6FF224600258E4BA56242F82C3BF6
:10431000104608EE102AFFF7B9FF04F160031846B3
:104320000DEE103AFFF7B2FF04F1940318460DEEBC
:10433000903AFFF7ABFF04F1C80318460EEE103AAF
:10434000FFF7A4FF04F1FC0318460EEE903AFFF7C6
:104350009DFF04F5987318460FEE103AFFF796FF8D
:1043600004F5B27318460FEE903AFFF78FFF04F58D
:10437000CC7318460293FFF789FF04F5E6731846DD
:104380000393FFF783FF04F50073184608EE903A95
:10439000FFF792FF04F51073184609EE103AFFF785
:1043A0008BFF04F52073184609EE903AFFF784FF5F
:1043B00004F5307318460AEE103AFFF77DFF04F556
:1043C000407318460AEE903AFFF776FF04F55073F3
:1043D00018460BEE103AFFF76FFF04F560731846AE
:1043E0000BEE903AFFF768FF04F5707318460CEE79
:1043F000103AFFF761FF04F58063184614270CEEAE
:10440000903AFFF759FF504BA3604FF0FF394FF040
:1044100001084FF07F4618EE100A96232A462946D7
:104420000097FEF70BFAC4E915961DEE100A322329
:104430002A469621A4F85C800097FEF7FFF9C4E9AC
:1044400022961DEE900A64232A46C821A4F8908083
:104450000097FEF7F3F9C4E92F961EEE100A6423C5
:104460002A464FF49671A4F8C4800097FEF7E6F947
:10447000C4E93C961EEE900A32232A464FF4C871D6
:10448000A4F8F8800097FEF7D9F9C4E949961FEE21
:10449000100A32232A464FF4E171A4F82C810097C8
:1044A000FEF7CCF9C4E956961FEE900A64232A461B
:1044B0004FF4FA71A4F860810097FEF7BFF9C4E9E0
:1044C00063960298A4F8948132232A464FF4167119
:1044D0000097FEF7B3F94FF0130AC4E970960398FA
:1044E000A4F8C88164232A4640F28A210097FEF787
:1044F000A5F9C4E97D96962318EE900ADFF860903E
:10450000A4F8FC81CDF800A02A462946FEF796F9CA
:104510000E4BC4F83032D9F80030A4F8348204F5D8
:10452000886B2BB90A4B0B4AAE210B481EF0ECFCF2
:10453000DFF83080B8F80030242B15D8074B054A37
:10454000AF21F2E7D05F0208EE021400020203FF7F
:10455000745A0208B65A0208E45A02082B5B020891
:10456000DC000220E0000220E24B2421186802F067
:10457000E1F9E14A03463946584612F05BFBDF4F4A
:10458000C4F83CB2232318EE900A04A9ADF8143005
:1045900004970CF0B6FB322319EE100ACDF800A0F8
:1045A0002A469621FEF74AF9D9F80030C4F870621D
:1045B000A4F8745204F58D6B002BB3D0B8F800301A
:1045C000222BBBD9CB4B2221186802F0B3F9CA4A7F
:1045D00003460521584612F02DFB212319EE100A3F
:1045E000C4F87CB204A9ADF8143004970CF089FB30
:1045F000642319EE900ACDF800A02A46C821FEF7E0
:104600001DF9D9F80030C4F8B062A4F8B45204F22D
:10461000724B002B86D0B8F80030262B8ED9B54BC4
:104620002621186802F086F9B34A03460A21584643
:1046300012F000FB252319EE900AC4F8BCB204A9BD
:10464000ADF8143004970CF05CFB64231AEE100AEA
:10465000CDF800A02A464FF49671FEF7EFF8D9F88E
:104660000030C4F8F062A4F8F45204F2864B002B38
:104670003FF458AFB8F80030282B7FF65FAF9D4B62
:104680002821186802F056F99B4A03460A21584629
:1046900012F0D0FA27231AEE100A04A9C4F8FCB2CB
:1046A000ADF8143004970CF02CFB32232A461AEE96
:1046B000900ACDF800A04FF4C871FEF7BFF8D9F802
:1046C0000030A4F83453C4F8306304F29A45002B48
:1046D0003FF428AFB8F800302A2B7FF62FAFDFF871
:1046E0001492DFF82082D9F800002A2102F022F982
:1046F000814A03460A21284612F09CFA4FF0130A19
:1047000029231AEE900AC4F83C5304A9ADF81430DA
:1047100004970CF0F6FA32231BEE100ACDF800A035
:1047200000224FF4E171FEF789F84FF07F43C4F89F
:104730007033D8F8003000253E46A4F8745304F2D4
:10474000AE4B002B3FF4EEAE6D4F3B882C2B7FF62B
:10475000F5AE2C21D9F8000002F0ECF8664A0346C9
:104760000A21584612F066FA2B231BEE100AC4F8F1
:104770007CB304A9ADF8143004960CF0C2FA64239B
:104780001BEE900ACDF800A02A464FF4FA71FEF70E
:1047900055F84FF07F43C4F8B033D8F80030A4F890
:1047A000B45304F2C24B002B3FF4BCAE3B882E2B1B
:1047B0007FF6C4AE2E21D9F8000002F0BBF84E4AB5
:1047C00003460A21584612F035FA2D231BEE900AB3
:1047D000C4F8BCB304A9ADF8143004960CF091FAF7
:1047E00032231CEE100ACDF800A02A464FF41671B1
:1047F000FEF724F84FF07F43C4F8F033D8F80030C8
:10480000A4F8F45304F2D64B002B3FF48BAE3B8854
:10481000302B7FF693AE3021D9F8000002F08AF8F1
:10482000354A03460A21584612F004FA2F231CEE9B
:10483000100A04A9C4F8FCB3ADF8143004960CF0C7
:1048400060FA64232A461CEE900ACDF800A040F2DC
:104850008A21FDF7F3FF4FF07F43C4F83034D8F8D6
:104860000030A4F8345404F2EA45002B3FF45AAE69
:104870003B88322B7FF662AED9F80000322102F07D
:1048800059F81D4A03460A21284612F0D3F931236C
:104890001CEE900A04A9C4F83C54ADF814300496F8
:1048A0000CF02FFA18EE101A20460AF093FC1DEEB9
:1048B000101A20460AF08EFC1DEE901A20460AF0CF
:1048C00089FC1EEE101A20460AF084FC1EEE901A97
:1048D00020460AF07FFC1FEE101A20460AF07AFCF0
:1048E0001FEE901A20460AF075FC029920460AF045
:1048F00071FC09E0E80002207D5B0208885B020889
:10490000E0000220DC000220039920460AF062FC4D
:1049100018EE901A20460AF05DFC19EE101A204697
:104920000AF058FC19EE901A20460AF053FC1AEED1
:10493000101A20460AF04EFC1AEE901A20460AF091
:1049400049FC1BEE101A20460AF044FC1BEE901A9C
:1049500020460AF03FFC1CEE101A20460AF03AFCF2
:1049600020461CEE901A0AF035FC204607B0BDEC3C
:10497000108BBDE8F08F00BF704700F59673086894
:10498000496803C37047704770474160704770477C
:104990000123037270477047704710B4C2684168C2
:1049A0005410034601EB6200D20748BF0A599B68C6
:1049B0005DF8044B48BFD358184743682BB1836850
:1049C0002BB9C06800F001007047184670470120FD
:1049D000704710B50C2104461EF068FA204610BD41
:1049E00010B5102104461EF061FA204610BD10B526
:1049F0004FF4AC7104461EF059FA204610BD10B5B4
:104A00000EF070FC0368BDE810401B6B184710B532
:104A10000446D0F83C0158B10368DB68984738B1C8
:104A2000D4F83C0103689B6898470023C4F83C31E4
:104A300010BD0000F8B5044617460E460EF0BAFC4D
:104A4000104B0025C4E954760F4E1C60C4E9525542
:104A50000E4B306823600E4BC4E95035036829467D
:104A60009B68C4E94E559847284601F027FF3368F4
:104A700093F876200AB1D86C00B9986817F0C1F89D
:104A80002046F8BDD80002208C0002209C64020859
:104A900084640208064BC0F848310023C0F84C314A
:104AA00000F5A073C0F84401C0F83C31704700BF66
:104AB000154C0008064BC0F848310023C0F84C31B3
:104AC00000F5A073C0F84401C0F83C31704700BF46
:104AD0007D4D00082DE9F84F07469068DDF828A0C5
:104AE000994603681B6A8846144698474DF6137327
:104AF000984205D8414B424AA32142481EF004FA8D
:104B0000606803681B6A98470F2803D83E4B3C4AED
:104B1000A421F2E7E06803681B6A98470B2803D8D2
:104B20003A4B374AA521E8E70EF0DCFB0EF028FCF3
:104B3000D9F8000010B10368DB689847D9F8000085
:104B400010B103681B689847386810B103685B6947
:104B50009847D8F8000010B103685B689847386838
:104B600010B103681B689847D8F8000010B10368BB
:104B70009B689847E068036800215B6A98474FF09C
:104B8000000B234B03600546C0F804B080F808B062
:104B9000A068036859465B6A9847064602F0F4FD30
:104BA0006068036859465B6A98473146044602F0DC
:104BB000EFFCC9F80050C8F800403E60E4B1231D86
:104BC000CAF800303368C4F808A03046DB68F463E4
:104BD0009847236820461B689847294630460FF0BF
:104BE00073FF2B6828461B6998472B6828465B692A
:104BF00098472046BDE8F88F2346E1E75860020851
:104C0000E6600208EA61020831620208D462020822
:104C1000E064020807B5D0F854310093D0F8502171
:104C2000044B00F59C710448FFF754FF03B05DF896
:104C300004FB00BFCC000220C80002202DE9F84F81
:104C400007469068DDF828A0994603681B6A8846E5
:104C50001446984744F27B53984205D8414B424A48
:104C6000A32142481EF050F9606803681B6A984708
:104C70000F2803D83E4B3C4AA421F2E7E0680368C2
:104C80001B6A98470B2803D83A4B374AA521E8E717
:104C90000EF028FB0EF074FBD9F8000010B1036889
:104CA000DB689847D9F8000010B103681B68984783
:104CB000386810B103685B699847D8F8000010B1F4
:104CC00003685B689847386810B103681B689847A9
:104CD000D8F8000010B103689B689847E068036843
:104CE00000215B6A98474FF0000B234B0360054699
:104CF000C0F804B080F808B0A068036859465B6A41
:104D00009847064603F084F86068036859465B6A72
:104D100098473146044602F07BFFC9F80050C8F8B6
:104D200000403E60E4B1231DCAF800303368C4F887
:104D300008A03046DB68F4639847236820461B6868
:104D40009847294630460FF0BFFE2B6828461B695E
:104D500098472B6828465B6998472046BDE8F88F3E
:104D60002346E1E75860020877630208EA61020817
:104D700031620208D4620208E064020807B5D0F884
:104D800054310093D0F85021044B00F59C71044835
:104D9000FFF754FF03B05DF804FB00BFCC00022016
:104DA000C8000220006A7047406A704770478B88CD
:104DB00080690A68DB0A50F823001044704710B578
:104DC000C2B1137BB3B1547BD27A240204F4E06401
:104DD0001443C26998B202EB840213888B4202D159
:104DE00092F9020010BD05D8013880B204320028C3
:104DF000F3D1F7E70020F5E710B5282104461EF0AF
:104E000055F8204610BD000030B589B00446BDF805
:104E100050500695BDF84C5005959DF840500495AE
:104E20009DF83C5003959DF8385002959DF83450FC
:104E300001959DF8305000950FF0A6FA064B2360BF
:104E4000119BA361129BE361159B2362169B636216
:104E5000204609B030BD00BF0465020870477047A6
:104E6000704770477047704770477047704770478A
:104E7000704770477047704770477047704770477A
:104E800030B4C26844685510034604EB6200D20790
:104E900048BF62599B6830BC48BFD3581847436825
:104EA0002BB183682BB9C06800F001007047184629
:104EB00070470120704730B4C268446855100346FB
:104EC00004EB6200D20748BF62599B6830BC48BF00
:104ED000D358184743682BB183682BB9C06800F0DA
:104EE00001007047184670470120704710B5102127
:104EF00004461DF0DBFF204610BD10B5102104460E
:104F00001DF0D4FF204610BD10B544F25C5104469C
:104F10001DF0CCFF204610BD10B50446D03001F086
:104F20003EFF04F5D46001F03AFF04F5476001F05C
:104F300036FF04F5925001F032FF04F5C0501030F6
:104F400001F02DFF04F5EF5001F029FF04F50E509C
:104F5000303001F024FF04F5265001F020FF04F565
:104F60003D50103001F01BFF04F554502030BDE8D7
:104F7000104001F014BF00F56C522432914202D16E
:104F800003681B6B184700F56F522032914202D123
:104F90000368DB6AF6E700F573521032914202D1E2
:104FA00003685B6BEEE700F576521032914202D156
:104FB0000368DB6BE6E700F579521032914202D1CB
:104FC00003681B6CDEE700F57C521032914202D17F
:104FD00003685B6CD6E700F57F521032914202D134
:104FE00003689B6CCEE700F581421032914202D1FA
:104FF0000368DB6CC6E700F582425032914202D171
:1050000003689B6BBEE700F585424032914202D1B6
:105010000268126D104700F586427C32914208D139
:1050200044F235220021815400F5844010300FF005
:1050300001B9704700F56B503030814208B505D199
:105040000EF050F9BDE80840FFF734BD08BD036815
:10505000C0E92E12D3F88830184700002DE9F04F30
:105060002DED108B04468FB00FF082FB22460025F9
:10507000E24BE56342F8403B10460EEE102AFDF786
:105080001BF804F16C03184604F1A0080EEE903AE8
:10509000FDF712F8DA4BE366C4F89850A4F89C5078
:1050A0004046FDF7E5F8DFF884A3C4F8A0A004F1BA
:1050B000D0034FF0010984F8CC901846C4F8C850CA
:1050C000A4F8CE500FEE103A01F074FE04F5D4634C
:1050D00018460FEE903A01F06DFE04F5476318464E
:1050E000059301F067FE04F592531846069301F00C
:1050F00061FE04F5C05310331846039301F05AFEC5
:1051000004F5EF531846079301F054FE04F50E53CF
:1051100030331846049304F53D5701F04BFE04F577
:1051200026531846103704F554560893203601F0DC
:1051300041FE384601F03EFE43F6F02B304601F0CA
:1051400039FE04EB0B030DEE103A294626221846D1
:105150001EF080F91DEE100AFDF78AF81DEE103AD8
:105160009D6283F82C5043F6143343F61E3204F844
:105170000390A44B44F80B304FF6FF73A35243F651
:10518000203243F6A049A3521DEE102A82F8323095
:1051900004F56C532433184608EE103AFDF7CCFBA7
:1051A00004F56F53203304EB090B184608EE903AD0
:1051B000FDF77EF85846FDF75BF8CBF8285044F829
:1051C00009A04FF001098BF82C9004F5735909F1EF
:1051D0001009ABF82E504846FDF76AF804F57653EF
:1051E000103318460AEE103AFDF762F804F57953C9
:1051F000103318460AEE903AFDF75AF804F57C533E
:10520000103318460BEE103AFDF752F804F57F53B1
:10521000103318460BEE903AFDF74AF804F5814337
:10522000103318460CEE103AFDF742F804F58243AD
:10523000503304F5844A18460AF1100A0CEE903AED
:10524000FDF736F8504609F0D5FE04F585434033A6
:10525000184609EE103AFDF76FFB04F586437C33E0
:10526000184609EE903AFDF767FB04F5884338339A
:1052700018460DEE903AFDF733FB44F23C53E2182A
:105280000992614AE250099B604A5C6044F24453CF
:105290001EEE100AE25044F248532946E55044F20B
:1052A0004C53E21802925A4AE250029B594A5C60FF
:1052B00044F25453E25044F258532A46E5504FF416
:1052C000F07300934FF44873FDF7B8FA4FF07F4343
:1052D000A3664FF4F0731EEE900A00932A464FF433
:1052E00048736FF00101FDF7A9FA4FF0FF324FF05C
:1052F0007F43C4E925230323A4F89C3001214046C1
:105300000AF072FAC82220214046FCF7C3FF1FEEC4
:10531000101A40460AF0D2FA1FEE901A40460AF0E0
:10532000CDFA059940460AF0C9FA069940460AF0B6
:10533000C5FA039940460AF0C1FA079940460AF0B7
:10534000BDFA049940460AF0B9FA089940460AF0B5
:10535000B5FA394640460AF0B1FA314640460AF0FD
:10536000ADFA1DEE100A0E221221FCF793FF4FF04A
:1053700001071DEE100A0CAA0BA9ADF83070ADF8AC
:105380002C500BF001FD43F6183318EE100A1E26C0
:10539000099AE2500096C4232A4629463430FDF784
:1053A0004DFA43F688331C4AE7521C4B0093A3F195
:1053B00033131B491B4F18EE100AA3F54C53FDF78E
:1053C00065FA194A0C92332318EE100A0CA9ADF8AD
:1053D0003430FDF767FA18EE100A052229460096C8
:1053E000C4237830FDF72AFA43F6D83318EE100AB2
:1053F000E75043F6DC33E7501AE000BF8C65020843
:105400007C820208308102085C6502083550000881
:1054100074650208774F0008CC9900FF996633FF46
:10542000996600FF0A0A0AFF885B02082C770208C7
:10543000FDF7AFF818EE100A0096C4234A2240F296
:105440004921FDF7FBF943F6543318EE900A02990F
:10545000E150232696232A46294634300096FDF74C
:10546000EDF943F644434FF00101E152144B009330
:10547000A3F13313134A144918EE900AA3F54C53C1
:10548000FDF704FA114A0C92422318EE900A0CA977
:10549000ADF83430FDF715FA0D4B094A1B6803923D
:1054A0002BB90C4B0C4AAE210C481DF02DFD0C4BBA
:1054B0001B88432B18D80B4B074AAF21F4E700BFDA
:1054C000996633FFCC9900FF996600FF885B02085C
:1054D000DC000220745A0208B65A0208E45A020894
:1054E000E00002202B5B0208D34B4321186801F037
:1054F00021FA43F694430096E05018EE900A962362
:105500002A4629467830FDF799F918EE900A3A466E
:105510003946FFF79CFD9D2218EE900A00969623CF
:105520002021FDF78BF943F610430299E1505846CC
:1055300002210AF059F9322640F29D12CB21584639
:10554000FCF7A8FE33462A46294609F134000096A6
:10555000FDF774F943F634534FF00101E152B749B6
:10556000B74A009103F17F43A3F6CE13A1F54C1186
:105570004846FDF78BF9B34B0C930CA934234846EE
:10558000ADF83430FDF79DF904F5894130310391D0
:10559000AD490B68002B84D0AC480388352B8AD9E1
:1055A000A54A3521106801F0C5F9A94A03460A2128
:1055B000039811F03FFB43F68453039AE25009F13C
:1055C00078003346052229460096FDF737F948460C
:1055D0003A463946FFF73BFD43F6D8434FF0321EBB
:1055E00044F803E004F57453029A1A604946584699
:1055F0000AF064F91AEE100A33462A462946343076
:105600000096FDF71BF98D4A009243F6F4534FF0D4
:10561000010C24F803C0A2F54B1203F17F438D491E
:105620001AEE100AA3F68E23A2F6CD42FDF72EF94C
:10563000844B0C930DF1300E362371461AEE100A8E
:10564000ADF83430FDF73DF97F490B6804F5894921
:1056500009F14409002B3FF424AF7C480388372B21
:105660007FF629AF744A3721106801F063F9784A50
:1056700003460A21484611F0DDFA43F644631AEE68
:10568000100A44F8039005223346294678300096E4
:10569000FDF7D4F81AEE100A3A463946FFF7D7FC60
:1056A00043F698534FF0321E44F803E004F5775365
:1056B000029A1A601AEE101A58460AF0FFF81AEE0B
:1056C000900A33462A46294634300096FDF7B6F84C
:1056D0005A4A009243F6B4634FF0010C24F803C019
:1056E000A2F54B1203F17F435A491AEE900AA3F632
:1056F0004E33A2F6CD42FDF7C9F8524B0C930DF193
:10570000300E382371461AEE900AADF83430FDF7AA
:10571000D8F84D490B6804F5894909F15809002B5F
:105720003FF4BFAE49480388392B7FF6C4AE424AE6
:105730003921106801F0FEF8454A03460A2148461F
:1057400011F078FA43F604731AEE900A294644F8E9
:1057500003900522334678300096FDF76FF83A46FD
:1057600039461AEE900AFFF772FC43F658634FF081
:10577000321E44F803E004F57A53029F1F601AEECC
:10578000901A58460AF09AF82A4629461BEE105AF3
:10579000334605F134000096FDF750F843F6747374
:1057A0004FF0010C24F803C0244D254A29490095E7
:1057B00003F17F431BEE100AA3F60E43FDF766F8D4
:1057C0003A23ADF834300CAB19461E4F0C971BEE44
:1057D000100AFDF776F81C490B6804F589456C350D
:1057E000002B3FF45EAE194803883B2B7FF663AE77
:1057F000114A3B21106801F09DF8154A03460A2121
:10580000284611F017FA43F6C4730096E550334664
:1058100035461BEE106A06F178000F4E0522002176
:10582000FDF70CF81BEE100A32463146FFF70FFC6D
:1058300043F6187312E000BFE8000220996633FFB8
:10584000CC9900FF885B0208DC000220E000022007
:105850007D5B0208996600FF0A0A0AFF4FF0321CBE
:1058600044F803C004F57D53029A1A601BEE101A27
:1058700058460AF023F81BEE900A002211462B46E8
:1058800034300095FCF7DAFF44F234034FF001099D
:1058900024F80390D34B0093A3F13313D24AD34996
:1058A0001BEE900AA3F54C53FCF7F0FF3C23ADF838
:1058B00034300CAB19461BEE900A0C97FDF701F83B
:1058C000CB490B6804F58A47002B3FF4EAADC94881
:1058D00003883D2B7FF6EFADC74A3D21106801F0EC
:1058E00029F8C64A03460A21384611F0A3F944F2C2
:1058F00084031BEE900AE75005222B4600217830E6
:105900000095FCF79BFF1BEE900A32463146FFF7ED
:105910009EFB43F6D8734FF0321C44F803C004F5E5
:105920008043029A1A601BEE901A584609F0C6FF8F
:105930001CEE100A002211462B4634300095FCF76D
:105940007DFF44F2F403A84A24F80390A54B00938A
:10595000A3F13313A549AA4F1CEE100AA3F54C532B
:10596000FCF794FF3E23ADF834300CAB19461CEE27
:10597000100A0C97FCF7A5FF9D490B6804F58A47B0
:105980001437002B3FF48DAD9A4803883F2B7FF6E8
:1059900092AD994A3F21106800F0CCFF974A034628
:1059A0000A21384611F046F944F244131CEE100A5D
:1059B000E75005222B46002178300095FCF73EFF8A
:1059C0001CEE100A32463146FFF741FB44F29803C1
:1059D0004FF0321C44F803C044F2C003029AE25074
:1059E0001CEE101A584609F069FF1CEE900A0022BE
:1059F00011462B4634300095FCF720FF44F2B413D7
:105A0000794A24F80390774B0093A3F13313774935
:105A10007B4F1CEE900AA3F54C53FCF737FF0DF1BA
:105A2000300C402361461CEE900A0C97ADF83430E0
:105A3000FCF747FF6E490B6804F58A472837002BAF
:105A40003FF42FAD6B480388412B7FF634AD6A4A93
:105A50004121106800F06EFF684A03460A2138466B
:105A600011F0E8F81CEE900A44F204230095E75088
:105A700005222B4600217830FCF7E0FE1CEE900A50
:105A800032463146FFF7E3FA44F258134FF0321230
:105A9000E25004F58343029A1A601CEE901A5846AD
:105AA00009F00CFF0323A022ADF830300CA96823C5
:105AB000504609F05FFA50464FF07F4109F047FA2F
:105AC0009621504609F047FA504609F036FA19EE89
:105AD000100A282700222B46114600973430FCF785
